:100000000C94D2020C940A030C940A030C940A0375
:100010000C940A030C940A030C940A030C940A032C
:100020000C940A030C940A030C947D250C9451261D
:100030000C9499200C940A030C940A030C940A0360
:100040000C940A030C940A030C940A030C940A03FC
:100050000C940A030C9420210C940A030C940A03B8
:100060000C940A030C940A030C940A030C940A03DC
:100070000C940A030C940A030C940A030C940A03CC
:100080000C940A030C940A030C940A030C940A03BC
:100090000C940A030C940A030C940A030C940A03AC
:1000A0000C940A030C940A030C940A0329001E0002
:1000B0001F0020002100220023002400250026002C
:1000C00027002D002E0035002A002B0014001A00F6
:1000D0000800150017001C0018000C001200130087
:1000E0002F00300031000000E3000400160007007C
:1000F00009000A000B000D000E000F003300340051
:10010000000028000000E10000001D001B000600A8
:100110001900050011001000360037003800E50016
:1001200052004C00E000E0002800215200000000D6
:1001300000002C002252E6002A00500051004F001F
:100140000000007C3A003B003C003D003E003F00C8
:1001500040004100420043004400450001004C00C3
:100160000100207821785200237824782578267899
:10017000277828780100010001000100000001003B
:100180004A00500051004F00010001004D000100E5
:10019000010001000100000001000000010000005A
:1001A00001000100037802780478010001000100D9
:1001B0000100010001000100010001000100010037
:1001C00001000000000000009100E30001000100B8
:1001D0000100010001000000007C000000000000A0
:1001E000000000000000000000000000000000000F
:1001F00000000000000000000000000052000000AD
:1002000000000000000000000000000000000000EE
:100210000000000000000000500051004F000000EE
:1002200000004A004D000000000000000000000037
:1002300000000000000000000000000000000000BE
:1002400000000000000000000000000000000000AE
:10025000000000000000E30000000000000090002B
:1002600000000000000000000000000000001E0F61
:100270000500047F3F1F643214643214783C1E1E54
:10028000140A052223252628292A2C2D2F30323323
:100290003536383A3B3D3E4042434547494A4C4E4D
:1002A0005051535557595A5C5E6062646668696B79
:1002B0006D6F71737577797B7D7F81838587898A7F
:1002C0008C8E90929496989A9C9E9FA1A3A5A7A885
:1002D000AAACAEAFB1B3B4B6B8B9BBBCBEBFC1C2B5
:1002E000C3C5C6C7C9CACBCCCDCED0D1D2D2D3D448
:1002F000D5D6D7D7D8D9D9DADADBDBDBDCDCDCDC66
:10030000DCDDDDDDDDDCDCDCDCDCDBDBDBDADAD933
:10031000D9D8D7D7D6D5D4D3D2D2D1D0CECDCCCBB5
:10032000CAC9C7C6C5C3C2C1BFBEBCBBB9B8B6B4D3
:10033000B3B1AFAEACAAA8A7A5A3A19F9E9C9A9863
:10034000969492908E8C8A89878583817F7D7B7934
:10035000777573716F6D6B6968666462605E5C5A15
:100360005957555351504E4C4A4947454342403ED8
:100370003D3B3A3836353332302F2D2C2A2928266A
:10038000252322FFAA7F554000010101010101013F
:10039000010102020202020202020203030303033A
:1003A0000303030404040404040405050505050609
:1003B00006060606070707070708080808090909C7
:1003C000090A0A0A0B0B0B0C0C0C0D0D0D0E0E0E70
:1003D0000F0F0F1010111111121213131414151501
:1003E00016161717181819191A1A1B1B1C1D1D1E73
:1003F0001E1F2020212222232424252626272829C7
:10040000292A2B2C2D2D2E2F3031323233343536F4
:100410003738393A3B3C3D3E3F40414243444546F4
:100420004748494A4C4D4E4F5051535455565859D0
:100430005A5B5D5E5F616264656668696B6C6D6F77
:100440007072737577787A7B7D7E808283858788EA
:100450008A8C8E8F91939596989A9C9EA0A2A3A524
:10046000A7A9ABADAFB1B3B5B7BABCBEC0C2C4C625
:10047000C9CBCDCFD1D4D6D8DBDDDFE2E4E7E9EBE1
:10048000EEF0F3F5F8FAFDFF0C0359004D004400BF
:100490003600370000000A0359004D0044004B00AD
:1004A00000000403090409023B00020100A0FA094C
:1004B000040000010301010009211101000122448F
:1004C0000007058103080001090401000103000081
:1004D00000092111010001226D000705820320009F
:1004E0000112010002000000084D59606001000186
:1004F00002000105010980A101850319012AB70045
:10050000150126B700950175108100C0050C090181
:10051000A101850419012AA002150126A002950156
:1005200075108100C005010906A10185060507199E
:10053000E029E715002501950875018102050719D5
:100540000029EF1500250195F075018102050819B4
:10055000012905950575019102950175039101C069
:1005600005010906A101050719E029E71500250184
:10057000950875018102950175088101050719002B
:1005800029FF150026FF009506750881000508194A
:100590000129051500250195057501910295017543
:1005A000039101C011241FBECFEFDAE0DEBFCDBF43
:1005B00004B603FE18C080916D0390916E03A09164
:1005C0006F03B09170038730904BA740B04B59F444
:1005D00010926D0310926E0310926F0310927003CD
:1005E000E0E0F8E3099511E0A0E0B1E0E6E3F5E52D
:1005F00002C005900D92A83DB107D9F723E0A8ED00
:10060000B1E001C01D92AD36B207E1F70E94BC1205
:100610000C94062A0C9400008330B8F46530A8F4DA
:100620004F3098F450E09FE0699F400D511D112418
:10063000FA019BE4899FE00DF11D1124EE0FFF1FCD
:10064000E455FF4F85919491089581E090E00895DD
:100650000E940C03089581E008950E942B030895E1
:1006600081E008950E942B0308950E9432030895AB
:1006700008950E9438030895A6E0B0E0E2E4F3E0B4
:100680000C94B22849835A839E833091DF0189817B
:100690009A8131111AC03E81332399F0222389F0C7
:1006A0000E941F09182F682F89819A810E94FB08D8
:1006B00069817A81812F0E9421102696E3E00C94B3
:1006C000CE280E940D09182FF3CF0E941F096981BF
:1006D0007A81F1CFFC01262F4081518162817381A3
:1006E000848195810E943C030895CF93DF93EC01B0
:1006F00061E00E946A03BE010E942D03DF91CF9149
:100700000895CF93DF93EC0160E00E946A03BE017D
:100710000E943903DF91CF91089581E008950E94EE
:100720008D030895CF93C82F0E94D0078C2F0E946D
:100730008F032FEF84E39CE0215080409040E1F74D
:1007400000C00000CF91089581E00E9492030E94B2
:100750004421089580E00E9492030E946821089538
:100760000F931F93CF93DF938C0161E00E946A0384
:10077000EC01F801858181110E940C1AB801CE01AB
:100780000E943503811106C080E0DF91CF911F9157
:100790000F910895B801CE010E94851B8823A1F313
:1007A000B801CE010E94A71E882371F3B801CE01C3
:1007B0000E94671D882341F3B801CE010E943D1DB0
:1007C000882311F3B801CE010E942B1A8823E1F28D
:1007D000F8018581882361F0C330FCE7DF07E9F089
:1007E00058F4C115ECE7DE07A9F0C130DC47B9F0D9
:1007F000C8010E943003C9CFCB358CE7D807A9F0D8
:10080000CC35ECE7DE0771F0CA35DC4789F70E948A
:10081000660DEECF0E94A403B7CF0E946E0D0E941A
:10082000AA03B2CF0E945C0DE3CF0E946A0DE0CF15
:100830000E94752080E00E94641B0E944404089579
:100840000E94B11A0E9448040E947A2008950895D7
:1008500081E008950895CF93DF93D82F0E94280454
:10086000C82F882319F08D2F0E942A048C2FDF9126
:10087000CF9108950895CF93C82F0E9427048C2FFD
:100880000E942B04CF91089580E00E943B040895BC
:100890000E94F01E0E943B040895CF930E94F01E18
:1008A000C82F8091DA018C1779F0C093DA010E9489
:1008B00005216093DB017093DC018093DD0190934F
:1008C000DE018C2F0E943B04CF910895ADE0B0E093
:1008D000ECE6F4E00C94B328488759876A877B8755
:1008E0008C879D8791110E946C0C1F8286E0FE010F
:1008F0003896DE01119601900D928A95E1F78D816F
:1009000081110DC029813A814B815C816D817E818D
:100910008F810E94B60B2D96E2E00C94CF28CE0179
:1009200001960E9475038111EDCFF5CFFC01248162
:10093000213021F4808191810E9451090895CF9343
:10094000C82F8823A9F08238A9F489E30E940B20DC
:100950000E94000D2FEF87EE93E0215080409040E1
:10096000E1F700C0000089E30E9422200E94000DF0
:10097000CF910895833881F483E50E940B200E9473
:10098000000D2FEF81EE94E0215080409040E1F780
:1009900000C0000083E5E8CF843881F487E40E943A
:1009A0000B200E94000D2FEF81EE94E0215080403B
:1009B0009040E1F700C0000087E4D6CF8CEF8C0FA9
:1009C000813A98F48C2F0E94061D8111D1CF8C2F73
:1009D0000E94821F882329F08C2F0E9422200E94CF
:1009E000000D8C2F0E940B20C1CF80E28C0F88302D
:1009F00048F4C77081E001C0880FCA95EAF70E94E9
:100A00004F0CB4CFEBE5EC0FE33040F4F0E0E45AE8
:100A1000FE4F808190E00E94161FAACFC85ACB31AA
:100A200008F0A6CFEC2FF0E0EE0FFF1FEA5DFE4FBF
:100A3000808191810E943B1F9BCF882309F441C094
:100A4000823859F489E30E940B200E94000D89E34B
:100A50000E9422200E94000D0895833839F483E516
:100A60000E940B200E94000D83E5F2CF843839F4F8
:100A700087E40E940B200E94000D87E4E9CF9CEFE1
:100A8000980F913A28F390E2980F983050F48770BD
:100A900091E001C0990F8A95EAF7892F0E94550CC1
:100AA000D9CF9BE5980F933028F490E080E00E9426
:100AB000161F0895885A8B3120F490E080E00E9440
:100AC0003B1F08951F93CF93DF93182FEB010E94D4
:100AD0009F04209739F4812F0E941D05DF91CF914B
:100AE0001F9108958FE99FE00197F1F700C0000082
:100AF0002197EFCF70E060E0893311F460E570E09A
:100B00000E9462050895882321F00E944F0C0E94E4
:100B1000000D0895882321F00E94550C0E94000DBD
:100B20000895B0E0A0E0E7E9F5E00C94AC286C0192
:100B3000D62FC72FFC011581068102950F700E94E8
:100B4000450CE82E8823F9F0E12E1123E1F08C2FDB
:100B5000807F803461F080E28D0F883008F18C2F27
:100B6000807E803221F4D230D8F00023C9F0809109
:100B70001A0382FF15C082E00E94300D0E94450CCE
:100B800091E0E82EE926BC2EB2949FE0B922FBE06A
:100B9000FB15B8F1EB2DF0E0E85FF54D0C946C28F7
:100BA000E12CF1CF0C2F0F70C07F11F00295007F68
:100BB000112399F0002359F080E28D0F883010F056
:100BC000D11107C0802F0E944F0C0E94000D8D2F65
:100BD0005AC0802F0E945F0CF8CF8D2F0E941D05F8
:100BE000002379F080E28D0F883010F0D11104C01D
:100BF000802F0E94550C03C0802F0E94650C0E941C
:100C0000000DEB2DE850FF0B349720F40E94F01EEE
:100C10000E943B04EE2089F00E94410C80FD0DC033
:100C2000F60115820E943B0C0E945908C6010E94E1
:100C30009B070E943B0C0E946908CDB7DEB7E9E034
:100C40000C94C8282C2F2F70F22EC07FC03219F0C0
:100C5000F29480EFF822DD2341F0D130D1F111235D
:100C600009F444C00023F1F0B2CF80911A0382FD51
:100C700015C0112359F0FF2029F08F2D0E944F0C31
:100C80000E94000D80E00E949F04BBCF80E00E9484
:100C90001D05FF2009F4B5CF8F2DABCF112369F0CF
:100CA000011104C08F2D0E948305ABCF013009F0E4
:100CB000A8CF8F2D0E94830CA4CF0111A2CF8F2D1E
:100CC0000E948A058F2D0E948F0C8F2D0E94730C1D
:100CD00098CF112321F0063008F093CFE3CF0530F1
:100CE00008F08FCF8F2D0E948A058BCF0023D1F380
:100CF000D93349F43FEF87EE93E031508040904084
:100D0000E1F700C000008D2F0E941D057ACF8C2FC7
:100D100086958695837069F0813009F072CF8D2FAA
:100D20009C2F9370111102C080E090E00E943B1F45
:100D300068CF8D2F9C2F9370111102C080E090E03E
:100D40000E94161F5ECF8C2F8370A1F5111159CF11
:100D50004D2F429546954770440F440F2D2F2F700D
:100D600030E0042E02C0220F331F0A94E2F790E015
:100D700080E0D4FF09C08FE090E002C0880F991F87
:100D80004A95E2F780959095C695C695C370822BDB
:100D9000932BC23049F058F4C13019F00E94290851
:100DA00030CF0E9420082DCF0E9432082ACF0E9407
:100DB0001D0827CF8695112311F08C2F8170882371
:100DC00009F41FCF4D2F429546954770440F440FAD
:100DD0002D2F2F7030E0042E02C0220F331F0A94F3
:100DE000E2F790E080E0D4FF09C08FE090E002C01D
:100DF000880F991F4A95E2F780959095C695C695FC
:100E0000C370822B932BC23049F058F4C13019F0D3
:100E10000E949408F6CE0E948B08F3CE0E949D0893
:100E2000F0CE0E944108EDCECF70112329F08C2F17
:100E30000E9459088D2F37CF8D2F0E948A058C2F45
:100E40000E946908DECED23F41F160F4D03FB9F094
:100E5000D13F81F0112309F446C00111B8CE8C2F87
:100E60008F711FC0D33F01F1D43FA1F780911A03C6
:100E700082FD24C08C2F8F71112311F312C0112316
:100E800041F0053008F0BDCE8C2F8F710E947B0899
:100E9000B8CE063008F0B5CEF7CF8C2F8F71111178
:100EA000CFCF0E945908ADCE112329F08C2F8F711E
:100EB0000E944D08A6CE0E944808A3CE112349F0F7
:100EC000CF718C2F0E94590863E08C2F0E94120D65
:100ED00098CE81E00E94300D023008F492CE82E07C
:100EE0000E94300D8ECE002359F0D93309F00BCF7C
:100EF000EFEFF7EE23E0E150F0402040E1F701CFC3
:100F00008C2F8F719DCF0F931F93CF93DF93EC01A5
:100F1000688179818D810E945C098C010E94A608FC
:100F20000E941C08B801CE010E949105DF91CF916B
:100F30001F910F910895CF93DF93EC018C8188234B
:100F400099F0CE010E94B003811111C00E94450C9E
:100F5000882351F08D81882339F080911A0382FF14
:100F600003C082E00E94300DDF91CF910895CE0141
:100F70000E948307CE010E948103F6CF90E080E0BB
:100F80000E94161F90E080E00E943B1F0E946C0CA4
:100F90000E94000D08950E9439200E94BE07089506
:100FA0000E945C0C0E94CB07089592959F7096302A
:100FB00091F058F4925F9F70923058F4803F19F08E
:100FC00030F4883E30F481E008959A5FF4CF843F96
:100FD000D1F380E00895883EB0F3813FD1F7F3CF9D
:100FE000FC012481222339F0808191810E945109E2
:100FF0000E94D507089580E00895A6E0B0E0E3E000
:10100000F8E00C94B3282696E2E00C94CF28A7E0F1
:10101000B0E0EDE0F8E00C94B3282796E2E00C9401
:10102000CF2808950E94110808950E9412089093F5
:101030000B0280930A02089508950E9415080895EE
:1010400020910A0230910B02822B932B0E941508EB
:10105000089520910A0230910B02822393230E946B
:101060001508089520910A0230910B0282279327D8
:101070000E94150808950E94110808950E943B08D7
:1010800008950E943E0890930902809308020895F3
:1010900090E080E00E944108089521E030E0A9013D
:1010A00002C0440F551F8A95E2F7CA010E94410809
:1010B000089521E030E002C0220F331F8A95E2F745
:1010C0008091080290910902822B932B0E94410883
:1010D000089521E030E002C0220F331F8A95E2F725
:1010E00020953095809108029091090282239323E4
:1010F0000E944108089521E030E002C0220F331F12
:101100008A95E2F78091080290910902822793273D
:101110000E94410808952091080230910902822B13
:10112000932B0E94410808952091080230910902F2
:10113000822393230E944108089520910802309150
:101140000902822793270E94410808950895262FB7
:10115000277091E001C0990F2A95EAF723E0769570
:1011600067952A95E1F7660F771F660F771FFA01DB
:10117000E60FF71F50E040E0682F70E08191DF013B
:1011800011979B01042E02C0369527950A94E2F729
:10119000217021952827292328272C934F5F5F4F03
:1011A0004430510559F70895A82FA77023E096956C
:1011B00087952A95E1F7880F991F880F991FFB01E2
:1011C000E80FF91F50E040E080E0219130E00A2E66
:1011D00002C0369527950A94E2F721703327042E32
:1011E00001C0220F0A94EAF7822B4F5F5F4F443011
:1011F000510559F70895262F953070F48F3060F41B
:10120000682F70E08FE0989F600D711D112440EEF3
:1012100051E0822F0E94A7080895292F953068F485
:101220008F3058F490E060EE71E03FE0239F800D36
:10123000911D11240E94D408089580E00895B0E023
:10124000A0E0E5E2F9E00C94AC287C0100910802F2
:101250001091090280910A0290910B02082B192B20
:10126000CFE0D0E0CC24C394D12CBC2EC6010C2EF0
:1012700002C0880F991F0A94E2F780239123892BDB
:1012800049F4219790F7B12C8B2DCDB7DEB7E9E06B
:101290000C94C828B7018C2F0E942D10019789F358
:1012A000F3CFCF93DF93EC010E941F09BE010E9490
:1012B0002D10DF91CF9108951F93CF93DF93EB0112
:1012C0009091DF01992339F0CB010E945109DF9100
:1012D000CF911F910895882369F0CB010E941F09C7
:1012E000182F682FCE010E94FB08BE01812F0E949B
:1012F0002D10EDCFCB010E940D09182FF6CF1F93B3
:10130000CF93DF93C0910C0217E080910D028C13F4
:1013100004C0DF91CF911F910895D0E01C9FF00190
:101320001D9FF00D1124E25FFD4F2081318142812C
:1013300053816481758186810E9407082196C77058
:10134000E4CF2091460230914702409148025091EB
:10135000490260914A0270914B0280914C020E94B6
:1013600007080895CF93DF9380914C02807F09F0A6
:101370004DC080914B02882309F448C0E0910C02D3
:1013800050910D02C0914702D091460260914802EF
:101390007091490247E05E17C9F18E2F90E0E49FFB
:1013A000F0011124E25FFD4F2481222391F1489F37
:1013B000F001499FF00D1124DF01A25FBD4F11968E
:1013C0002C9111972C1325C02C912D1322C015960A
:1013D0002C91159721111DC012962D913C91261B21
:1013E000370B283C3105A8F480914C028F70806146
:1013F00080934C02EC5EFD4F80818F708061808312
:1014000086E492E00E949B070E947F09DF91CF91C2
:101410000895FC013196E770BECF482F20910C0251
:1014200090910D0257E0291302C080E0089530E04A
:10143000529FF001539FF00D1124E25FFD4F818117
:10144000681306C08081481303C085818111EECFE7
:101450002F5F3F4F2770E7CFA4E1B0E0E2E3FAE06F
:101460000C94A9288C0186E0F801DE011F960190FA
:101470000D928A95E1F7F8018481E58096E4A92E22
:1014800092E0B92E90914A0291111FC08823D1F0A9
:10149000EE20A9F0C8010E94F007F82E882379F009
:1014A00087E0F801D50101900D928A95E1F7C50119
:1014B0000E9496040E94B2090E94A1095FC0C8015F
:1014C0000E949B07FF24F39459C0C080D180828082
:1014D0009380F0904B022091480230914902A40180
:1014E000421B530BFF2009F4F9C0483C510508F09A
:1014F000A7C0882309F442C09091470280914C0212
:10150000282F207F09F05CC09D1116C090914602E3
:10151000C91212C0E1104EC08F70806180934C02DE
:101520000E94A10986E492E00E949B0780914C02F0
:10153000F8018683F12C22C0E1103CC06D2D8C2D6A
:101540000E940D0A6D2D8C2D0E940D0AE82E81112E
:10155000F1CFCF86D88A8F8598890E945109292F8B
:1015600022952F70243078F49F702230A8F09923B0
:10157000B9F0F8019681907F99F4FE2C8F2D649636
:10158000ECE00C94C5282A5F2F70223068F0C80167
:101590000E949B07EF2CF1CF992311F0882369F368
:1015A000805E883050F3F3CF803F38F3815F833023
:1015B00070F7E3CF80914C02816080934C02BACFE8
:1015C0009D1113C090914602C9120FC0E1100DC0C9
:1015D0008683C8010E949B0787E0F801A6E4B2E079
:1015E00001900D928A95E1F767CFC8010E94F0073C
:1015F000882309F464CFEE2009F461CF80914C0276
:10160000803288F02091460230914702398728873E
:101610009B868A8690914A029C871D868E87CE0182
:1016200008960E949B0787E0F801A6E4B2E00190CB
:101630000D928A95E1F70E94B2090E94A10942CF5A
:1016400090914C02292F207FA1F4682D9A8A898AD3
:10165000A6017A899E2D0E94FD0786E492E00E94F1
:101660009B0787E0F50111928A95E9F70E94A1098D
:1016700061CF882309F482CF809147028D1110C079
:1016800080914602C8120CC0E1100AC09683C801BE
:101690000E949B0787E0F50111928A95E9F76ECFCA
:1016A000C8010E94F007882309F409CFEE2009F44D
:1016B00006CF80914C02803208F4B5CF20914602CB
:1016C000309147023A8329839C828B8290914A020F
:1016D0009D831E828F83CE010196A3CF483C510586
:1016E000B8F5882309F4EECEFE2CEE2009F4E7CEFF
:1016F000809147028D111EC080914602C8121AC007
:1017000080914C0280FD0DC0982F907F51F0868310
:10171000903F09F45ECF982F907F905F8F70892B58
:1017200057CF87E0F801A6E4B2E001900D928A95C8
:10173000E1F724CFC8010E94F007811174CF809196
:101740004C02816080934C02C8010E949B0716CF17
:10175000682D9A8A898AA6017A899E2D0E94FD07A2
:1017600087E0F50111928A95E9F7A6CEAEE0B0E0E8
:10177000ECEBFBE00C94B228288739874A875B871B
:101780006C877D878E87CE0108960E942C0A88235D
:10179000B1F06C85662341F0288539854A855B85E3
:1017A0007D858E850E94070817E080910C0290913C
:1017B0000D0289133DC02E96E3E00C94CE2887E0FD
:1017C000FE013896DE01119601900D928A95E1F79F
:1017D0008C85882349F320910D0230E0C9010196E0
:1017E0008770992740910C024817190699F097E0E5
:1017F000929FD001939FB00D1124A25FBD4FFE01B7
:10180000319601900D929A95E1F780930D020E9416
:101810007F09CACF0E94D00710920D0210920C02CD
:1018200087E0E6E4F2E0DF011D928A95E9F7BCCF9C
:10183000819FC0011124825F9D4F0E942C0A882342
:1018400009F4B9CFE0910C021E9FF0011124E25F70
:10185000FD4F208131814281538164817581868170
:101860000E94070880910C0290E0019687709927EA
:1018700080930C029ACF8091750286958695869505
:101880000895809175028770089590917502977000
:1018900081E009F480E008958091A102089590917B
:1018A000A102892B8093A102089580959091A102B5
:1018B00098239093A10208951092A1020895909107
:1018C000A002892B8093A002089580959091A00298
:1018D00098239093A00208951092A002089508956D
:1018E0000E946F0C089590917602292F282331F0E1
:1018F00080958923809376020E94700C0895089544
:101900000E947F0C089590917702292F2823281791
:1019100029F0982B909377020E94800C0895909163
:101920007702292F282331F080958923809377022D
:101930000E94800C089580917702882329F01092EC
:10194000770280E00E94800C0895CF93C091A1029D
:101950008091A002C82B80917702882331F0C82B98
:101960000E94601F81110E949B0C8C2FCF910895C3
:10197000CF93DF93C0910601D09107010E94A50C7F
:101980008883C0910601D091070148E050E06DE6E0
:1019900072E0CE010E947929892B59F088E0FE017E
:1019A000ADE6B2E001900D928A95E1F7CE010E947A
:1019B000FD1EDF91CF910895CF93DF93C091040175
:1019C000D09105010E94A50C8983C0910401D0919A
:1019D000050140E250E06DE472E0CE010E947929F9
:1019E000892B59F080E2FE01ADE4B2E001900D9246
:1019F0008A95E1F7CE010E94081FDF91CF910895EB
:101A000080912501882339F08091190387FF03C055
:101A10000E94DC0C08950E94B80C089508950E945D
:101A20000E0D089590911A0392FF11C098E0899FBE
:101A300090011124622B609375020E9459088091D5
:101A400075028695869586950E940F0D08950E94D1
:101A5000590808951092750280E00E940F0D0895B4
:101A6000909175028095892380937502282F2770A5
:101A700069F4891759F090911A0392FF07C086956F
:101A8000869586950E9469080E942A0D0895909176
:101A90001A0392FB222720F9281769F080FB92F99C
:101AA00090931A038091190390911A030E948F0D4D
:101AB00082E00E94300D089580911A0382FB8827EE
:101AC00080F991E089270E94470D089581E00E94E6
:101AD000470D089580E00E94470D08956FEF7FEF56
:101AE00090E080E00E94D129089590E080E00E947B
:101AF0009D2921E0863E9E4F09F020E0822F089527
:101B000082E090E00E948F29089583E090E00E9497
:101B10008F29089584E090E00E949D290895BC01DA
:101B200084E090E00E94D1290895AB01BC018FE0D0
:101B300090E00E94C5290895AB01BC0183E190E0CB
:101B40000E94C529089560E070E0CB010E949C0DC1
:101B5000089560E070E0CB010E94950D0E94A30DF6
:101B60000895A8E0B0E0E7EBFDE00C94B32866EE42
:101B70007EEF90E080E00E94D12960E082E090E07A
:101B80000E94B32981E090E090930B0280930A02B7
:101B900061E083E090E00E94B32960E074E184E0BA
:101BA00090E00E94D12960E086E090E00E94B32995
:101BB0006FEF87E090E00E94B32940E050E0BA0167
:101BC00088E090E00E94C52960E084E290E00E94F5
:101BD000B32960E087E190E00E94B32960E08CE0E7
:101BE00090E00E94B32960E08DE090E00E94B3296C
:101BF00019821A821B821C821D821E821F821886F5
:101C000048E050E068E170E0CE0101960E94A3290F
:101C100040E050E0BA0180E290E00E94C5290E94B5
:101C2000A90D2896E2E00C94CF280E94B10D0895EA
:101C3000682F8EE090E00E94B3290895A6E0B0E0FE
:101C4000E4E2FEE00C94B1280E94F9208C0180911E
:101C5000A2029091A3028017910781F019821A8243
:101C60000E94F920682F49815A81792F80E090E005
:101C70000E9466041093A3020093A2022696E4E059
:101C80000C94CD280E9405216093B2027093B30298
:101C90008093B4029093B5026093AE027093AF024A
:101CA0008093B0029093B1020895089508950E9420
:101CB000550E089508950E945A0E089583E291E109
:101CC0000E94C9120E94560E0E94570E089581E08C
:101CD00008950E94670E08950E94670E0895089562
:101CE00008950E946F0E0E94700E08950E94421186
:101CF0000E943A040E94571C08950E94F0200E94FE
:101D000021120E94760E0E94B11A0E9429190E9487
:101D10005B0E0895A6E0B0E0E0E9FEE00C94A72891
:101D20000E94690E81110CC00E941E0E0E940D1AA5
:101D30000E94561C0E944D042696EEE00C94C32887
:101D40000E94371224EA822E22E0922E640110E0D3
:101D5000F601E190F1906F01812F0E9468111F5FE1
:101D6000153009F44BC0E816F90691F38091B602DC
:101D700081FD0E9471110E946C0E782E10E0662485
:101D80006394812F0E9468117C01F401A190B190AD
:101D90004F018A159B0561F100E0CC24C394D12C3E
:101DA000AE24BF24C5018C219D21892BC1F0772051
:101DB000B1F009831A830E94F9209C838B836D8282
:101DC00021E0C7018C219D21892B09F420E0498164
:101DD0005A816B817C818D81922F0E9466040F5FF6
:101DE000CC0CDD1C0F30F1F6F4013297F182E08269
:101DF0001F5F153031F60E94420E98CFE816F906A3
:101E000009F0B4CF91CF1F93CF93DF930E9432108C
:101E1000EC01C11580E5D807F0F5C11580E4D807BD
:101E200008F09CC0C03ED10520F5CD3CD10508F09E
:101E300082C0C83AD10578F4C53AD10508F073C01C
:101E4000C130D10519F1209709F1C430D105F0F462
:101E5000D0E0C0E01BC0C33CD105D0F7C85AD0E0E9
:101E6000CC0FDD1FC15ADE4F0990D881C02DD4643C
:101E70000DC0C11580E2D80708F0D1C0C11581E0BE
:101E8000D80708F05AC0C83ED10510F7CE01DF913F
:101E9000CF911F910895C03682E5D80718F5C03458
:101EA00082E5D80708F06BC0C03282E5D80708F099
:101EB0005FC0C11582E5D80708F497C02C2F26957E
:101EC000269580E2289F900111248C2F8370C1E019
:101ED000D0E002C0CC0FDD1F8A95E2F7C22BD32BD6
:101EE000DD68D4CFC03A82E5D80760F4C03882E517
:101EF000D80708F459C0CF71D0E0DC2FCC27C46FCD
:101F0000D06AC4CFC03C82E5D80708F462C0C03EA6
:101F100082E5D80708F09CCFDC2FCC27CC27DF71D7
:101F2000C06FD06AB3CFC55AD0E0CB56DE4FC88160
:101F3000D0E0D064ABCFD065A9CF8D2F0E94D41054
:101F4000182FCE0199270E943210C12FD0E0DC2F2C
:101F5000CC27CC27DF71C82BD92B98CFCE0199275E
:101F60000E943210CC27DF70C82BD92BD06A8ECFBD
:101F7000CF71D0E0DC2FCC27C16FD06A87CF2C2F58
:101F800026952695277080E2289F900111248C2F9A
:101F90008370C1E0D0E002C0CC0FDD1F8A95E2F76C
:101FA000C22BD32BDC6872CF2C2F26952695277059
:101FB00080E2289F900111248C2F8370C1E0D0E033
:101FC00002C0CC0FDD1F8A95E2F7C22BD32BDA6853
:101FD0005DCF8C2F8F710E94D410C82FD0E0DC2FE2
:101FE000CC27CC27DF71D06251CF8C2F8F710E940C
:101FF000D41055E0D695C7955A95E1F7CF70D0E04B
:10200000DC2FCC27282F30E084FF05C044E0220FCE
:10201000331F4A95E1F7C22BD32BD06937CF8D2FD1
:102020008F710E94D410182FCE0199270E94321070
:10203000C12FD0E0DC2FCC27CC27DF71C82BD92BC8
:10204000D2CF462F753030F46F3020F4672F0E94C6
:102050002803089590E080E008950E9421100E94D6
:10206000030F089582389105B9F1B0F481339105D9
:1020700009F47DC048F48932910509F46DC08A32B3
:10208000910509F47BC008958533910509F45FC07B
:102090008933910509F10895833E9105D9F138F40A
:1020A000803E910529F1823E910579F10895863EA1
:1020B0009105D9F1873E910509F43EC0843E910512
:1020C00041F520911A0321FF24C08091190384FD5A
:1020D00019C087EE90E0089520911903237009F04C
:1020E0005AC020911A0323FF14C089E290E008959A
:1020F0002091190320FD38C030911A0330FF09C028
:1021000024FF43C090E080E008952091190322FD50
:10211000F7CF08952091190322FD3AC030911A0398
:1021200030FD39C024FFF5CFEDCF2091190323FFF7
:10213000F0CF24FDE7CFCDCF2091190323FD2EC092
:1021400030911A0331FFEECF84EE90E00895209194
:10215000190325FFDECFC9CF2091190325FD21C02A
:1021600020911A0323FFD5CF89E390E0D2CF2091AD
:10217000190326FFCECF8AE290E00895209119033B
:1021800026FFC7CF81E390E0089583EE90E00895A5
:1021900082EE90E0089580EE90E0089586EE90E063
:1021A000089585E390E008959091190392FF10C07F
:1021B00041E0282F2471243009F040E031E0282F3D
:1021C0002871283009F030E0431711F02CE0822705
:1021D00093FF10C041E0282F2471243109F040E022
:1021E00031E0282F2871283109F030E0431711F031
:1021F0002CE0822730911A0330FF10C051E0282FC5
:102200002171213009F050E041E0282F2871283059
:1022100009F040E0541711F029E0822731FF10C087
:1022200041E0282F2171213109F040E031E0282FD1
:102230002871283109F030E0431711F029E0822796
:1022400094FD877E089580E008950E946E0D0895A4
:102250000E9437122FEF86E791E021508040904096
:10226000E1F700C000000E94371280E00E94681170
:1022700080FF04C00E9425110E94442108950E94FD
:10228000281108950E94750D811102C00E94150E3B
:102290000E94800D8093B6020E948A0D90931A03CB
:1022A000809319030E943F110E94850D90E00E94C7
:1022B0001D0880910802909109020E943E0808952D
:1022C00008950E946011089508950E946411089570
:1022D000E82FF0E0EE0FFF1FEB5DFC4F8081918156
:1022E0000895089580EA8A95F1F7089500C0089549
:1022F0000E9472110895F894E82FE295EF70F0E0D3
:1023000031A1282F2F7081E090E001C0880F2A951D
:10231000EAF7982F9095932391A392A1892B82A3FA
:10232000789408950F931F93CF93DF93C7EAD1E07A
:1023300089918F3F11F00E947B1181E0CC3AD80740
:10234000B9F7C8E9D1E007EA11E089918F3F11F0B0
:102350000E947B110C171D07C1F7DF91CF911F91D0
:102360000F910895AF92BF92DF92EF92FF920F9379
:102370001F93CF93DF938C01D62EC62FD0E0CE01D2
:1023800089559E4F7C01FC0120812F3F09F44CC0F0
:10239000F894E22FE295EF70F0E031A12F7081E028
:1023A00090E001C0880F2A95EAF7932F982B91A30C
:1023B00092A18095892382A378940E947611E8E9FE
:1023C000F1E041E050E0B12CA12C21912F3FB1F17F
:1023D000A22FA295AF70B0E090968C9190E02F70F4
:1023E00002C0959587952A95E2F780FD27C0CA011E
:1023F000A82AB92A440F551F81E0E73AF80729F7C0
:10240000F70180818F3F11F00E947B1161E0A114E0
:10241000B10409F460E08D2D0E947811CC0FDD1F0E
:10242000C00FD11FB982A882DF91CF911F910F9168
:10243000FF90EF90DF90BF90AF90089590E080E024
:10244000D7CF0E9492118AE0E5E2F3E0DF01982FF6
:102450001D929A95E9F7EBE1F3E0DF011D928A9571
:10246000E9F785E00E9472120E9461110895AAE0C6
:10247000B0E0EDE3F2E10C94B0288E010F5F1F4F46
:102480008AE0F80111928A95E9F7F12C6F2DC801C5
:102490000E94B211F394F5E0FF12F8CF4AE050E049
:1024A000B8018BE193E00E94792921E0009709F4BB
:1024B00020E0892B41F08AE0F801ABE1B3E0019024
:1024C0000D928A95E1F745E065E273E08BE193E0D8
:1024D0000E947312182F0E946511812F2A96E5E041
:1024E0000C94CC280895B0E0A0E0E9E7F2E10C9468
:1024F000AD286C017B01042FC22F222379F081E0EB
:102500008093B9020E94F9209093B8028093B70299
:1025100080E0CDB7DEB7E8E00C94C928D091B902CD
:10252000DD23B1F38091B7029091B8020E9411218E
:10253000059770F310E0000F111FA801B601C70145
:102540000E947929892B31F0A801B601C7010E94A8
:102550008629CD2F1092B9028C2FDBCF0E94CE227C
:102560000E947D0E0E94DB2208950E94E0220E94BC
:102570008A0E0E94FA2208950E9492200E94B4229C
:102580000E945E0E0E94AE120E94B5120E94710E51
:10259000FBCF9093D9018093D8010895EF92FF92D9
:1025A0000F931F93CF93DF93EB01E82FD1110EC050
:1025B000442321F0F0E0E857FC4FE4916E2F7E2F8A
:1025C0008E2FCDB7DEB7E6E00C94CB280D2F10E0B0
:1025D000282F30E0442329F028573C4FF90124915B
:1025E00030E0F6E0CF9FC0011124EFEFF0E0BF0133
:1025F0000E942228AB018C2F90E0880F991FA5E53F
:10260000A49FB001A59F700D1124861B970B982FD6
:10261000990F980FBF01601B710B629FD001639FE0
:10262000B00D729FB00D11248B2F9D9FB00111240E
:10263000672F7727EF01C61BD70BBE01629FE00112
:10264000639FD00D729FD00D11247F01E91AF1080C
:10265000E09EB001E19E700DF09E700D1124672F79
:102660007727E61BF70BE29F8001E39F100DF29F97
:10267000100D1124E12F722F4230510599F048F4CA
:102680004115510569F04130510581F0EB2F8D2F37
:1026900007C04430510569F080F046305105B1F76C
:1026A0006E2F8FCFE22F7B2F812FFACFE22F7D2F3E
:1026B000F7CFEB2F822F712FF3CF7B2F822FED2FB0
:1026C000EFCF41E00E94CE12089508950E94611359
:1026D0000895CF93DF93762FE901682F842F0E940E
:1026E0006613798368838A83DF91CF9108958091FF
:1026F0002F03982F9C7F29F48370846080932F038D
:1027000008958C3AE8F38370886AF8CFB0E0A0E0CF
:10271000ECE8F3E10C94AD2888E090E00E94972962
:102720006B017C0184E290E00E948F29282F30E029
:1027300040E050E060E070E080E090E000E20E9465
:10274000DA28B22FA32FF42FE52FD62FC72F97010A
:102750008601BC29A12BFE295E2F532B2B2F3A2F4C
:102760004F2F6D2F7C2FCDB7DEB7E8E00C94C92832
:10277000B0E0A0E0EEEBF3E10C94A92849015A0186
:102780006B017C010E9477138401A4016A2D7B2DCB
:1027900088E090E00E94C52994014A2D5B2DB60186
:1027A000C70100E20E94F528622F84E290E00E94B7
:1027B000B329CDB7DEB7ECE00C94C528EFE2F3E027
:1027C00085E0808311828FEF8283838314827581F9
:1027D00025E030E04FEF5FEF60E0868197810E9457
:1027E000B813089580912F0380FF03C086958695C6
:1027F000089580E0089590913303933018F49F5F1B
:1028000090933303882391F020912F03309130036C
:10281000409131035091320360913303709134033E
:1028200080913503909136030E94B813089581E09A
:102830000E94FB13089590913303992319F091504E
:1028400090933303882391F020912F03309130032C
:1028500040913103509132036091330370913403FE
:1028600080913503909136030E94B813089581E05A
:102870000E941B14089570E00E94681C08956091E6
:102880000C0180912F0380FF0BC080910B0123E08E
:10289000829FC0011124895C9C4F0E943B140895C3
:1028A00080910D0190910E0123E0829FF00111248F
:1028B000E95CFC4F891748F71182108212828F5F02
:1028C0003396F8CF90912F0390FF0EC090910D0199
:1028D00020910E0133E0939FF0011124E95CFC4F3D
:1028E000921718F00E943F140895818360834283F9
:1028F0009F5F3396F5CFA3E0B0E0E1E8F4E10C94FC
:10290000B32890912F0390FF0AC09E012F5F3F4F85
:102910000E9469134B8169818A810E946214239607
:10292000E2E00C94CF28CF93DF93EC01EC81F0E050
:10293000ED57FD4F4491EFE2F3E0628181810E9407
:102940007B148C818F5F8C83DF91CF910895CF931F
:10295000DF93EC01EFE2F3E0438162818C810E941E
:102960007B148C818F5F8C83DF91CF910895A3E0DE
:10297000B0E0EDEBF4E10C94B1288C018091BA0247
:1029800081110AC09E012F5F3F4F4FEF6FEF0E94F2
:1029900069138A818093BA02F8016481613069F019
:1029A0008091BA0240E0662361F040E0623011F4A9
:1029B0004091BA0280E060E004C06091BA0240E059
:1029C00080E00E946214F801848190E0019663E047
:1029D00070E00E94362884832396E4E00C94CD288E
:1029E000A3E0B0E0E6EFF4E10C94AC28082FD62E7B
:1029F000F42EC22E90912F0390FF2FC0E92FE69561
:102A0000E695AE2FB0E0A455BE4F8C9180930003A5
:102A10009C7F943031F59E012F5F3F4F802F0E94A5
:102A200069134B8169818A810E946214009330038B
:102A3000D0923103F0923203CC2079F020912F0311
:102A40006091330370913403302F4D2D5F2D8091B1
:102A50003503909136030E94B8132396E9E00C9455
:102A6000C828823019F4F0903203E0CF863019F490
:102A700000913003DBCF8930D9F38931B9F6E951C0
:102A80006E2F6170B62EE695F0E0ED57FC4F149175
:102A9000E12C60910F01E61618F00E943F14C6CF9A
:102AA000E19EC001112470E00E942228802FB11005
:102AB00014C0860F20910D01622F6E0D7727771FAE
:102AC0009B01220F331F260F371F295C3C4F4F2DD0
:102AD0006D2D0E946913E394DCCF861BEBCFEFE2F0
:102AE000F3E09181282F4381628188E0890F0E9461
:102AF000F014089581E00E946F150895EFE2F3E06D
:102B00009181282F4381628188EF890F0E94F01400
:102B1000089581E00E947E150895EFE2F3E062815E
:102B200028E0620F08F46FEF282F438181810E9413
:102B3000F014089581E00E948D150895EFE2F3E00E
:102B4000628128E0621B08F460E0282F43818181C4
:102B50000E94F014089581E00E949E150895EFE20E
:102B6000F3E0438128E0420F08F44FEF282F628101
:102B700081810E94F014089581E00E94AF150895AC
:102B8000EFE2F3E0438128E0421B08F440E0282F05
:102B9000628181810E94F014089581E00E94C01535
:102BA000089520E00E94F0140895EF92FF921F9381
:102BB000CF93DF93EC0110E0EE24EA94F12C6091C6
:102BC0000F01161770F00E943F149A818C8190FFBC
:102BD00027C08F5F8C83DF91CF911F91FF90EF9083
:102BE000089520910D01422F410F5527551FCA010D
:102BF0009A01220F331F280F391F295C3C4F70E0C8
:102C0000C7010E943628962F8C8140913203609133
:102C10003103199F800D11240E9469131F5FCFCFCC
:102C20008150D8CFB0E0A0E0E8E1F6E10C94AB2809
:102C3000FC0182810FEF80FF01E010E04CE0A42E48
:102C400080910F01181798F00E943F148091BC02E8
:102C5000013009F04FC0811102C080910F018150F5
:102C60008093BC02CDB7DEB7EAE00C94C728C091D0
:102C70000D01C12ED12CCC0DDD2DD11DCE01880F23
:102C8000991FC80FD91FC95CDC4F198218821A829C
:102C900034E0E32EF12CB12C8091BC028B0D8D30F1
:102CA0001CF16A2D0E941428892F082E000C990B04
:102CB000C816D90691F4809132038E9DA0018F9D94
:102CC000500D112455954795559547959E01609156
:102CD0003103809130030E946913B00EF1E0EF1AC6
:102CE000F108D1F61F5FACCF87FFDFCF90910F01C6
:102CF000890FDBCF90E0019660910F0170E00E9498
:102D00003628AECF0F931F93CF93DF9380910D01A1
:102D100090910E0123E0829FF0011124E95CFC4FA9
:102D2000891740F1C0E0D3E060910F01C61740F170
:102D30000E943F14209109018091BB02820F809371
:102D4000BB0290910A01920F90930A01191654F454
:102D5000082E000C990B40910F014150550B841720
:102D600095071CF0219520930901DF91CF911F91C8
:102D70000F9108951182108212828F5F3396D0CF07
:102D80000C2F10E070E0C8010E94362820910D0140
:102D9000820F482F50E02091BB02022E000C330B13
:102DA00002171307BCF020910A01022E000C330B0E
:102DB000201731077CF08D9F90011124295C3C4F36
:102DC0004091320360913103809130030E94691376
:102DD000CF5FAACFFA01EE0FFF1FE40FF51FE95CEA
:102DE000FC4F118210821282F3CFB0E0A0E0EBEF33
:102DF000F6E10C94A928EC014C81042F10E0980115
:102E0000D8010E947A289B01AC010E9490284B01B6
:102E10005C01E0E2F0E0E01BF10BA5E5B0E0AC0105
:102E20009B010E9490286B017C019F01DF010E94A1
:102E300072289B01AC010E949B289B01AC01280DCC
:102E4000391D4A1D5B1DC701B6010E944A28F22E9A
:102E5000822F90E039E23F1520F143E0249F90015A
:102E6000112435952795122F109500E085E5E82E61
:102E7000EF1880910F01081718F10E943F149C81F0
:102E800081E0992319F0903219F48FEF80930801B3
:102E900080910801890F8C83CDB7DEB7ECE00C94EC
:102EA000C52825E530E0B901681B790B9B01220F8D
:102EB000331F260F371F37FFD4CF2F5F3F4FD1CFA0
:102EC0008E2D01FD8F2D20910D01622F600F772730
:102ED000771F9B01220F331F260F371F295C3C4FA2
:102EE000412F609131030E9469130F5FC2CF0F938E
:102EF0001F93CF93DF93EC0110E000E090910F015E
:102F00009017110609F06CF40E943F148C8190E038
:102F10000196817099278C83DF91CF911F910F913A
:102F2000089520910D01A801420F511D9A01220F11
:102F3000331F240F351F295C3C4F4C8160913103B6
:102F40008091300396959017110651F04CF0442370
:102F500049F0409132030E9469130F5F1F4FCECF9B
:102F60004423B9F340E0F7CFB0E0A0E0EAEBF7E1AB
:102F70000C94A528FC016280448081E08483E3E80E
:102F8000F2E07490E2E0F3E0E491C0913203C69580
:102F9000C158D0E0CC0FDD1FCD2FDD27812C75E08F
:102FA000972EAA24AA94B12C55245A94E719EE2EF0
:102FB000F12C80910F01881638F00E943F14CDB794
:102FC000DEB7E0E10C94C128C82CD12C82E0861534
:102FD00068F09C9CF0019D9CF00D1124E354FD4F82
:102FE000809130038083809131038183411023C01D
:102FF0009C9CF0019D9CF00D1124E354FD4F138225
:10300000128220910D01C601820F911D9C01220F99
:10301000331F280F391F295C3C4F9C9CF0019D9C5D
:10302000F00D1124E354FD4F4281618180810E94A3
:1030300069138394BECF9C9C80019D9C100D11242C
:1030400003541D4FF80183818823F1F0815083835D
:10305000859DC0011124648170E00E942228FB013B
:10306000FF27ED57FD4F8491E82FE719E59DC0013B
:103070001124B7010E94222880913203689FB00179
:103080001124F8017283BDCF0E945C29B5010E9412
:1030900036288C179D070CF0B4CFF2E0F61598F4A3
:1030A0000E945C29B5010E943628F80180830E94A5
:1030B0005C29209131032695622F70E00E9436280A
:1030C000280FF80121839C9CF0019D9CF00D112498
:1030D000E354FD4F128280913203893C58F088EC12
:1030E0009C9CF0019D9CF00D1124E354FD4F8483C2
:1030F000838387CF8431A0F784E1F2CFEFE2F3E05E
:1031000020812E7F208331814281538164817581AA
:10311000868197810E94B813109201030E943F1488
:10312000089560912F036695669570E04BE050E03E
:1031300080E191E00E946C29892B19F481E0809351
:1031400001030E94F9209093FA028093F9020895F6
:1031500090912F0390FF34C09370811132C094601E
:1031600090932F03662391F020912F033091300329
:1031700040913103509132036091330370913403D5
:1031800080913503909136030E94B81360912F030C
:103190006695669570E04BE050E080E191E00E941A
:1031A0006C29892BB1F01092010381E08093FC021D
:1031B0004091320360913103809130030E94D11518
:1031C00008958B3210F0986ACBCF880F880F982B18
:1031D000C7CF0E949118E9CF682F90912F03969541
:1031E000969581E0890F8B3208F081E00E94A81843
:1031F000089581E00E94EC180895682F90912F03A4
:10320000969596958FEF890F09F48AE20E94A81887
:10321000089581E00E94FD18089561E00E94A818B9
:103220000895EFE2F3E08081816080838695869542
:103230000E940D19089580912F0380FF03C00E9402
:103240007E1808950E941119089560E00E94A81840
:1032500008958091FF0281113FC00E94750D811178
:1032600004C00E94150E0E94DE130E948613209354
:103270002F03309330034093310350933203609314
:1032800033037093340380933503909336032C7F7C
:10329000A1F40E94DE130E94861320932F03309323
:1032A00030034093310350933203609333037093A0
:1032B000340380933503909336030E947713109262
:1032C000010380912F0380FF04C0869586950E949C
:1032D000251981E08093FF0208950F931F93CF93E8
:1032E000DF93809101038823C1F180910003E09175
:1032F0002F03E695E695E81BE093FB02823091F5FB
:10330000F0E0E158FD4FE491CE2FD0E003E914E165
:103310008091FC02882361F01092FC020E94F92047
:103320009093FA028093F9021092FE021092FD022D
:103330000E94F920E091F902F091FA028E1B9F0B96
:103340008F3F9F4750F4EC0FFD1FF093FA02E0937C
:10335000F90289EF92E0F8010995DF91CF911F9171
:103360000F910895863049F4F0E0E458FD4FE49160
:10337000CE2FD0E007EA14E1CBCF893051F4E695A7
:10338000F0E0E758FD4FE491CE2FD0E005ED15E1D8
:10339000BFCF8F3051F4E695F0E0EA58FD4FE4914D
:1033A000CE2FD0E002E116E1B3CF853149F4F0E051
:1033B000ED58FD4FE491CE2FD0E002E816E1A8CF02
:1033C000C8E2D0E005EF16E1883109F4A1CF8332DD
:1033D00039F4E1E7F2E0C591D49107EB14E198CF1D
:1033E000C4EFD1E007E717E1843209F491CFC0EDD3
:1033F000D7E005E613E1853209F08ACF8E2F63E02E
:103400000E940828E92FF0E0E259FD4FE491CE2F09
:10341000D0E004EB17E17CCF08950E946D19089568
:10342000FA01811101C0FB0109950895CF93DF9343
:10343000C82FD62F0E94F2138C1748F00E94F21367
:103440008D1728F40E94F918DF91CF9108958C2FE1
:103450000E940D19F9CF1F93CF93DF93EC01FB016D
:103460001581111110C00E944C0C8272FE01E052B5
:10347000F847E531F10508F05EC0EC5EF54D0C94BF
:103480006C280E941B19812FDF91CF911F91089505
:1034900049E059E169EF78E10E94101AF4CF49EF51
:1034A00058E169E079E1F8CF49E855E16AE775E16B
:1034B000F3CF4AE755E169E875E1EECF4BEA55E114
:1034C0006AE975E1E9CF4AE955E16BEA75E1E4CFD4
:1034D0004DEC55E16CEB75E1DFCF4CEB55E16DEC5C
:1034E00075E1DACF47E354E167E174E1D5CF47E115
:1034F00054E167E374E1D0CF81E00E940D19C3CF9E
:1035000065E082E00E94161ABECF68E086E0FACF3E
:103510006EE089E0F7CF64E18FE0F4CF67E185E109
:10352000F1CF88E1EACF62E289E1ECCF83E2E5CF37
:103530006AE285E2E7CF11E0A6CF86E090E00E9444
:103540008F290895682F86E090E00E94B32908959E
:10355000EBE5F3E080818470896280830E94A21A87
:1035600008950E94750D811104C00E94150E0E94DD
:10357000A81A0E949D1A80935B03803320F0877005
:10358000886280935B0390915B03892F817090FF29
:1035900004C0892F8695869586950E94B51B08954F
:1035A00080915B03982F969596959695953040F46B
:1035B0009F5F990F990F990F8770892B80935B03F9
:1035C00080915B03816080935B030E94A21A8091CB
:1035D0005B038695869586950E94B51B089580911C
:1035E0005B03982F987F79F0885080935B03887FE6
:1035F00091E009F490E080915B0390FB80F9809367
:103600005B030E94A21A80915B038695869586953E
:103610000E94B51B089580915B0380FD13C08160FB
:1036200080935B03813019F489E080935B03809180
:103630005B030E94A21A80915B038695869586950E
:103640000E94B51B089580915B0380FF08C08E7FA8
:1036500080935B030E94A21A80E00E94B51B08952C
:1036600080915B0380FF03C00E94231B08950E948A
:103670000B1B089590915B03892F869586958695FF
:103680008F5F8F7197708630E0F4880F880F880FF6
:10369000892B80935B0380915B03887F91E009F421
:1036A00090E080915B0390FB80F980935B030E9424
:1036B000A21A80915B038695869586950E94B51B1C
:1036C000089590935B03E7CF863008F085E09091F2
:1036D0005B039770282F220F220F220F922B9093BB
:1036E0005B03987F21E009F420E090915B0320FBCD
:1036F00090F990935B030E94B51B08950E94641B90
:1037000080915B030E94A21A08959C01FB018581B0
:10371000882349F12230F8E73F07F9F040F42115FA
:10372000E8E73E0769F02130384779F00895243002
:1037300098E7390779F058F02530384789F008952F
:1037400085E00E947E1B80E0089580E0FACF0E9411
:10375000EF1AF9CF0E94D01AF6CF0E94301BF3CF98
:103760000E943A1BF0CF81E008958F929F92AF9212
:10377000BF92EF92FF920F931F93CF93DF93863008
:10378000B0F5811135C090918000977F90938000B3
:10379000A0918600B0918700282F30E00E947A28FF
:1037A00025E030E040E050E00E944A2889019A017B
:1037B00080918600909187006CE070E00E94222842
:1037C00060177107C8F0C80169E070E00E94222804
:1037D00070938D0060938C00DF91CF911F910F91BA
:1037E000FF90EF90BF90AF909F908F90089585E0ED
:1037F000909180009860CACF809186009091870058
:10380000E0908600F0908700E0918600F0918700BC
:10381000C6E0D0E0BE010E942228060F171F211D1E
:10382000311D4801590185E0880C991CAA1CBB1C5C
:103830008A95D1F7C701BE010E9422289F0150E05E
:1038400040E0260F371F411D511DC501B4010E94E4
:103850004A2849015A01E0918600F0918700CA0187
:10386000B9010E94F8279B01AC01DF010E9490285A
:103870009B01AC01C501B4010E94F8272FE0969589
:103880008795779567952A95D1F7009186001091D5
:10389000870030E020E0061717072807390708F0EF
:1038A00097CF609186007091870092CF0895279AF4
:1038B0002F988AE08093800089E1809381008FEFC8
:1038C0009FEF90938700809386000E94B11A08951D
:1038D0006A9A4EB14B7F5EB15460EFB7F8949B018A
:1038E000220F331F260F371F280F391F28173907BC
:1038F00041F4EFBF8FE594E00197F1F700C00000BD
:103900000895DC016D91CD0178E05EB9000000C042
:1039100067FF4EB9660F000000C000C000C04EB97E
:1039200000C07A9591F7E2CFEBEFE80FEF3308F0A4
:1039300066C0F0E0E75DF54D0C946C280E94150E12
:1039400081E008958091B602807F8093B60281E085
:103950008093020308950E94A403F2CF9091B602CF
:10396000892F8E7F90FF81608093B60280FDE8CF23
:10397000817F8093B602E4CF9091B602892F8D7F2C
:1039800091FF82608093B60281FFDACF8091B60208
:103990008160EFCF9091B602892F8B7F92FF846078
:1039A0008093B60282FDF2CFCBCF9091B602892FE1
:1039B000877F93FF88608093B60283FDE7CFC0CFF7
:1039C0000E94D00790911903892F97FB87F980589F
:1039D00080931903B5CF81E090E00E941D080E94FA
:1039E000D007AECF895321E030E0A90102C0440FD7
:1039F000551F8A95E2F7CA01F0CF8D51F4CF80E0D0
:103A0000089580E008950E94011D0895CF93C82F66
:103A100080910203882331F0813099F010920203E3
:103A200080E00DC00E944C0C8232D1F78C2F0E9496
:103A3000011D811116C08C2F0E94941C8170CF91A2
:103A400008950E944C0C823289F38C2F0E94031D32
:103A5000811105C0C43171F038F4CB3079F781E0C1
:103A6000EDCF81E090E0EACFC93221F0C833B9F35D
:103A700080E0E4CF10920203FBCFCF93DF93EB0102
:103A800086319C4711F50E944C0C9D81992399F039
:103A90008A7A91E009F490E090930303811109C0C0
:103AA00089E20E940B200E94000D80E0DF91CF91FF
:103AB000089585E3F6CF80910303811104C089E264
:103AC0000E942220F0CF85E3FBCF81E0EFCFCF93A0
:103AD000DF93EC01FB018581882309F4D2C09E01AC
:103AE00030572332310508F0B2C00E948A0D9093FE
:103AF0001A0380931903FE01E150F047E232F10509
:103B000020F4E859F54D0C946C28809119038160DC
:103B10008093190393C080911A03886080931A03DD
:103B20008DC0809119038260F3CF80911903846066
:103B3000EFCF809119038860EBCF80911A038160E9
:103B4000EDCF80911A038260E9CF809119038061E3
:103B5000DFCF809119038062DBCF809119038064ED
:103B6000D7CF0E94D007809119038068D1CF809170
:103B700019038C60CDCF80911A038360CFCF8091E1
:103B800019038E7FC5CF80911A03877FC7CF80919D
:103B900019038D7FBDCF809119038B7FB9CF8091A1
:103BA0001903877FB5CF80911A038E7FB7CF80919D
:103BB0001A038D7FB3CF809119038F7EA9CF809197
:103BC00019038F7DA5CF809119038F7BA1CF0E9410
:103BD000D007809119038F779BCF80911903837F42
:103BE00097CF80911A038C7F99CF8091190382FB24
:103BF000992790F921E0922790FB82F990FB83F9B5
:103C000087CF80911A03982F909591708E7F892B82
:103C100090FB81F983CF90911903892F8F7B96FFB9
:103C2000806476CF0E94D00790911903892F97FB6B
:103C300087F980586DCF81E00E94180E809119039A
:103C400090911A030E948F0D0E94D00780E0DF91AF
:103C5000CF91089580E0F0CF90911903892F8F7E46
:103C600094FF806155CF90911903892F8E7F90FF2B
:103C700081604ECF90911A03892F877F93FF8860D0
:103C80004DCF81E0E4CF0F931F93CF93DF93C42FE9
:103C9000D22FFC0185818823C9F0409306030E943E
:103CA000F920909305038093040380E28C0F883001
:103CB00040F4C77081E001C0880FCA95EAF70E94FE
:103CC0008305DF91CF911F910F9108951091060305
:103CD000141332C080910403909105030E941121B6
:103CE000883C910548F5C0E2CD0F1D17B9F080E280
:103CF000810F883040F4177081E001C0880F1A9559
:103D0000EAF70E948A05C83048F481E09D2F977039
:103D100001C0880F9A95EAF70E948305802F0E94C0
:103D20007A05C83070F6D77081E001C0880FDA9547
:103D3000EAF70E948A05C5CF80E28C0F883008F62A
:103D4000C77081E001C0880FCA95EAF7F2CF0F93E0
:103D5000DB0188519C4787309105A0F5FC01E657AF
:103D6000F54D0C946C2806E221EE41EE6AE17CE709
:103D7000CD010E94431E80E00F91089507E225EED9
:103D800045EE6BE17CE7F4CF06E221EE40EE68E120
:103D90007CE7EECF07E225EE44EE69E17CE7E8CF71
:103DA00006E221EE42EE6CE17CE7E2CF07E225EE8F
:103DB00046EE6DE17CE7DCCF08E221E045EE6EE106
:103DC0007CE7D6CF15968C91882319F010920603C4
:103DD000D3CF81E0D1CF90930C0380930B03089550
:103DE000E0910B03F0910C03309729F00190F081E2
:103DF000E02D0995089580E00895E0910B03F0917E
:103E00000C03309721F00280F381E02D099508958D
:103E1000E0910B03F0910C03309739F026E0DC01C0
:103E20002C930480F581E02D09950895A3E0B0E07E
:103E3000ECE1FFE10C94B3282091090330910A03CF
:103E400028173907A1F090930A0380930903E091A2
:103E50000B03F0910C03309751F023E029839B83EF
:103E60008A830084F185E02DCE0101960995239681
:103E7000E2E00C94CF28A3E0B0E0E1E4FFE10C9491
:103E8000B328209107033091080328173907A1F0C0
:103E90009093080380930703E0910B03F0910C03C8
:103EA000309751F024E029839B838A830084F18535
:103EB000E02DCE01019609952396E2E00C94CF28DF
:103EC00020910601309107012E5F3F4F809125011F
:103ED000882379F08091190387FF0BC0209104019A
:103EE000309105012E5F3F4F9EE180E0915018F424
:103EF000089596E0FACFF90141919F014423B1F36F
:103F00008F5FF4CF882321F190912501992311F13E
:103F10009091190397FF1EC0E82FE695E695E69568
:103F2000EE31B0F42091040130910501E20FF32F3E
:103F3000F11D228130E0877041E050E002C0440F63
:103F4000551F8A95E2F72423352381E0232B91F432
:103F500080E008952091060130910701F901329621
:103F6000285F3F4F9191981721F0E217F307D1F79F
:103F7000EFCF81E008959C01FC0132969FEF80E035
:103F80004191461751F09F3F19F4411101C0982FFC
:103F90008F5F8630A9F79F3F09F40895290F311DDF
:103FA00097FD3A95F90162830895FC0132960896CF
:103FB0002191261303C0DF0111971C92E817F9071E
:103FC000B9F70895E62FE695E695E695EE3168F4A3
:103FD000E80FF92FF11D677021E030E001C0220FDA
:103FE0006A95EAF78281822B82830895E62FE6950F
:103FF000E695E695EE3170F4E80FF92FF11D677044
:1040000021E030E001C0220F6A95EAF72095828115
:10401000282322830895682F80912501882359F051
:104020008091190387FF07C08091040190910501D9
:104030000E94E21F089580910601909107010E945D
:10404000BB1F0895682F80912501882359F0809126
:10405000190387FF07C080910401909105010E9418
:10406000F61F089580910601909107010E94D51FC7
:10407000089580912501882379F08091190387FFA5
:104080000BC0E0910401F091050132968EE1DF0151
:104090001D928A95E9F70895E0910601F0910701D4
:1040A000329686E0F4CF08950E945320089581113E
:1040B00006C081E080930D030E945420089582E0A1
:1040C000F9CF83E080930D030E94542008950E944D
:1040D0005720089581E080930D030E945420089595
:1040E0000E946A200895089508950E9474200895FA
:1040F000089508950E9473200895CF930E94782018
:104100000E9437120E947920C0E08C2F0E94681113
:10411000892B31F4CF5FC530C1F780E0CF9108958E
:1041200081E0FCCF85B7806885BF85B7806885BF93
:1041300008951F921FB61F9211248F939F93AF93E0
:10414000BF9380910E03811113C080915C03909105
:104150005D03A0915E03B0915F034196A11DB11D67
:1041600080935C0390935D03A0935E03B0935F0321
:10417000BF91AF919F918F911F901FBE1F90189577
:1041800080916403843031F10E94180410920E0370
:1041900088E190E020E40FB6F894A8958093600041
:1041A0000FBE2093600083B7817F846083BF83B795
:1041B000816083BF7894889583B78E7F83BF0FB665
:1041C000F894A895809160008861809360001092B7
:1041D00060000FBE08950E94D0070E942004089539
:1041E00082E084BD93E095BD9AEF97BD80936E0009
:1041F00008952FB7F89480915C0390915D03A0918E
:104200005E03B0915F032FBF08952FB7F8946091BC
:104210005C0370915D0380915E0390915F032FBFFB
:1042200008959C014FB7F89480915C0390915D03D1
:10423000A0915E03B0915F034FBF821B930B089563
:1042400078941F921FB61F9211248F939F93AF9360
:10425000BF9380915C0390915D03A0915E03B09148
:104260005F030196A11DB11D80935C0390935D03D4
:10427000A0935E03B0935F03BF91AF919F918F9125
:104280001F901FBE1F90189581E08093E00080E290
:104290008093D8001092C9008FE19EE40197F1F756
:1042A00000C0000087E090EBDC0180936D039093E9
:1042B0006E03A0936F03B093700388E19CE00FB688
:1042C000F894A895809360000FBE90936000FFCF94
:1042D00088E19CE00FB6F894A895809360000FBE2B
:1042E00090936000FFCF80911703089508959B017C
:1042F000BA01909164039430E9F48F708093E900DF
:104300009FEF8091E800915085FD06C085ED8A956C
:10431000F1F700009111F5CF8091E80085FF0AC008
:1043200050E040E0C9010E9471238091E8008E773F
:104330008093E800089543E050E0BC0182E00E94D1
:104340007721089540E250E0BC0182E00E9477218D
:104350000895CF93DF93EC0148E050E0BC0181E089
:104360000E94772188E0FE01AFE0B3E001900D925A
:104370008A95E1F7DF91CF910895809163038111D0
:1043800009C00E9401250E945E258091E2008460A0
:104390008093E20008951092630308950E946A20BA
:1043A00008956091600381E0611101C080E00E9486
:1043B000612008959091640381E0943009F080E0D9
:1043C000609160030E946720089542E061EC81E003
:1043D0000E947D2442E261EC82E00E947D24909163
:1043E000640381E0943009F080E0609160030E94F2
:1043F0005720089580916603833009F461C030F43A
:104400008130D1F1823009F49EC008958A3009F4D8
:104410008AC08B3009F46FC0893009F050C0809198
:104420006503813209F04BC08091690390916A0362
:10443000029708F044C08091E800877F8093E800ED
:104440008091E80082FF37C09091F3008091F200E4
:10445000029731F48091F100813011F0863021F41F
:104460008091F100809317038091E8008B7780930F
:10447000E8000E94B12423C080916503813AF9F4D9
:104480008091E800877F8093E80080916903909194
:104490006A03892B61F468E08FE093E070E00E948A
:1044A000C0238091E8008B778093E800089560E056
:1044B00090E080E0F3CF809164038111C1CF089533
:1044C00080916503813AD9F78091690390916A03DD
:1044D000892BA9F78091E800877F8093E80080917D
:1044E000E80080FFFCCF809125018093F10080914E
:1044F000E8008E77BCCF80916503813201F780910F
:10450000690390916A03892BD1F68091E800877F37
:104510008093E8000E94B124809167038093250175
:104520000E94D007089580916503813241F6809101
:10453000E800877F8093E8000E94B124809168039F
:1045400080931803089580916503813A09F0B7CFED
:104550008091E800877F8093E8008091E80080FFE9
:10456000FCCF80911803C1CF84B7877F84BF0FB67B
:10457000F894A89580916000886180936000109203
:1045800060000FBE80E890E00FB6F8948093610061
:10459000909361000FBE0E94702008950E94012533
:1045A0000E945E25E2EEF0E0808184608083789452
:1045B0000E94DD2708958BE191E00E94EB1E089593
:1045C00080916403853031F480916403853019F063
:1045D0000E94EB2008950E94C020809162038823EE
:1045E00099F30E947D20882379F30E945B230E9427
:1045F000D007EACF08959A0140916B0350916C0364
:104600000E9403230895492F55274330510519F17E
:1046100068F44130510509F444C04230510509F4B1
:1046200045C090E080E050E040E025C041325105B7
:1046300049F142325105A9F784E490E040E655E0A3
:1046400061157105C1F08DE690E043EF54E06130F3
:10465000710589F0E6CF99278130910581F00097A7
:1046600029F00297F1F6E8E8F4E002C0E2EAF4E0AB
:10467000849190E0AF01F901518340830895E6E908
:10468000F4E0F6CF89E090E048EB54E06115710565
:1046900091F389E090E041ED54E06130710559F308
:1046A000C0CF82E190E041EE54E0E5CF8BE390E0B3
:1046B00046EA54E0E0CF80E189BD82E189BD09B4DA
:1046C00000FEFDCF8091D8008F7D8093D80080912F
:1046D000E00082608093E0008091E00081FDFCCFEB
:1046E0000895AF92BF92CF92DF92FF920F931F93E4
:1046F000CF93DF936C01EB018A010E94D024F82E46
:10470000811123C00115110539F0F80180819181D3
:10471000C81BD90BC80ED91EB12CA12C2097A9F00B
:104720008091E80085FD22C08091E8008E7780931B
:10473000E80001151105A1F0F80180819181A80E12
:10474000B91EB182A08285E0F82E8F2DDF91CF9126
:104750001F910F91FF90DF90CF90BF90AF90089581
:104760000E94D0248823D1F2F82EEFCFF601819158
:104770006F018093F1002197FFEFAF1ABF0ACECFF0
:10478000FC0180916B0390916C0386179707A0F052
:104790006115710529F49091E8009E779093E800E7
:1047A00090E06115710551F4911108C08091E80005
:1047B00082FF34C080E00895BC01F2CF8091640391
:1047C0008823C1F18530C1F18091E80083FD30C0BC
:1047D0008091E80082FDEACF8091E80080FFE1CF80
:1047E0008091F3002091F200382F6115710519F0C6
:1047F0002830310558F091E02830310509F090E07B
:104800002091E8002E772093E800CBCF8191809310
:10481000F100615071092F5F3F4FE7CF8091640332
:10482000882341F0853041F08091E80083FFBECFBE
:1048300081E0089582E0089583E00895FC0180916D
:104840006B0390916C0386179707A0F061157105B3
:1048500029F48091E8008E778093E80090E061155C
:10486000710551F4911108C08091E80082FF35C0B4
:1048700080E00895BC01F2CF809164038823C9F1E0
:104880008530C9F18091E80083FD31C08091E80056
:1048900082FDEACF8091E80080FFE1CF8091F300B4
:1048A0002091F200382F6115710519F0283031057B
:1048B00058F091E02830310509F090E08091E8004F
:1048C0008E778093E800CBCF84918093F10031966E
:1048D000615071092F5F3F4FE6CF809164038823B9
:1048E00041F0853041F08091E80083FFBDCF81E049
:1048F000089582E0089583E00895982F973028F076
:104900008F708093E90081E008959093E900242F4F
:10491000762F50E0981731F07091EC002091ED0067
:104920005091F00021FD02C09F5FE8CF3091EB0075
:104930003E7F3093EB003091ED003D7F3093ED00F2
:104940003091EB0031603093EB007093EC002093DA
:10495000ED005093F0002091EE0027FDE5CF80E0C0
:1049600008958091650387FF13C08091E80082FF5E
:1049700006C08091E8008B778093E80004C08091A6
:1049800064038111F2CF0895809164038823D9F3E1
:104990008091E80080FFF8CF8091E8008E77ECCF1F
:1049A0002091E4003091E50095E6A9012091EC000A
:1049B000822F817020FF06C08091E80080FF06C032
:1049C00080E008952091E80022FD1AC080916403E0
:1049D000882389F0853089F08091EB0085FD0FC038
:1049E0002091E4003091E50042175307F9F291500D
:1049F000E1F684E0089582E0089583E0089581E07F
:104A000008950E9470250E947825E0EEF0E08081F4
:104A100081608083E8EDF0E080818F77808319BC2E
:104A2000A7EDB0E08C918E7F8C9380818F7E808308
:104A30001092630308950F931F93CF93DF930E9407
:104A400070250E947825C8EDD0E088818F77888313
:104A500088818068888388818F7D888319BC1092C3
:104A6000640310926003109262031092610300EEDF
:104A700010E0F80180818B7F80838881816088834A
:104A800042E060E080E00E947D24E1EEF0E0808181
:104A90008E7F8083E2EEF0E0808181608083808180
:104AA00088608083F80180818E7F80838881806127
:104AB0008883DF91CF911F910F910895E8EDF0E089
:104AC00080818F7E8083E7EDF0E08081816080834C
:104AD00084E082BF81E0809363030E941B250895D8
:104AE000E8EDF0E080818E7F80831092E2000895EF
:104AF0001092DA001092E10008951F920F920FB603
:104B00000F9211242F933F934F935F936F937F9353
:104B10008F939F93AF93BF93EF93FF938091E100A7
:104B200082FF0BC08091E20082FF07C08091E1000C
:104B30008B7F8093E1000E94DC278091DA0080FF68
:104B400019C08091D80080FF15C08091DA008E7F57
:104B50008093DA008091D90080FF96C080E189BD02
:104B600082E189BD09B400FEFDCF81E0809364033A
:104B70000E94BD218091E10080FF19C08091E20078
:104B800080FF15C08091E2008E7F8093E2008091CB
:104B9000E20080618093E2008091D800806280937F
:104BA000D80019BC85E0809364030E94D1218091D4
:104BB000E10084FF2BC08091E20084FF27C080E1E8
:104BC00089BD82E189BD89B5982F917080FFFBCFA7
:104BD0008091D8008F7D8093D8008091E1008F7EF6
:104BE0008093E1008091E2008F7E8093E2008091CB
:104BF000E20081608093E20080916003882309F4E1
:104C000049C084E0809364030E94DA218091E1002E
:104C100083FF29C08091E20083FF25C08091E100DD
:104C2000877F8093E10082E08093640310926003A9
:104C30008091E1008E7F8093E1008091E2008E7F81
:104C40008093E2008091E20080618093E20042E084
:104C500060E080E00E947D248091F0008860809375
:104C6000F0000E94CE21FF91EF91BF91AF919F91F3
:104C70008F917F916F915F914F913F912F910F9005
:104C80000FBE0F901F90189519BC109264030E94DC
:104C9000CB2170CF8091E30087FD93E09093640374
:104CA000B3CF1F920F920FB60F9211242F933F9301
:104CB0004F935F936F937F938F939F93AF93BF9324
:104CC000CF93DF93EF93FF93D091E900DF70809152
:104CD000EC00C82FC17080FDC0E81092E9008091FF
:104CE000F000877F8093F00078940E9495261092C0
:104CF000E9008091F00088608093F000CD2BCF70A8
:104D0000C093E900FF91EF91DF91CF91BF91AF91F7
:104D10009F918F917F916F915F914F913F912F91D3
:104D20000F900FBE0F901F901895AAE2B0E0EBE92C
:104D3000F6E20C94B22885E693E02091F100FC01A4
:104D40002193CF01F3E08D369F07B9F70E94FA2136
:104D50008091E80083FF1EC18091650390916603F6
:104D60009A3008F017C1E92FF0E0EF56F54D0C949A
:104D70006C28803899F0823809F00CC18091690361
:104D80008F70873008F006C18093E9008091EB00B6
:104D900085FB882780F91092E90006C080916103A5
:104DA00090916203911182609091E800977F9093B7
:104DB000E8008093F1001092F1008091E8008E7776
:104DC000E5C0882309F4D3C0823009F0E3C08091A4
:104DD00067038111D6C0809169038F702FEF280F70
:104DE000263008F0D7C08093E9002091EB0020FF27
:104DF000C8C0933031F48091EB0080628093EB0067
:104E0000C0C09091EB0090619093EB0021E030E006
:104E100001C0220F8A95EAF72093EA001092EA0077
:104E20008091EB008860EACF8111B4C010916703D4
:104E30001F778091E3008078812B8093E30080913D
:104E4000E800877F8093E8000E94B1248091E80009
:104E500080FFFCCF8091E30080688093E30082E0D4
:104E6000111183E08093640395C08058823008F06C
:104E700091C080916703909168038C3D23E0920775
:104E8000A1F583E08A838AE289834FB7F894DE0133
:104E9000139620E03EE051E2E32FF0E050935700FC
:104EA000E49120FF03C0E295EF703F5FEF708E2F1B
:104EB00090E0EA30C0F0C7968D939D932F5F243128
:104EC00059F74FBF8091E800877F8093E8006AE23E
:104ED00070E0CE0101960E94C0238091E8008B779C
:104EE0008093E80057C0C096E7CF60916903709146
:104EF0006A03AE014F5F5F4F0E94FB22BC01892B0A
:104F000009F448C09091E800977F9093E800898168
:104F10009A810E941E24E1CF8038E1F58091E8005B
:104F2000877F8093E800809160038093F10045CFF4
:104F3000811130C090916703923060F58091E80054
:104F4000877F8093E800909360030E94B124809152
:104F50006003882311F084E005C08091E30087FDA1
:104F6000FACF81E0809364030E94E52113C0809111
:104F70006703813079F481E0933009F080E0809319
:104F800062031092E9008091E800877F8093E80037
:104F90000E94B1248091E80083FF0AC08091E8005C
:104FA000877F8093E8008091EB0080628093EB0024
:104FB000AA96E3E00C94CE280895CF9380916403E1
:104FC0008823A1F0C091E900CF709091EC00892F67
:104FD000817090FD80E8C82B1092E9008091E80074
:104FE00083FD0E949526CF70C093E900CF9108956C
:104FF000DB018F939F930E949028BF91AF91A29F56
:10500000800D911DA39F900DB29F900D11240895C6
:10501000991B79E004C0991F961708F0961B881F0A
:105020007A95C9F78095089587FB082E062687FD97
:10503000819567FD61950E9408280EF4919507FC03
:1050400081950895AA1BBB1B51E107C0AA1FBB1F76
:10505000A617B70710F0A61BB70B881F991F5A9504
:10506000A9F780959095BC01CD01089597FB072E77
:1050700016F4009407D077FD09D00E94222807FC7F
:1050800005D03EF4909581959F4F08957095619558
:105090007F4F0895A1E21A2EAA1BBB1BFD010DC074
:1050A000AA1FBB1FEE1FFF1FA217B307E407F507D8
:1050B00020F0A21BB30BE40BF50B661F771F881FB4
:1050C000991F1A9469F760957095809590959B014A
:1050D000AC01BD01CF010895EE0FFF1F0590F491C3
:1050E000E02D09940E947A28332312F48A1B9B0B2B
:1050F0000C948B28A29FB001B39FC001A39F700D99
:10510000811D1124911DB29F700D811D1124911DCF
:1051100008950E947A28B7FF0895821B930B089583
:105120000E947A28A59F900DB49F900DA49F800D9A
:10513000911D11240895B7FF0C9490280E94902887
:10514000821B930B08952F923F924F925F926F9222
:105150007F928F929F92AF92BF92CF92DF92EF9207
:10516000FF920F931F93CF93DF93CDB7DEB7CA1B88
:10517000DB0B0FB6F894DEBF0FBECDBF09942A88B3
:10518000398848885F846E847D848C849B84AA845B
:10519000B984C884DF80EE80FD800C811B81AA81E8
:1051A000B981CE0FD11D0FB6F894DEBF0FBECDBFB3
:1051B000ED010895002E083090F0982F872F762F5C
:1051C000652F542F432F322F22270850F4CF220F60
:1051D000331F441F551F661F771F881F991F0A958D
:1051E000B2F7002D089597FD1094002E083098F026
:1051F0000850232F342F452F562F672F782F892FB4
:10520000912DF4CF15949795879577956795579538
:105210004795379527950A95AAF71124002D0895EB
:105220008F929F92AF92BF92CF92DF92EF92FF92B6
:10523000CF93DF93EC01688179818A819B8161152D
:1052400071058105910521F464E279ED8BE597E024
:105250002DE133EF41E050E00E94E72949015A0176
:105260009B01AC01A7EAB1E40E9490286B017C018C
:10527000ACEEB4EFA50194010E949E28DC01CB01A5
:105280008C0D9D1DAE1DBF1DB7FF03C00197A10969
:10529000B04888839983AA83BB839F77DF91CF919E
:1052A000FF90EF90DF90CF90BF90AF909F908F9046
:1052B00008950E941029089580E091E00E9410292D
:1052C0000895B0E0A0E08093000190930101A093C5
:1052D0000201B09303010895FC014150504030F0A9
:1052E00001900616D1F73197CF01089588279927A5
:1052F0000895FB01DC0104C08D910190801921F417
:1053000041505040C8F7881B990B0895FB01DC0100
:1053100002C001900D9241505040D8F70895F9997C
:10532000FECF92BD81BDF89A992780B50895A6E178
:10533000B0E044E050E00C94D929A8E1B0E042E0AC
:1053400050E00C94D929DC01A40FB51F4150504006
:1053500048F0CB01840F951F2E910E94B429415033
:105360005040D0F70895262FF999FECF92BD81BD08
:10537000F89A019700B4021639F01FBA20BD0FB693
:10538000F894FA9AF99A0FBE08950396272F0E946F
:10539000B4290E94B329252F0E94B429242F0C94EC
:1053A000B4290196272F0E94B4290C94B329DC015B
:1053B000CB01FC01F999FECF06C0F2BDE1BDF89A20
:1053C000319600B40D9241505040B8F70895052E23
:1053D00097FB1EF400940E94FE2957FD07D00E94FF
:1053E0004A2807FC03D04EF40C94FE2950954095B2
:1053F000309521953F4F4F4F5F4F08959095809581
:10540000709561957F4F8F4F9F4F0895F894FFCF10
:10541000D205D205220622068706010601060106EC
:10542000A306140723072307411A481A4F1A541AD0
:10543000591A5E1A631A681A6D1A721A771A7C1A48
:10544000801A851A881A8B1A8E1A911A931A961A2C
:10545000981AAB1CA21CAE1CA01CFF1CFF1CA01C9D
:10546000FF1CFF1CCA1CFF1CD51CE01CFF1CFF1CE2
:10547000FF1CFF1CA01CFF1CFF1CA01CFF1CBC1C55
:10548000FF1CFF1CFD1CFD1CFD1CFD1CFD1CFD1C50
:10549000FD1CFD1CFD1CEB1CFF1CAB1C9E1CFF1C03
:1054A000FF1CFF1CFF1CFF1CFF1CFF1CFF1CFF1C24
:1054B000FF1CEB1CFF1CFF1CA01CFF1CF21CF21CA1
:1054C000F21CF21CF21CF21CF21CF21CF21CEB1C73
:1054D000BF1D331EC71D911D951DCB1D991DCF1DD1
:1054E000DB1DA51D2C1EA91DDF1DAD1DE31D0B1E03
:1054F000B11DE71D121EB71DED1DF51D9D1DD31D10
:10550000A11DD71DBB1DF11D011E1B1E2A1E8B1DBB
:10551000C31D3A1EC41ECA1EB31EBE1ED01ED61EFA
:10552000DC1EB926E126CA27E126CA27142735271B
:06553000CA278C27982712
:105536000100000078029802010102000C000C0C28
:1055460001191A1B1C1D1E1F2021227321A921A22D
:105556002176219B2101E200E900EA00B500B600B0
:10556600B700CD008301CC008A019201940121028B
:10557600230224022502260227022A02B300B400CF
:105586006F0070009F01CB019F02A002818283E21F
:1055960000E900EA00B500B600B700CD008301CCF3
:1055A600008A019201940121022302240225022687
:1055B6000227022A02B300B4006F0070009F01CBDD
:1055C600019F02A002818283F0F1C667663694319C
:1055D600F7353497963332909192939500010202F3
:1055E60002020606060909090909090F0F0F0F0F1E
:1055F6000F15151518191919191919191919192322
:0856060024252525252525009A
:00000001FF
