:100000000C94D0020C9408030C9408030C9408037D
:100010000C9408030C9408030C9408030C94080334
:100020000C9408030C9408030C9427250C94FB25CE
:100030000C943A200C9408030C9408030C940803C5
:100040000C9408030C9408030C9408030C94080304
:100050000C9408030C94C1200C9408030C9408031E
:100060000C9408030C9408030C9408030C940803E4
:100070000C9408030C9408030C9408030C940803D4
:100080000C9408030C9408030C9408030C940803C4
:100090000C9408030C9408030C9408030C940803B4
:1000A0000C9408030C9408030C94080329001E0008
:1000B0001F0020002100220023002400250026002C
:1000C00027002D002E0035002A002B0014001A00F6
:1000D0000800150017001C0018000C001200130087
:1000E0002F00300031000000E3000400160007007C
:1000F00009000A000B000D000E000F003300340051
:10010000000028000000E10000001D001B000600A8
:100110001900050011001000360037003800E50016
:1001200052004C00E000E3002800215200000000D3
:1001300000002C002252E6002A00500051004F001F
:100140000000007C3A003B003C003D003E003F00C8
:1001500040004100420043004400450001004C00C3
:100160000100207821785200237824782578267899
:10017000277828780100010001000100000001003B
:100180004A00500051004F00010001004D000100E5
:10019000010001000100000001000000010000005A
:1001A00001000100037802780478010001000100D9
:1001B0000100010001000100010001000100010037
:1001C00001000000000000009100E30001000100B8
:1001D0000100010001000000007C000000000000A0
:1001E000000000000000000000000000000000000F
:1001F00000000000000000000000000052000000AD
:1002000000000000000000000000000000000000EE
:100210000000000000000000500051004F000000EE
:1002200000004A004D000000000000000000000037
:1002300000000000000000000000000000000000BE
:1002400000000000000000000000000000000000AE
:10025000000000000000E30000000000000090002B
:1002600000000000000000000000000000001E0F61
:100270000500047F3F1F643214643214783C1E1E54
:10028000140A052223252628292A2C2D2F30323323
:100290003536383A3B3D3E4042434547494A4C4E4D
:1002A0005051535557595A5C5E6062646668696B79
:1002B0006D6F71737577797B7D7F81838587898A7F
:1002C0008C8E90929496989A9C9E9FA1A3A5A7A885
:1002D000AAACAEAFB1B3B4B6B8B9BBBCBEBFC1C2B5
:1002E000C3C5C6C7C9CACBCCCDCED0D1D2D2D3D448
:1002F000D5D6D7D7D8D9D9DADADBDBDBDCDCDCDC66
:10030000DCDDDDDDDDDCDCDCDCDCDBDBDBDADAD933
:10031000D9D8D7D7D6D5D4D3D2D2D1D0CECDCCCBB5
:10032000CAC9C7C6C5C3C2C1BFBEBCBBB9B8B6B4D3
:10033000B3B1AFAEACAAA8A7A5A3A19F9E9C9A9863
:10034000969492908E8C8A89878583817F7D7B7934
:10035000777573716F6D6B6968666462605E5C5A15
:100360005957555351504E4C4A4947454342403ED8
:100370003D3B3A3836353332302F2D2C2A2928266A
:10038000252322FFAA7F554000010101010101013F
:10039000010102020202020202020203030303033A
:1003A0000303030404040404040405050505050609
:1003B00006060606070707070708080808090909C7
:1003C000090A0A0A0B0B0B0C0C0C0D0D0D0E0E0E70
:1003D0000F0F0F1010111111121213131414151501
:1003E00016161717181819191A1A1B1B1C1D1D1E73
:1003F0001E1F2020212222232424252626272829C7
:10040000292A2B2C2D2D2E2F3031323233343536F4
:100410003738393A3B3C3D3E3F40414243444546F4
:100420004748494A4C4D4E4F5051535455565859D0
:100430005A5B5D5E5F616264656668696B6C6D6F77
:100440007072737577787A7B7D7E808283858788EA
:100450008A8C8E8F91939596989A9C9EA0A2A3A524
:10046000A7A9ABADAFB1B3B5B7BABCBEC0C2C4C625
:10047000C9CBCDCFD1D4D6D8DBDDDFE2E4E7E9EBE1
:10048000EEF0F3F5F8FAFDFF0C0359004D004400BF
:100490003600370000000A0359004D0044004B00AD
:1004A00000000403090409023B00020100A0FA094C
:1004B0000400000103010100092111010001224093
:1004C0000007058103080001090401000103000081
:1004D00000092111010001226D000705820320009F
:1004E0000112010002000000084D59606001000186
:1004F00002000105010980A101850319012AB70045
:10050000150126B700950175108100C0050C090181
:10051000A101850419012AA002150126A002950156
:1005200075108100C005010906A10185060507199E
:10053000E029E715002501950875018102050719D5
:100540000029EF1500250195F075018102050819B4
:10055000012905950575019102950175039101C069
:1005600005010906A101050719E029E71500250184
:10057000950875018102950175088101050719002B
:1005800029FF150026FF009506750881000508194A
:10059000012905950575019102950175039101C029
:1005A00011241FBECFEFDAE0DEBFCDBF04B603FEDD
:1005B00018C08091710390917203A0917303B09160
:1005C00074038730904BA740B04B59F410927103DD
:1005D000109272031092730310927403E0E0F8E338
:1005E000099511E0A0E0B1E0EAE8F4E502C0059069
:1005F0000D92A43DB107D9F723E0A4EDB1E001C00D
:100600001D92A137B207E1F70E9491120C94B02914
:100610000C9400008330B8F46530A8F44F3098F49F
:1006200050E09FE0699F400D511D1124FA019BE4A9
:10063000899FE00DF11D1124EE0FFF1FE455FF4FC0
:1006400085919491089581E090E008950E940A03B5
:10065000089581E008950E942903089581E0089596
:100660000E94290308950E943003089508950E946E
:1006700036030895A6E0B0E0E0E4F3E00C945C28D3
:1006800049835A839E833091DB0189819A8131119C
:100690001AC03E81332399F0222389F00E940F096A
:1006A000182F682F89819A810E94EB0869817A81CD
:1006B000812F0E94FE0F2696E3E00C9478280E947A
:1006C000FD08182FF3CF0E940F0969817A81F1CFBD
:1006D000FC01262F40815181628173818481958143
:1006E0000E943A030895CF93DF93EC0161E00E94EA
:1006F0006803BE010E942B03DF91CF910895CF9331
:10070000DF93EC0160E00E946803BE010E943703A2
:10071000DF91CF91089508950E94C0070E948B0336
:100720002FEF84E39CE0215080409040E1F700C02F
:10073000000008950E948C030E94E52008950E9405
:100740008C030E94092108950F931F93CF93DF9389
:100750008C0161E00E946803EC01B8010E94330340
:10076000811106C080E0DF91CF911F910F91089514
:10077000B801CE010E94471B8823A1F3B801CE0126
:100780000E94731E882371F3B801CE010E94601C81
:10079000882341F3B801CE010E94E51D882311F39F
:1007A000B801CE010E94ED198823E1F2F80185819C
:1007B000882361F0C330FCE7DF07E9F058F4C11586
:1007C000ECE7DE07A9F0C130DC47B9F0C8010E94B0
:1007D0002E03C9CFCB358CE7D807A9F0CC35ECE791
:1007E000DE0771F0CA35DC4789F70E94450DEECF70
:1007F0000E949A03B7CF0E944D0D0E949F03B2CF73
:100800000E943B0DE3CF0E94490DE0CF0E941620CD
:1008100080E00E947C1B0E94320408950E94731A9B
:100820000E9436040E941B200895089581E00895D7
:100830000895CF93DF93D82F0E941604C82F8823E2
:1008400019F08D2F0E9418048C2FDF91CF910895FD
:100850000895CF93C82F0E9415048C2F0E9419046D
:10086000CF91089580E00E94290408950E94C11E3E
:100870000E9429040895CF930E94C11EC82F809121
:10088000D6018C1779F0C093D6010E94A620609300
:10089000D7017093D8018093D9019093DA018C2FFE
:1008A0000E942904CF910895ADE0B0E0EAE5F4E0BC
:1008B0000C945D28488759876A877B878C879D873A
:1008C00091110E94730C1F8286E0FE013896DE01B2
:1008D000119601900D928A95E1F78D8181110DC0DD
:1008E00029813A814B815C816D817E818F810E945B
:1008F000A60B2D96E2E00C947928CE0101960E9479
:1009000073038111EDCFF5CFFC012481213021F457
:10091000808191810E9441090895CF93C82F882337
:10092000A9F08238A9F489E30E942B0C0E94AC0C38
:100930002FEF87EE93E0215080409040E1F700C018
:10094000000089E30E94330C0E94AC0CCF91089503
:10095000833881F483E50E942B0C0E94AC0C2FEFAE
:1009600081EE94E0215080409040E1F700C000000B
:1009700083E5E8CF843881F487E40E942B0C0E9441
:10098000AC0C2FEF81EE94E0215080409040E1F7D5
:1009900000C0000087E4D6CF8CEF8C0F813AB8F40A
:1009A0008C2F0E94AE1D8111D1CF6C2F809104013C
:1009B000909105010E94461F882329F08C2F0E94E8
:1009C000330C0E94AC0C8C2F0E942B0CBDCF80E20C
:1009D0008C0F883048F4C77081E001C0880FCA9539
:1009E000EAF70E94560CB0CFEBE5EC0FE33040F491
:1009F000F0E0E85AFE4F808190E00E94E81EA6CF0A
:100A0000C85ACB3108F0A2CFEC2FF0E0EE0FFF1F59
:100A1000EE5DFE4F808191810E940D1F97CF88234C
:100A200009F441C0823859F489E30E942B0C0E94DA
:100A3000AC0C89E30E94330C0E94AC0C08958338FF
:100A400039F483E50E942B0C0E94AC0C83E5F2CFB5
:100A5000843839F487E40E942B0C0E94AC0C87E4A4
:100A6000E9CF9CEF980F913A28F390E2980F9830D5
:100A700050F4877091E001C0990F8A95EAF7892FA9
:100A80000E945C0CD9CF9BE5980F933028F490E03E
:100A900080E00E94E81E0895885A8B3120F490E08F
:100AA00080E00E940D1F08951F93CF93DF93182FAE
:100AB000EB010E948D04209739F4812F0E940F05CD
:100AC000DF91CF911F9108958FE99FE00197F1F792
:100AD00000C000002197EFCF70E060E0893311F48F
:100AE00060E570E00E9454050895882321F00E947B
:100AF000560C0E94AC0C0895882321F00E945C0CD7
:100B00000E94AC0C0895B0E0A0E0E9E8F5E00C9498
:100B100056286C01D62FC72FFC011581068102953E
:100B20000F700E944C0CE82E8823E9F0E12E11236F
:100B3000D1F08C2F807F803451F080E28D0F88308F
:100B4000F8F0011104C08C2F807E8032C9F08091B2
:100B50001E0382FF15C082E00E940F0D0E944C0C04
:100B600091E0E82EE926BC2EB2949FE0B922FBE08A
:100B7000FB15B8F1EB2DF0E0EE54F64D0C94162871
:100B8000E12CF1CF0C2F0F70C07F11F00295007F88
:100B9000112399F0002359F080E28D0F883010F076
:100BA000D11107C0802F0E94560C0E94AC0C8D2FD3
:100BB0005AC0802F0E94660CF8CF8D2F0E940F051F
:100BC000002379F080E28D0F883010F0D11104C03D
:100BD000802F0E945C0C03C0802F0E946C0C0E942E
:100BE000AC0CEB2DE850FF0B349720F40E94C11E93
:100BF0000E942904EE2089F00E94480C80FD0DC05F
:100C0000F60115820E94420C0E944908C6010E940A
:100C10008B070E94420C0E945908CDB7DEB7E9E06D
:100C20000C9472282C2F2F70F22EC07FC03219F036
:100C3000F29480EFF822DD2341F0D130D1F111237D
:100C400009F444C00023F1F0B2CF80911E0382FD6D
:100C500015C0112359F0FF2029F08F2D0E94560C4A
:100C60000E94AC0C80E00E948D04BBCF80E00E940B
:100C70000F05FF2009F4B5CF8F2DABCF112369F0FD
:100C8000011104C08F2D0E947505ABCF013009F012
:100C9000A8CF8F2D0E948A0CA4CF0111A2CF8F2D37
:100CA0000E947C058F2D0E94960C8F2D0E947A0C3D
:100CB00098CF112321F0063008F093CFE3CF053011
:100CC00008F08FCF8F2D0E947C058BCF0023D1F3AE
:100CD000D93349F43FEF87EE93E0315080409040A4
:100CE000E1F700C000008D2F0E940F057ACF8C2FF6
:100CF00086958695837069F0813009F072CF8D2FCB
:100D00009C2F9370111102C080E090E00E940D1F93
:100D100068CF8D2F9C2F9370111102C080E090E05E
:100D20000E94E81E5ECF8C2F8370A1F5111159CF60
:100D30004D2F429546954770440F440F2D2F2F702D
:100D400030E0042E02C0220F331F0A94E2F790E035
:100D500080E0D4FF09C08FE090E002C0880F991FA7
:100D60004A95E2F780959095C695C695C370822BFB
:100D7000932BC23049F058F4C13019F00E94190881
:100D800030CF0E9410082DCF0E9422082ACF0E9447
:100D90000D0827CF8695112311F08C2F81708823A1
:100DA00009F41FCF4D2F429546954770440F440FCD
:100DB0002D2F2F7030E0042E02C0220F331F0A9413
:100DC000E2F790E080E0D4FF09C08FE090E002C03D
:100DD000880F991F4A95E2F780959095C695C6951C
:100DE000C370822B932BC23049F058F4C13019F0F4
:100DF0000E948408F6CE0E947B08F3CE0E948D08E4
:100E0000F0CE0E943108EDCECF70112329F08C2F47
:100E10000E9449088D2F37CF8D2F0E947C058C2F83
:100E20000E945908DECED23F41F160F4D03FB9F0C4
:100E3000D13F81F0112309F446C00111B8CE8C2FA7
:100E40008F711FC0D33F01F1D43FA1F780911E03E2
:100E500082FD24C08C2F8F71112311F312C0112336
:100E600041F0053008F0BDCE8C2F8F710E946B08C9
:100E7000B8CE063008F0B5CEF7CF8C2F8F71111198
:100E8000CFCF0E944908ADCE112329F08C2F8F714E
:100E90000E943D08A6CE0E943808A3CE112349F037
:100EA000CF718C2F0E94490863E08C2F0E94F10CB7
:100EB00098CE81E00E940F0D023008F492CE82E0BD
:100EC0000E940F0D8ECE002359F0D93309F00BCFBD
:100ED000EFEFF7EE23E0E150F0402040E1F701CFE3
:100EE0008C2F8F719DCF0F931F93CF93DF93EC01C6
:100EF000688179818D810E944C098C010E9496083D
:100F00000E940C08B801CE010E948305DF91CF91A9
:100F10001F910F910895CF93DF93EC018C8188236B
:100F200099F0CE010E94A403811111C00E944C0CC3
:100F3000882351F08D81882339F080911E0382FF30
:100F400003C082E00E940F0DDF91CF910895CE0182
:100F50000E947307CE010E947F03F6CF90E080E0ED
:100F60000E94E81E90E080E00E940D1F0E94730C1A
:100F70000E94AC0C08950E943B0C0E94AE0708959D
:100F80000E94630C0E94BB07089592959F70963053
:100F900091F058F4925F9F70923058F4803F19F0AE
:100FA00030F4883E30F481E008959A5FF4CF843FB6
:100FB000D1F380E00895883EB0F3813FD1F7F3CFBD
:100FC000FC012481222339F0808191810E94410912
:100FD0000E94C507089580E00895A6E0B0E0E3EF21
:100FE000F7E00C945D282696E2E00C947928A7E0BF
:100FF000B0E0EDEFF7E00C945D282796E2E00C946A
:10100000792808950E94010808950E94020890938B
:10101000070280930602089508950E940508089526
:101020002091060230910702822B932B0E94050823
:1010300008952091060230910702822393230E9493
:101040000508089520910602309107028227932710
:101050000E94050808950E94010808950E942B0827
:1010600008950E942E08909305028093040208952B
:1010700090E080E00E943108089521E030E0A9016D
:1010800002C0440F551F8A95E2F7CA010E94310839
:10109000089521E030E002C0220F331F8A95E2F765
:1010A0008091040290910502822B932B0E943108BB
:1010B000089521E030E002C0220F331F8A95E2F745
:1010C000209530958091040290910502822393230C
:1010D0000E943108089521E030E002C0220F331F42
:1010E0008A95E2F780910402909105028227932766
:1010F0000E94310808952091040230910502822B4C
:10110000932B0E943108089520910402309105022A
:10111000822393230E943108089520910402309184
:101120000502822793270E94310808950895262FEB
:10113000277091E001C0990F2A95EAF723E0769590
:1011400067952A95E1F7660F771F660F771FFA01FB
:10115000E60FF71F50E040E0682F70E08191DF015B
:1011600011979B01042E02C0369527950A94E2F749
:10117000217021952827292328272C934F5F5F4F23
:101180004430510559F70895A82FA77023E096958C
:1011900087952A95E1F7880F991F880F991FFB0102
:1011A000E80FF91F50E040E080E0219130E00A2E86
:1011B00002C0369527950A94E2F721703327042E52
:1011C00001C0220F0A94EAF7822B4F5F5F4F443031
:1011D000510559F70895262F953070F48F3060F43B
:1011E000682F70E08FE0989F600D711D11244CED09
:1011F00051E0822F0E9497080895292F953068F4B6
:101200008F3058F490E06CED71E03FE0239F800D4B
:10121000911D11240E94C408089580E00895B0E053
:10122000A0E0E5E1F9E00C9456287C01009104026D
:10123000109105028091060290910702082B192B4C
:10124000CFE0D0E0CC24C394D12CBC2EC6010C2E10
:1012500002C0880F991F0A94E2F780239123892BFB
:1012600049F4219790F7B12C8B2DCDB7DEB7E9E08B
:101270000C947228B7018C2F0E940A10019789F3F1
:10128000F3CFCF93DF93EC010E940F09BE010E94C0
:101290000A10DF91CF9108951F93CF93DF93EB0155
:1012A0009091DB01992339F0CB010E944109DF9134
:1012B000CF911F910895882369F0CB010E940F09F7
:1012C000182F682FCE010E94EB08BE01812F0E94CB
:1012D0000A10EDCFCB010E94FD08182FF6CF1F9307
:1012E000CF93DF93C091080217E0809109028C131D
:1012F00004C0DF91CF911F910895D0E01C9FF001B1
:101300001D9FF00D1124E65FFD4F20813181428148
:1013100053816481758186810E94F7072196C77089
:10132000E4CF209142023091430240914402509117
:1013300045026091460270914702809148020E94E6
:10134000F7070895CF93DF9380914802807F09F0DB
:101350004DC080914702882309F448C0E0910802FB
:1013600050910902C0914302D0914202609144021F
:101370007091450247E05E17C9F18E2F90E0E49F1F
:10138000F0011124E65FFD4F2481222391F1489F53
:10139000F001499FF00D1124DF01A65FBD4F1196AA
:1013A0002C9111972C1325C02C912D1322C015962A
:1013B0002C91159721111DC012962D913C91261B41
:1013C000370B283C3105A8F4809148028F7080616A
:1013D00080934802E05FFD4F80818F708061808341
:1013E00082E492E00E948B070E946F09DF91CF9107
:1013F0000895FC013196E770BECF482F2091080276
:101400009091090257E0291302C080E0089530E06E
:10141000529FF001539FF00D1124E65FFD4F818133
:10142000681306C08081481303C085818111EECF07
:101430002F5F3F4F2770E7CFA4E1B0E0E2E2FAE090
:101440000C9453288C0186E0F801DE011F96019070
:101450000D928A95E1F7F8018481E58092E4A92E46
:1014600092E0B92E9091460291111FC08823D1F0CD
:10147000EE20A9F0C8010E94E007F82E882379F039
:1014800087E0F801D50101900D928A95E1F7C50139
:101490000E9484040E94A2090E9491095FC0C801B1
:1014A0000E948B07FF24F39459C0C080D1808280B2
:1014B0009380F09047022091440230914502A401AC
:1014C000421B530BFF2009F4F9C0483C510508F0BA
:1014D000A7C0882309F442C090914302809148023A
:1014E000282F207F09F05CC09D1116C09091420208
:1014F000C91212C0E1104EC08F7080618093480203
:101500000E94910982E492E00E948B078091480238
:10151000F8018683F12C22C0E1103CC06D2D8C2D8A
:101520000E94FD096D2D8C2D0E94FD09E82E811170
:10153000F1CFCF86D88A8F8598890E944109292FBB
:1015400022952F70243078F49F702230A8F09923D0
:10155000B9F0F8019681907F99F4FE2C8F2D649656
:10156000ECE00C946F282A5F2F70223068F0C801DD
:101570000E948B07EF2CF1CF992311F0882369F398
:10158000805E883050F3F3CF803F38F3815F833043
:1015900070F7E3CF80914802816080934802BACF10
:1015A0009D1113C090914202C9120FC0E1100DC0ED
:1015B0008683C8010E948B0787E0F801A2E4B2E0AD
:1015C00001900D928A95E1F767CFC8010E94E0076C
:1015D000882309F464CFEE2009F461CF809148029A
:1015E000803288F020914202309143023987288767
:1015F0009B868A86909146029C871D868E87CE01A7
:1016000008960E948B0787E0F801A2E4B2E00190FF
:101610000D928A95E1F70E94A2090E94910942CF9A
:1016200090914802292F207FA1F4682D9A8A898AF7
:10163000A6017A899E2D0E94ED0782E492E00E9425
:101640008B0787E0F50111928A95E9F70E949109CD
:1016500061CF882309F482CF809143028D1110C09D
:1016600080914202C8120CC0E1100AC09683C801E2
:101670000E948B0787E0F50111928A95E9F76ECFFA
:10168000C8010E94E007882309F409CFEE2009F47D
:1016900006CF80914802803208F4B5CF20914202F3
:1016A000309143023A8329839C828B829091460237
:1016B0009D831E828F83CE010196A3CF483C5105A6
:1016C000B8F5882309F4EECEFE2CEE2009F4E7CE1F
:1016D000809143028D111EC080914202C8121AC02F
:1016E0008091480280FD0DC0982F907F51F0868335
:1016F000903F09F45ECF982F907F905F8F70892B79
:1017000057CF87E0F801A2E4B2E001900D928A95EC
:10171000E1F724CFC8010E94E007811174CF8091C6
:101720004802816080934802C8010E948B0716CF4F
:10173000682D9A8A898AA6017A899E2D0E94ED07D2
:1017400087E0F50111928A95E9F7A6CEAEE0B0E008
:10175000ECEAFBE00C945C28288739874A875B8792
:101760006C877D878E87CE0108960E941C0A88238D
:10177000B1F06C85662341F0288539854A855B8503
:101780007D858E850E94F70717E080910802909171
:10179000090289133DC02E96E3E00C94782887E077
:1017A000FE013896DE01119601900D928A95E1F7BF
:1017B0008C85882349F32091090230E0C901019604
:1017C00087709927409108024817190699F097E009
:1017D000929FD001939FB00D1124A65FBD4FFE01D3
:1017E000319601900D929A95E1F7809309020E943B
:1017F0006F09CACF0E94C007109209021092080216
:1018000087E0E2E4F2E0DF011D928A95E9F7BCCFC0
:10181000819FC0011124865F9D4F0E941C0A88236E
:1018200009F4B9CFE09108021E9FF0011124E65F90
:10183000FD4F208131814281538164817581868190
:101840000E94F7078091080290E00196877099271F
:10185000809308029ACF682F80910401909105012E
:101860000E94C61F0895682F809104019091050180
:101870000E94D41F089580910401909105010E9457
:10188000E21F089580916902869586958695089550
:10189000809169028770089590916902977081E044
:1018A00009F480E0089580918D02089590918D0251
:1018B000892B80938D020895809590918D029823B5
:1018C00090938D02089510928D02089590918C024C
:1018D000892B80938C020895809590918C02982397
:1018E00090938C02089510928C02089508950E949E
:1018F000760C089590916A02292F282331F0809563
:10190000892380936A020E94770C089508950E94AB
:10191000860C089590916B02292F2823281729F00F
:10192000982B90936B020E94870C089590916B0204
:10193000292F282331F08095892380936B020E9400
:10194000870C089580916B02882329F010926B0216
:1019500080E00E94870C0895CF93DF93E09104010B
:10196000F091050180918D028083E0910401F09156
:101970000501808190918C02892B808390916B026C
:10198000992381F0E0910401F09105018081892B78
:10199000808380910401909105010E94321F811182
:1019A0000E94A20CC0910401D091050140E250E0D8
:1019B00069E472E0CE010E942329892B59F080E26C
:1019C000FE01A9E4B2E001900D928A95E1F7CE0103
:1019D0000E94CE1EDF91CF91089508950E94ED0CD4
:1019E000089590911E0392FF11C098E0899F900185
:1019F0001124622B609369020E9449088091690258
:101A00008695869586950E94EE0C08950E94490859
:101A100008951092690280E00E94EE0C0895909162
:101A200069028095892380936902282F277069F4C1
:101A3000891759F090911E0392FF07C086958695ED
:101A400086950E9459080E94090D089590911E03E1
:101A500092FB222720F9281769F080FB92F99093D6
:101A60001E0380911D0390911E030E946E0D82E063
:101A70000E940F0D089580911E0382FB882780F934
:101A800091E089270E94260D089581E00E94260D8D
:101A9000089580E00E94260D08956FEF7FEF90E09B
:101AA00080E00E947B29089590E080E00E94472911
:101AB00021E0863E9E4F09F020E0822F089582E0CB
:101AC00090E00E943929089583E090E00E9439292E
:101AD000089584E090E00E9447290895BC0184E0C5
:101AE00090E00E947B290895AB01BC018FE090E05B
:101AF0000E946F290895AB01BC0183E190E00E9430
:101B00006F29089560E070E0CB010E947B0D08957D
:101B100060E070E0CB010E94740D0E94820D089578
:101B2000A8E0B0E0E6E9FDE00C945D2866EE7EEF0B
:101B300090E080E00E947B2960E082E090E00E94DB
:101B40005D2960E083E090E00E945D291092070229
:101B50001092060260E074E184E090E00E947B292C
:101B600060E086E090E00E945D296FEF87E090E002
:101B70000E945D2940E050E0BA0188E090E00E94B8
:101B80006F2960E084E290E00E945D2960E087E1D7
:101B900090E00E945D2960E08CE090E00E945D2969
:101BA00060E08DE090E00E945D2919821A821B821C
:101BB0001C821D821E821F82188648E050E068E168
:101BC00070E0CE0101960E944D2940E050E0BA013C
:101BD00080E290E00E946F290E94880D2896E2E042
:101BE0000C9479280E94900D0895682F8EE090E063
:101BF0000E945D290895A6E0B0E0E1E0FEE00C94CB
:101C00005B280E949A208C0180918E0290918F0215
:101C10008017910781F019821A820E949A20682FFA
:101C200049815A81792F80E090E00E9454041093FA
:101C30008F0200938E022696E4E00C9477280E948F
:101C4000A62060939E0270939F028093A0029093BF
:101C5000A10260939A0270939B0280939C029093DE
:101C60009D020895089508950E94330E08950895E1
:101C70000E94370E089581E0089584EF90E10E945C
:101C8000B71E0E94320E0E94340E08950E943B0E31
:101C900008950E94460E0895089508950E944C0EDE
:101CA0000E944D0E08950E9413110E9428040E9464
:101CB000231C08950E9491200E94F2110E94530E4D
:101CC0000E94731A0E94F1180E94380E0895A6E02F
:101CD000B0E0EDE6FEE00C9451280E943B0E81112D
:101CE0000CC00E94FB0D0E9434190E94221C0E940D
:101CF0003B042696EEE00C946D280E94081220E921
:101D0000822E22E0922E640110E0F601E190F19023
:101D10006F01812F0E9439111F5F153009F44BC0EC
:101D2000E816F90691F38091A20281FD0E9442110A
:101D30000E94490E782E10E066246394812F0E9441
:101D400039117C01F401A190B1904F018A159B05D6
:101D500061F100E0CC24C394D12CAE24BF24C50192
:101D60008C219D21892BC1F07720B1F009831A8342
:101D70000E949A209C838B836D8221E0C7018C2175
:101D80009D21892B09F420E049815A816B817C8156
:101D90008D81922F0E9454040F5FCC0CDD1C0F30FC
:101DA000F1F6F4013297F182E0821F5F153031F6CF
:101DB0000E941F0E98CFE816F90609F0B4CF91CF14
:101DC0001F93CF93DF930E940F10EC01C11580E5A4
:101DD000D807F0F5C11580E4D80708F09CC0C03ED4
:101DE000D10520F5CD3CD10508F082C0C83AD10517
:101DF00078F4C53AD10508F073C0C130D10519F1A6
:101E0000209709F1C430D105F0F4D0E0C0E01BC048
:101E1000C33CD105D0F7C85AD0E0CC0FDD1FC55A5E
:101E2000DE4F0990D881C02DD4640DC0C11580E269
:101E3000D80708F0D1C0C11581E0D80708F05AC012
:101E4000C83ED10510F7CE01DF91CF911F910895C3
:101E5000C03682E5D80718F5C03482E5D80708F007
:101E60006BC0C03282E5D80708F05FC0C11582E5BB
:101E7000D80708F497C02C2F2695269580E2289F36
:101E8000900111248C2F8370C1E0D0E002C0CC0FF0
:101E9000DD1F8A95E2F7C22BD32BDD68D4CFC03A81
:101EA00082E5D80760F4C03882E5D80708F459C045
:101EB000CF71D0E0DC2FCC27C46FD06AC4CFC03C38
:101EC00082E5D80708F462C0C03E82E5D80708F072
:101ED0009CCFDC2FCC27CC27DF71C06FD06AB3CF6B
:101EE000C55AD0E0CF56DE4FC881D0E0D064ABCF2A
:101EF000D065A9CF8D2F0E94B110182FCE01992740
:101F00000E940F10C12FD0E0DC2FCC27CC27DF712F
:101F1000C82BD92B98CFCE0199270E940F10CC2720
:101F2000DF70C82BD92BD06A8ECFCF71D0E0DC2FD9
:101F3000CC27C16FD06A87CF2C2F26952695277086
:101F400080E2289F900111248C2F8370C1E0D0E0A3
:101F500002C0CC0FDD1F8A95E2F7C22BD32BDC68C1
:101F600072CF2C2F26952695277080E2289F90010E
:101F700011248C2F8370C1E0D0E002C0CC0FDD1F94
:101F80008A95E2F7C22BD32BDA685DCF8C2F8F7145
:101F90000E94B110C82FD0E0DC2FCC27CC27DF71F6
:101FA000D06251CF8C2F8F710E94B11055E0D69521
:101FB000C7955A95E1F7CF70D0E0DC2FCC27282FBA
:101FC00030E084FF05C044E0220F331F4A95E1F75B
:101FD000C22BD32BD06937CF8D2F8F710E94B110B8
:101FE000182FCE0199270E940F10C12FD0E0DC2FAF
:101FF000CC27CC27DF71C82BD92BD2CF462F7530F9
:1020000030F46F3020F4672F0E942603089590E08B
:1020100080E008950E94FE0F0E94E00E089582382D
:102020009105B9F1B0F48133910509F47DC048F40C
:102030008932910509F46DC08A32910509F47BC09B
:1020400008958533910509F45FC08933910509F13D
:102050000895833E9105D9F138F4803E910529F128
:10206000823E910579F10895863E9105D9F1873E2A
:10207000910509F43EC0843E910541F520911E036F
:1020800021FF24C080911D0384FD19C087EE90E0DC
:10209000089520911D03237009F05AC020911E035A
:1020A00023FF14C089E290E0089520911D0320FDD4
:1020B00038C030911E0330FF09C024FF43C090E0B8
:1020C00080E0089520911D0322FDF7CF089520910F
:1020D0001D0322FD3AC030911E0330FD39C024FF9C
:1020E000F5CFEDCF20911D0323FFF0CF24FDE7CFE7
:1020F000CDCF20911D0323FD2EC030911E0331FF53
:10210000EECF84EE90E0089520911D0325FFDECFF1
:10211000C9CF20911D0325FD21C020911E0323FF5F
:10212000D5CF89E390E0D2CF20911D0326FFCECFFB
:102130008AE290E0089520911D0326FFC7CF81E336
:1021400090E0089583EE90E0089582EE90E0089587
:1021500080EE90E0089586EE90E0089585E390E0AB
:10216000089590911D0392FF06C0282F28712830F2
:10217000F9F4877F846093FF06C0282F28712831E7
:10218000F1F4877E846120911E0320FF06C0382F62
:1021900038713830D9F4877F816021FF06C0282F3D
:1021A00028712831D1F4877E816194FD877E08955E
:1021B000282F24712430F9F68B7F8860DCCF282FFC
:1021C0002471243101F78B7E8861DDCF382F317186
:1021D000313019F78E7F8860E0CF282F21712131AF
:1021E00021F78E7E8861E1CF80E008950E944D0D39
:1021F00008950E9408122FEF86E791E02150804059
:102200009040E1F700C000000E94081280E00E94A8
:10221000391180FF04C00E94F6100E94E520089545
:102220000E94F91008950E94540D811102C00E946D
:10223000F20D0E945F0D8093A2020E94690D90939F
:102240001E0380931D030E9410110E94640D90E0F4
:102250000E940D0880910402909105020E942E08B0
:10226000089508950E943111089508950E9435112E
:102270000895E82FF0E0EE0FFF1FE75DFC4F80812F
:1022800091810895089580EA8A95F1F7089500C034
:1022900008950E9443110895F894E82FE295EF7095
:1022A000F0E031A1282F2F7081E090E001C0880F6D
:1022B0002A95EAF7982F9095932391A392A1892BC1
:1022C00082A3789408950F931F93CF93DF93C3EA6B
:1022D000D1E089918F3F11F00E944C1181E0C83A02
:1022E000D807B9F7C4E9D1E003EA11E089918F3F3B
:1022F00011F00E944C110C171D07C1F7DF91CF910F
:102300001F910F910895AF92BF92DF92EF92FF92CB
:102310000F931F93CF93DF938C01D62EC62FD0E05F
:10232000CE018D559E4F7C01FC0120812F3F09F489
:102330004CC0F894E22FE295EF70F0E031A12F70DD
:1023400081E090E001C0880F2A95EAF7932F982B3F
:1023500091A392A18095892382A378940E9447112A
:10236000E4E9F1E041E050E0B12CA12C21912F3FB4
:10237000B1F1A22FA295AF70B0E090968C9190E051
:102380002F7002C0959587952A95E2F780FD27C0AA
:10239000CA01A82AB92A440F551F81E0E33AF80779
:1023A00029F7F70180818F3F11F00E944C1161E005
:1023B000A114B10409F460E08D2D0E944911CC0FE5
:1023C000DD1FC00FD11FB982A882DF91CF911F916D
:1023D0000F91FF90EF90DF90BF90AF90089590E045
:1023E00080E0D7CF0E9463118AE0E9E2F3E0DF01E9
:1023F000982F1D929A95E9F7EFE1F3E0DF011D9226
:102400008A95E9F785E00E9443120E9432110895EF
:10241000AAE0B0E0EEE0F2E10C945A288E010F5FE2
:102420001F4F8AE0F80111928A95E9F7F12C6F2D80
:10243000C8010E948311F394F5E0FF12F8CF4AE03F
:1024400050E0B8018FE193E00E94232921E000973A
:1024500009F420E0892B41F08AE0F801AFE1B3E014
:1024600001900D928A95E1F745E069E273E08FE112
:1024700093E00E944412182F0E943611812F2A9651
:10248000E5E00C9476280895CF92DF92EF92FF92C8
:102490001F93CF93DF936C017B01C42F222349F05C
:1024A00081E08093A5020E949A209093A4028093D9
:1024B000A3021091A50211110AC010E0812FDF9133
:1024C000CF911F91FF90EF90DF90CF900895809172
:1024D000A3029091A4020E94B220059770F3D0E06D
:1024E000CC0FDD1FAE01B601C7010E942329892B45
:1024F00041F0AE01B601C7010E9430291092A50239
:10250000DDCF10E0FBCF0E9478220E945A0E0E947D
:10251000852208950E948A220E94670E0E94A422AA
:1025200008950E9433200E945E220E943D0E0E9468
:1025300083120E948A120E944E0EFBCFEF92FF92EE
:102540000F931F93CF93DF93EB01E82FD1110EC0B0
:10255000442321F0F0E0E857FC4FE4916E2F7E2FEA
:102560008E2FCDB7DEB7E6E00C9475280D2F10E066
:10257000282F30E0442329F028573C4FF9012491BB
:1025800030E0F6E0CF9FC0011124EFEFF0E0BF0193
:102590000E94CC27AB018C2F90E0880F991FA5E5F6
:1025A000A49FB001A59F700D1124861B970B982F37
:1025B000990F980FBF01601B710B629FD001639F41
:1025C000B00D729FB00D11248B2F9D9FB00111246F
:1025D000672F7727EF01C61BD70BBE01629FE00173
:1025E000639FD00D729FD00D11247F01E91AF1086D
:1025F000E09EB001E19E700DF09E700D1124672FDA
:102600007727E61BF70BE29F8001E39F100DF29FF7
:10261000100D1124E12F722F4230510599F048F42A
:102620004115510569F04130510581F0EB2F8D2F97
:1026300007C04430510569F080F046305105B1F7CC
:102640006E2F8FCFE22F7B2F812FFACFE22F7D2F9E
:10265000F7CFEB2F822F712FF3CF7B2F822FED2F10
:10266000EFCF41E00E949E12089508950E94311319
:102670000895CF93DF93762FE901682F842F0E946E
:102680003613798368838A83DF91CF91089580918F
:102690003303982F9E7F29F48170826080933303E7
:1026A00008958635E8F381708465F8CFB0E0A0E046
:1026B000ECE5F3E10C94572888E090E00E94412972
:1026C0006B017C0184E290E00E943929282F30E0E0
:1026D00040E050E060E070E080E090E000E20E94C6
:1026E0008428B22FA32FF42FE52FD62FC72F9701C1
:1026F0008601BC29A12BFE295E2F532B2B2F3A2FAD
:102700004F2F6D2F7C2FCDB7DEB7E8E00C947328E8
:10271000B0E0A0E0EEE8F3E10C94532849015A013F
:102720006B017C010E9447138401A4016A2D7B2D5B
:1027300088E090E00E946F2994014A2D5B2DB6013C
:10274000C70100E20E949F28622F84E290E00E946D
:102750005D29CDB7DEB7ECE00C946F28E3E3F3E03E
:1027600083E0808311828FEF82838383148275815B
:1027700023E030E04FEF5FEF60E0868197810E94B9
:10278000881308958091330380FF02C086950895D1
:1027900080E0089590913703933018F49F5F9093F1
:1027A0003703882391F02091330330913403409113
:1027B000350350913603609137037091380380914F
:1027C000390390913A030E948813089581E00E9492
:1027D000CA13089590913703992319F0915090935B
:1027E0003703882391F020913303309134034091D3
:1027F000350350913603609137037091380380910F
:10280000390390913A030E948813089581E00E9451
:10281000EA13089570E00E94341C089560910A0143
:102820008091330380FF0BC08091090123E0829FD8
:10283000C0011124855C9C4F0E940A140895809168
:102840000B0190910C0123E0829FF0011124E55CC3
:10285000FC4F891748F71182108212828F5F3396DE
:10286000F8CF9091330390FF0EC090910B0120910F
:102870000C0133E0939FF0011124E55CFC4F9217AB
:1028800018F00E940E1408958183608342839F5F35
:102890003396F5CFA3E0B0E0E0E5F4E10C945D28D9
:1028A0009091330390FF0AC09E012F5F3F4F0E941B
:1028B00039134B8169818A810E9431142396E2E0A9
:1028C0000C947928CF93DF93EC01EC81F0E0ED5785
:1028D000FD4F4491E3E3F3E0628181810E944A1459
:1028E0008C818F5F8C83DF91CF910895CF93DF939D
:1028F000EC01E3E3F3E0438162818C810E944A149E
:102900008C818F5F8C83DF91CF910895A3E0B0E03D
:10291000ECE8F4E10C945B288C018091A602811113
:102920000AC09E012F5F3F4F4FEF6FEF0E94391398
:102930008A818093A602F8016481613069F08091F8
:10294000A60240E0662361F040E0623011F440915D
:10295000A60280E060E004C06091A60240E080E052
:102960000E943114F801848190E0019663E070E0E8
:102970000E94E02784832396E4E00C947728A3E068
:10298000B0E0E5ECF4E10C945628082FD62EF42E96
:10299000C22E9091330390FF2EC0E92FE695AE2F03
:1029A000B0E0A855BE4F8C918093EC029E7F923090
:1029B00031F59E012F5F3F4F802F0E9439134B81CD
:1029C00069818A810E94311400933403D0923503C7
:1029D000F0923603CC2079F02091330360913703D5
:1029E00070913803302F4D2D5F2D809139039091D8
:1029F0003A030E9488132396E9E00C9472288230EF
:102A000019F4F0903603E0CF863019F400913403C6
:102A1000DBCF8930D9F38931B9F6E9516E2F617076
:102A2000B62EE695F0E0ED57FC4F1491E12C609145
:102A30000D01E61618F00E940E14C6CFE19EC001EB
:102A4000112470E00E94CC27802FB11014C0860F93
:102A500020910B01622F6E0D7727771F9B01220FAC
:102A6000331F260F371F255C3C4F4F2D6D2D0E94C5
:102A70003913E394DCCF861BEBCFE3E3F3E09181E2
:102A8000282F4381628188E0890F0E94BF14089536
:102A900081E00E943D150895E3E3F3E09181282F42
:102AA0004381628188EF890F0E94BF14089581E0FD
:102AB0000E944C150895E3E3F3E0628128E0620F81
:102AC00008F46FEF282F438181810E94BF1408957D
:102AD00081E00E945B150895E3E3F3E0628128E062
:102AE000621B08F460E0282F438181810E94BF149B
:102AF000089581E00E946C150895E3E3F3E04381BB
:102B000028E0420F08F44FEF282F628181810E9454
:102B1000BF14089581E00E947D150895E3E3F3E07A
:102B2000438128E0421B08F440E0282F6281818124
:102B30000E94BF14089581E00E948E15089520E040
:102B40000E94BF140895EF92FF921F93CF93DF93DB
:102B5000EC0110E0EE24EA94F12C60910D011617BF
:102B600070F00E940E149A818C8190FF27C08F5FB5
:102B70008C83DF91CF911F91FF90EF90089520916A
:102B80000B01422F410F5527551FCA019A01220FF1
:102B9000331F280F391F255C3C4F70E0C7010E948E
:102BA000E027962F8C814091360360913503199F61
:102BB000800D11240E9439131F5FCFCF8150D8CFD1
:102BC000B0E0A0E0E6EEF5E10C945528FC0182812E
:102BD0000FEF80FF01E010E04CE0A42E80910D018A
:102BE000181798F00E940E148091A802013009F085
:102BF0004FC0811102C080910D0181508093A802C5
:102C0000CDB7DEB7EAE00C947128C0910B01C12E5C
:102C1000D12CCC0DDD2DD11DCE01880F991FC80FF1
:102C2000D91FC55CDC4F198218821A8234E0E32E6A
:102C3000F12CB12C8091A8028B0D8D301CF16A2DE6
:102C40000E94BE27892F082E000C990BC816D906A2
:102C500091F4809136038E9DA0018F9D500D11241B
:102C600055954795559547959E01609135038091FF
:102C700034030E943913B00EF1E0EF1AF108D1F6D7
:102C80001F5FACCF87FFDFCF90910D01890FDBCFA6
:102C900090E0019660910D0170E00E94E027AECFB8
:102CA0000F931F93CF93DF9380910B0190910C01B1
:102CB00023E0829FF0011124E55CFC4F891740F16D
:102CC000C0E0D3E060910D01C61740F10E940E14E0
:102CD000209107018091A702820F8093A702909113
:102CE0000801920F90930801191654F4082E000C55
:102CF000990B40910D014150550B841795071CF01D
:102D0000219520930701DF91CF911F910F91089595
:102D10001182108212828F5F3396D0CF0C2F10E079
:102D200070E0C8010E94E02720910B01820F482F1C
:102D300050E02091A702022E000C330B021713075C
:102D4000BCF020910801022E000C330B2017310734
:102D50007CF08D9F90011124255C3C4F40913603FF
:102D600060913503809134030E943913CF5FAACF5D
:102D7000FA01EE0FFF1FE40FF51FE55CFC4F118217
:102D800010821282F3CFB0E0A0E0E9ECF6E10C94FF
:102D90005328EC014C81042F10E09801D8010E94C7
:102DA00024289B01AC010E943A284B015C01E0E21F
:102DB000F0E0E01BF10BA5E5B0E0AC019B010E9447
:102DC0003A286B017C019F01DF010E941C289B01B6
:102DD000AC010E9445289B01AC01280D391D4A1DFC
:102DE0005B1DC701B6010E94F427F22E822F90E0EE
:102DF00039E23F1520F143E0249F900111243595DD
:102E00002795122F109500E085E5E82EEF188091A8
:102E10000D01081718F10E940E149C8181E099237E
:102E200019F0903219F48FEF80930601809106011A
:102E3000890F8C83CDB7DEB7ECE00C946F2825E5C5
:102E400030E0B901681B790B9B01220F331F260F5D
:102E5000371F37FFD4CF2F5F3F4FD1CF8E2D01FDCE
:102E60008F2D20910B01622F600F7727771F9B0119
:102E7000220F331F260F371F255C3C4F412F6091D7
:102E800035030E9439130F5FC2CF0F931F93CF9367
:102E9000DF93EC0110E000E090910D019017110616
:102EA00009F06CF40E940E148C8190E00196817000
:102EB00099278C83DF91CF911F910F9108952091D5
:102EC0000B01A801420F511D9A01220F331F240F3D
:102ED000351F255C3C4F4C81609135038091340354
:102EE00096959017110651F04CF0442349F040910B
:102EF00036030E9439130F5F1F4FCECF4423B9F31F
:102F000040E0F7CFB0E0A0E0E8E8F7E10C944F280C
:102F1000FC016280448081E08483E3E8F2E0749005
:102F2000E2E0F3E0E491C0913603C695C158D0E0E9
:102F3000CC0FDD1FCD2FDD27812C75E0972EAA2425
:102F4000AA94B12C55245A94E719EE2EF12C8091B5
:102F50000D01881638F00E940E14CDB7DEB7E0E1FF
:102F60000C946B28C82CD12C82E0861568F09C9CB0
:102F7000F0019D9CF00D1124E755FD4F8091340325
:102F80008083809135038183411023C09C9CF00194
:102F90009D9CF00D1124E755FD4F13821282209164
:102FA0000B01C601820F911D9C01220F331F280FB8
:102FB000391F255C3C4F9C9CF0019D9CF00D112419
:102FC000E755FD4F4281618180810E9439138394CE
:102FD000BECF9C9C80019D9C100D112407551D4F58
:102FE000F80183818823F1F081508383859DC0019E
:102FF0001124648170E00E94CC27FB01FF27ED576C
:10300000FD4F8491E82FE719E59DC0011124B70118
:103010000E94CC2780913603689FB0011124F801EB
:103020007283BDCF0E940629B5010E94E0278C174C
:103030009D070CF0B4CFF2E0F61598F40E94062933
:10304000B5010E94E027F80180830E9406292091A3
:1030500035032695622F70E00E94E027280FF801C3
:1030600021839C9CF0019D9CF00D1124E755FD4FA0
:10307000128280913603893C58F088EC9C9CF001C8
:103080009D9CF00D1124E755FD4F8483838387CFEA
:103090008431A0F784E1F2CFE3E3F3E020812E7FD7
:1030A000208331814281538164817581868197813A
:1030B0000E9488131092ED020E940E1408956091F0
:1030C0003303669570E04BE050E08EE091E00E94A3
:1030D0001629892B19F481E08093ED020E949A2031
:1030E0009093E6028093E50208959091330390FF58
:1030F00033C09170811131C0926090933303662385
:1031000091F0209133033091340340913503509175
:1031100036036091370370913803809139039091A1
:103120003A030E94881360913303669570E04BE088
:1031300050E08EE091E00E941629892BA9F01092B0
:10314000ED0281E08093E8024091360360913503FF
:10315000809134030E949F1508958B3210F094657E
:10316000CCCF880F982BC9CF0E945F18EACF682F69
:1031700090913303969581E0890F8B3208F081E0BE
:103180000E947518089581E00E94B7180895682F6D
:103190009091330396958FEF890F09F48AE20E948C
:1031A0007518089581E00E94C718089561E00E9493
:1031B00075180895E3E3F3E080818160808386954C
:1031C0000E94D61808958091330380FF03C00E94A7
:1031D0004C1808950E94DA18089560E00E9475184E
:1031E00008958091EB0281113EC00E94540D81111F
:1031F00004C00E94F20D0E94AE130E945613209349
:103200003303309334034093350350933603609374
:103210003703709338038093390390933A032E7FDA
:10322000A1F40E94AE130E945613209333033093EF
:103230003403409335035093360360933703709300
:1032400038038093390390933A030E9447131092F6
:10325000ED028091330380FF03C086950E94ED1834
:1032600081E08093EB0208950F931F93CF93DF9338
:103270008091ED028823B9F18091EC02E091330353
:10328000E695E81BE093E702823091F5F0E0E15823
:10329000FD4FE491CE2FD0E002E614E18091E802E8
:1032A000882361F01092E8020E949A209093E6022F
:1032B0008093E5021092EA021092E9020E949A209D
:1032C000E091E502F091E6028E1B9F0B8F3F9F4736
:1032D00050F4EC0FFD1FF093E602E093E50285EE5B
:1032E00092E0F8010995DF91CF911F910F91089518
:1032F000863049F4F0E0E458FD4FE491CE2FD0E061
:1033000006E714E1CBCF893051F4E695F0E0E758B9
:10331000FD4FE491CE2FD0E003EA15E1BFCF8F300F
:1033200051F4E695F0E0EA58FD4FE491CE2FD0E05D
:1033300000EE15E1B3CF853149F4F0E0ED58FD4FD3
:10334000E491CE2FD0E000E516E1A8CFC8E2D0E0AE
:1033500003EC16E1883109F4A1CF833239F4E1E7B7
:10336000F2E0C591D49106E814E198CFC4EFD1E022
:1033700005E417E1843209F491CFC0EDD7E005E30D
:1033800013E1853209F08ACF8E2F63E00E94B227C5
:10339000E92FF0E0E259FD4FE491CE2FD0E002E8B2
:1033A00017E17CCFFA01811101C0FB010995089555
:1033B000CF93DF93C82FD62F0E94C2138C1748F0EB
:1033C0000E94C2138D1728F40E94C318DF91CF9179
:1033D00008958C2F0E94D618F9CF1F93CF93DF93B7
:1033E000EC01FB011581111110C00E94530C827277
:1033F000FE01E052F847E531F10508F05EC0E25405
:10340000F64D0C9416280E94E318812FDF91CF917E
:103410001F91089542ED58E163EC78E10E94D219C2
:10342000F4CF43EC58E162ED78E1F8CF47E555E1A0
:1034300068E475E1F3CF48E455E167E575E1EECF67
:1034400049E755E168E675E1E9CF48E655E169E706
:1034500075E1E4CF4BE955E16AE875E1DFCF4AE871
:1034600055E16BE975E1DACF46E054E166EE73E1D0
:10347000D5CF46EE53E166E074E1D0CF81E00E9403
:10348000D618C3CF65E082E00E94D819BECF68E0AD
:1034900086E0FACF6EE089E0F7CF64E18FE0F4CF09
:1034A00067E185E1F1CF88E1EACF62E289E1ECCF23
:1034B00083E2E5CF6AE285E2E7CF11E0A6CF86E0BE
:1034C00090E00E9439290895682F86E090E00E94DC
:1034D0005D290895EFE5F3E080818470896280833F
:1034E0000E94641A08950E94540D811104C00E9424
:1034F000F20D0E946A1A0E945F1A80935F03803364
:1035000020F08770886280935F0390915F03892F1A
:10351000817090FF04C0892F8695869586950E94BC
:103520007C1B089580915F03982F969596959695AC
:10353000953040F49F5F990F990F990F8770892BF1
:1035400080935F0380915F03816080935F030E949B
:10355000641A80915F038695869586950E947C1BF0
:10356000089580915F03982F987F79F08850809319
:103570005F03887F91E009F490E080915F0390FB06
:1035800080F980935F030E94641A80915F0386959F
:10359000869586950E947C1B089580915F0380FD2F
:1035A00013C0816080935F03813019F489E08093B8
:1035B0005F0380915F030E94641A80915F03869588
:1035C000869586950E947C1B089580915F0380FFFD
:1035D00008C08E7F80935F030E94641A80E00E947F
:1035E0007C1B089580915F0380FF03C00E94E51A51
:1035F00008950E94CD1A089590915F03892F8695B2
:10360000869586958F5F8F7197708630E0F4880F6E
:10361000880F880F892B80935F0380915F03887FD9
:1036200091E009F490E080915F0390FB80F9809332
:103630005F030E94641A80915F0386958695869544
:103640000E947C1B089590935F03E7CF863008F0BB
:1036500085E090915F039770282F220F220F220F91
:10366000922B90935F03987F21E009F420E09091E2
:103670005F0320FB90F990935F030E947C1B0895E9
:103680000E94261B80915F030E94641A08959C018A
:10369000FB018581882349F12230F8E73F07F9F0E3
:1036A00040F42115E8E73E0769F02130384779F00A
:1036B0000895243098E7390779F058F025303847D5
:1036C00089F0089585E00E94401B80E0089580E025
:1036D000FACF0E94B11AF9CF0E94921AF6CF0E9437
:1036E000F21AF3CF0E94FC1AF0CF81E00895279AD6
:1036F0002F9808952F9808958F929F92AF92BF921E
:10370000EF92FF920F931F93CF93DF93C82F8630D2
:10371000C0F5811137C080918000877F8093800041
:103720000E947A1BA0918600B09187002C2F30E078
:103730000E94242825E030E040E050E00E94F42779
:1037400089019A0180918600909187006CE070E079
:103750000E94CC2760177107D8F0C80169E070E0BB
:103760000E94CC2770938D0060938C00DF91CF91E5
:103770001F910F91FF90EF90BF90AF909F908F900F
:103780000895C5E080918000886080938000CACF52
:103790008091860090918700E0908600F0908700ED
:1037A000E0918600F0918700C6E0D0E0BE010E9463
:1037B000CC27060F171F211D311D4801590185E037
:1037C000880C991CAA1CBB1C8A95D1F7C701BE01A5
:1037D0000E94CC279F0150E040E0260F371F411D7B
:1037E000511DC501B4010E94F42749015A01E0911D
:1037F0008600F0918700CA01B9010E94A2279B01AF
:10380000AC01DF010E943A289B01AC01C501B40163
:103810000E94A2272FE096958795779567952A9520
:10382000D1F7009186001091870030E020E0061764
:1038300017072807390708F095CF60918600709127
:10384000870090CF08950E94771B8AE080938000C4
:1038500089E1809381008FEF9FEF909387008093A1
:1038600086000E94731A08956A9A4EB14B7F5EB12A
:103870005460EFB7F8949B01220F331F260F371FB8
:10388000280F391F2817390741F4EFBF8FE594E05F
:103890000197F1F700C000000895DC016D91CD01A2
:1038A00078E05EB9000000C067FF4EB9660F000007
:1038B00000C000C000C04EB900C07A9591F7E2CFB9
:1038C000CF93DF93EC01FB018581882309F4D2C0FB
:1038D0009E0130572332310508F0B2C00E94690DB5
:1038E00090931E0380931D03FE01E150F047E232E6
:1038F000F10520F4ED52F64D0C94162880911D032D
:10390000816080931D0393C080911E038860809323
:103910001E038DC080911D038260F3CF80911D0333
:103920008460EFCF80911D038860EBCF80911E03F0
:103930008160EDCF80911E038260E9CF80911D03ED
:103940008061DFCF80911D038062DBCF80911D03FA
:103950008064D7CF0E94C00780911D038068D1CFBB
:1039600080911D038C60CDCF80911E038360CFCFEB
:1039700080911D038E7FC5CF80911E03877FC7CFA7
:1039800080911D038D7FBDCF80911D038B7FB9CFAB
:1039900080911D03877FB5CF80911E038E7FB7CFA7
:1039A00080911E038D7FB3CF80911D038F7EA9CFA1
:1039B00080911D038F7DA5CF80911D038F7BA1CFAB
:1039C0000E94C00780911D038F779BCF80911D03BC
:1039D000837F97CF80911E038C7F99CF80911D03A9
:1039E00082FB992790F921E0922790FB82F990FBC6
:1039F00083F987CF80911E03982F909591708E7FC9
:103A0000892B90FB81F983CF90911D03892F8F7BA8
:103A100096FF806476CF0E94C00790911D03892F86
:103A200097FB87F980586DCF81E00E94F50D80915A
:103A30001D0390911E030E946E0D0E94C00780E03E
:103A4000DF91CF91089580E0F0CF90911D03892FF1
:103A50008F7E94FF806155CF90911D03892F8E7FBB
:103A600090FF81604ECF90911E03892F877F93FF37
:103A700088604DCF81E0E4CFEBEFE80FEF3308F043
:103A800066C0F0E0EB50F64D0C9416280E94F20D43
:103A900081E008958091A202807F8093A20281E05C
:103AA0008093EE0208950E949A03F2CF9091A202B1
:103AB000892F8E7F90FF81608093A20280FDE8CFE6
:103AC000817F8093A202E4CF9091A202892F8D7F03
:103AD00091FF82608093A20281FFDACF8091A202DF
:103AE0008160EFCF9091A202892F8B7F92FF84603B
:103AF0008093A20282FDF2CFCBCF9091A202892FB8
:103B0000877F93FF88608093A20283FDE7CFC0CFB9
:103B10000E94C00790911D03892F97FB87F9805859
:103B200080931D03B5CF81E090E00E940D080E94B4
:103B3000C007AECF895321E030E0A90102C0440F95
:103B4000551F8A95E2F7CA01F0CF8D51F4CF80E07E
:103B5000089580E008950E94A91D0895CF93C82F6D
:103B60008091EE02882331F0813099F01092EE02BC
:103B700080E00DC00E94530C8232D1F78C2F0E943E
:103B8000A91D811116C08C2F0E943C1D8170CF9100
:103B900008950E94530C823289F38C2F0E94AB1D32
:103BA000811105C0C43171F038F4CB3079F781E070
:103BB000EDCF81E090E0EACFC93221F0C833B9F30C
:103BC00080E0E4CF1092EE02FBCFCF93DF93EB01C6
:103BD00086319C4711F50E94530C9D81992399F0E1
:103BE0008A7A91E009F490E09093EF02811109C084
:103BF00089E20E942B0C0E94AC0C80E0DF91CF91F7
:103C0000089585E3F6CF8091EF02811104C089E227
:103C10000E94330CF0CF85E3FBCF81E0EFCF0F9311
:103C20001F93CF93DF93C42FD22FFC01858188236C
:103C3000C9F04093F2020E949A209093F10280937F
:103C4000F00280E28C0F883040F4C77081E001C040
:103C5000880FCA95EAF70E947505DF91CF911F91F1
:103C60000F9108951091F202141332C08091F00266
:103C70009091F1020E94B220883C910548F5C0E283
:103C8000CD0F1D17B9F080E2810F883040F4177016
:103C900081E001C0880F1A95EAF70E947C05C830C0
:103CA00048F481E09D2F977001C0880F9A95EAF73C
:103CB0000E947505802F0E946C05C83070F6D77081
:103CC00081E001C0880FDA95EAF70E947C05C5CF34
:103CD00080E28C0F883008F6C77081E001C0880F41
:103CE000CA95EAF7F2CF0F93DB0188519C478730E2
:103CF0009105A0F5FC01EC5CF54D0C94162806E24C
:103D000021EE41EE6AE17CE7CD010E940F1E80E0CA
:103D10000F91089507E225EE45EE6BE17CE7F4CFC5
:103D200006E221EE40EE68E17CE7EECF07E225EE09
:103D300044EE69E17CE7E8CF06E221EE42EE6CE179
:103D40007CE7E2CF07E225EE46EE6DE17CE7DCCFD3
:103D500008E221E045EE6EE17CE7D6CF15968C9126
:103D6000882319F01092F202D3CF81E0D1CF909343
:103D7000D5018093D40108959093F8028093F702BF
:103D80000895E091F702F091F802309729F0019040
:103D9000F081E02D0995089580E00895E091F70203
:103DA000F091F802309799F020912101222359F0E7
:103DB00020911D0327FF07C0DC012C9111962C9345
:103DC000119726E02C930280F381E02D0995089548
:103DD000A3E0B0E0EEEEFEE10C945D282091F50248
:103DE0003091F60228173907A1F09093F6028093DC
:103DF000F502E091F702F091F802309751F023E0DC
:103E000029839B838A830680F781E02DCE0101966A
:103E100009952396E2E00C947928A3E0B0E0E3E171
:103E2000FFE10C945D282091F3023091F4022817F1
:103E30003907A1F09093F4028093F302E091F70226
:103E4000F091F802309751F024E029839B838A8314
:103E50000680F781E02DCE01019609952396E2E0D8
:103E60000C947928FC01329680912101882321F05D
:103E700080911D039EE187FF96E080E0915008F459
:103E8000089521912223D1F38F5FF8CF662301F1AA
:103E9000209121012223F1F020911D0327FF1AC058
:103EA000462F4695469546954E3190F4677021E031
:103EB00030E002C0220F331F6A95E2F7840F911D94
:103EC000FC01828190E02823392381E0232B69F4CF
:103ED00080E00895FC01329608962191261721F082
:103EE000E817F907D1F7F4CF81E008959C01FC01B0
:103EF00032969FEF80E04191461751F09F3F19F4B1
:103F0000411101C0982F8F5F8630A9F79F3F09F4B8
:103F10000895290F311D97FD3A95F901628308959F
:103F2000FC01329608962191261303C0DF011197F8
:103F30001C92E817F907B9F70895E62FE695E6957C
:103F4000E695EE3168F4E80FF92FF11D677021E076
:103F500030E001C0220F6A95EAF78281822B8283CA
:103F60000895E62FE695E695E695EE3170F4E80FB4
:103F7000F92FF11D677021E030E001C0220F6A9532
:103F8000EAF7209582812823228308952091210138
:103F9000222339F020911D0327FF03C00E949D1F9B
:103FA00008950E94761F089520912101222339F05F
:103FB00020911D0327FF03C00E94B11F08950E9496
:103FC000901F0895FC01329680912101882351F0C1
:103FD00080911D0387FF06C08EE1DF011D928A9547
:103FE000E9F7089586E0F9CF08950E94F41F089537
:103FF000811106C081E08093F9020E94F51F0895A7
:1040000082E0F9CF83E08093F9020E94F51F0895C2
:104010000E94F81F089581E08093F9020E94F51F25
:1040200008950E940B200895089508950E94152078
:104030000895089508950E9414200895CF930E9432
:1040400019200E9408120E941A20C0E08C2F0E94A2
:104050003911892B31F4CF5FC530C1F780E0CF91A2
:10406000089581E0FCCF85B7806885BF85B78068FB
:1040700085BF08951F921FB61F9211248F939F939F
:10408000AF93BF938091FA02811113C080916003B6
:1040900090916103A0916203B09163034196A11DC9
:1040A000B11D8093600390936103A0936203B0936A
:1040B0006303BF91AF919F918F911F901FBE1F907F
:1040C000189580916803843031F10E9406041092A3
:1040D000FA0288E190E020E40FB6F894A895809366
:1040E00060000FBE2093600083B7817F846083BF30
:1040F00083B7816083BF7894889583B78E7F83BFB1
:104100000FB6F894A8958091600088618093600054
:10411000109260000FBE08950E94C0070E940E0416
:10412000089582E084BD93E095BD9AEF97BD80939A
:104130006E0008952FB7F894809160039091610309
:10414000A0916203B09163032FBF08952FB7F89435
:1041500060916003709161038091620390916303A9
:104160002FBF08959C014FB7F89480916003909100
:104170006103A0916203B09163034FBF821B930B55
:10418000089578941F921FB61F9211248F939F93C6
:10419000AF93BF938091600390916103A0916203FC
:1041A000B09163030196A11DB11D809360039093AC
:1041B0006103A0936203B0936303BF91AF919F919A
:1041C0008F911F901FBE1F90189581E08093E00093
:1041D00080E28093D8001092C9008FE19EE401979D
:1041E000F1F700C0000087E090EBDC0180937103E1
:1041F00090937203A0937303B093740388E19CE0DF
:104200000FB6F894A895809360000FBE909360005D
:10421000FFCF88E19CE00FB6F894A89580936000EA
:104220000FBE90936000FFCF80911B030895089507
:104230009B01BA01909168039430E9F48F708093E8
:10424000E9009FEF8091E800915085FD06C085ED63
:104250008A95F1F700009111F5CF8091E80085FF74
:104260000AC050E040E0C9010E941B238091E80091
:104270008E778093E800089543E050E0BC0182E02F
:104280000E9418210895CF93DF93EC0180912101C2
:10429000811111C048E050E0BE0181E00E94182168
:1042A00080E2FE01ABEFB2E001900D928A95E1F75A
:1042B000DF91CF91089580911D0387FF05C040E2F3
:1042C00082E050E0BE01EACF48E081E0FACF809181
:1042D0006703811109C00E94AB240E9408258091C8
:1042E000E20084608093E2000895109267030895CD
:1042F0000E940B2008956091640381E0611101C068
:1043000080E00E94022008959091680381E094303B
:1043100009F080E0609164030E940820089542E063
:1043200061EC81E00E94272442E261EC82E00E947D
:1043300027249091680381E0943009F080E0609137
:1043400064030E94F81F089580916A03833009F482
:1043500061C030F48130D1F1823009F49EC00895FB
:104360008A3009F48AC08B3009F46FC0893009F0B3
:1043700050C080916903813209F04BC080916D0378
:1043800090916E03029708F044C08091E800877F07
:104390008093E8008091E80082FF37C09091F3009D
:1043A0008091F200029731F48091F100813011F098
:1043B000863021F48091F10080931B038091E80006
:1043C0008B778093E8000E945B2423C0809169036F
:1043D000813AF9F48091E800877F8093E80080912A
:1043E0006D0390916E03892B61F460E28BEF92E094
:1043F00070E00E946A238091E8008B778093E80048
:10440000089560E090E080E0F3CF8091680381112F
:10441000C1CF089580916903813AD9F780916D03E6
:1044200090916E03892BA9F78091E800877F809394
:10443000E8008091E80080FFFCCF8091210180930B
:10444000F1008091E8008E77BCCF809169038132C2
:1044500001F780916D0390916E03892BD1F68091C5
:10446000E800877F8093E8000E945B2480916B03C3
:10447000809321010E94C0070895809169038132D1
:1044800041F68091E800877F8093E8000E945B24DA
:1044900080916C0380931C03089580916903813A95
:1044A00009F0B7CF8091E800877F8093E800809182
:1044B000E80080FFFCCF80911C03C1CF84B7877FC9
:1044C00084BF0FB6F894A8958091600088618093AE
:1044D0006000109260000FBE80E890E00FB6F89484
:1044E00080936100909361000FBE0E941120089597
:1044F0000E94AB240E940825E2EEF0E080818460F7
:10450000808378940E948727089589E191E00E9432
:10451000BC1E089580916803853031F48091680352
:10452000853019F00E948C2008950E9461208091AE
:104530006603882399F30E941E20882379F30E9442
:1045400005230E94C007EACF08959A0140916F03A6
:10455000509170030E94AD220895492F5527433092
:10456000510519F168F44130510509F444C0423055
:10457000510509F445C090E080E050E040E025C0DE
:104580004132510549F142325105A9F780E490E0EA
:1045900040E655E061157105C1F08DE690E043EF0E
:1045A00054E06130710589F0E6CF9927813091059B
:1045B00081F0009729F00297F1F6E8E8F4E002C0F4
:1045C000E2EAF4E0849190E0AF01F9015183408385
:1045D0000895E6E9F4E0F6CF89E090E048EB54E096
:1045E0006115710591F389E090E041ED54E061308F
:1045F000710559F3C0CF82E190E041EE54E0E5CF80
:104600008BE390E046EA54E0E0CF80E189BD82E1AF
:1046100089BD09B400FEFDCF8091D8008F7D8093C5
:10462000D8008091E00082608093E0008091E000FB
:1046300081FDFCCF0895AF92BF92CF92DF92FF929F
:104640000F931F93CF93DF936C01EB018A010E94BC
:104650007A24F82E811123C00115110539F0F801D3
:1046600080819181C81BD90BC80ED91EB12CA12CF9
:104670002097A9F08091E80085FD22C08091E80094
:104680008E778093E80001151105A1F0F801808173
:104690009181A80EB91EB182A08285E0F82E8F2DDF
:1046A000DF91CF911F910F91FF90DF90CF90BF903E
:1046B000AF9008950E947A248823D1F2F82EEFCF8C
:1046C000F60181916F018093F1002197FFEFAF1AFE
:1046D000BF0ACECFFC0180916F03909170038617C3
:1046E0009707A0F06115710529F49091E8009E7775
:1046F0009093E80090E06115710551F4911108C0A4
:104700008091E80082FF34C080E00895BC01F2CFC0
:10471000809168038823C1F18530C1F18091E80060
:1047200083FD30C08091E80082FDEACF8091E800EF
:1047300080FFE1CF8091F3002091F200382F6115C6
:10474000710519F02830310558F091E02830310515
:1047500009F090E02091E8002E772093E800CBCF7D
:1047600081918093F100615071092F5F3F4FE7CF36
:1047700080916803882341F0853041F08091E80002
:1047800083FFBECF81E0089582E0089583E008951D
:10479000FC0180916F039091700386179707A0F03A
:1047A0006115710529F48091E8008E778093E80007
:1047B00090E06115710551F4911108C08091E800F5
:1047C00082FF35C080E00895BC01F2CF809168037C
:1047D0008823C9F18530C9F18091E80083FD31C09B
:1047E0008091E80082FDEACF8091E80080FFE1CF70
:1047F0008091F3002091F200382F6115710519F0B6
:104800002830310558F091E02830310509F090E06A
:104810008091E8008E778093E800CBCF84918093DD
:10482000F1003196615071092F5F3F4FE6CF8091C3
:104830006803882341F0853041F08091E80083FFD0
:10484000BDCF81E0089582E0089583E00895982F18
:10485000973028F08F708093E90081E0089590935D
:10486000E900242F762F50E0981731F07091EC007A
:104870002091ED005091F00021FD02C09F5FE8CF34
:104880003091EB003E7F3093EB003091ED003D7FA7
:104890003093ED003091EB0031603093EB0070937A
:1048A000EC002093ED005093F0002091EE0027FDE6
:1048B000E5CF80E008958091690387FF13C0809160
:1048C000E80082FF06C08091E8008B778093E800C3
:1048D00004C0809168038111F2CF0895809168032C
:1048E0008823D9F38091E80080FFF8CF8091E80019
:1048F0008E77ECCF2091E4003091E50095E6A90198
:104900002091EC00822F817020FF06C08091E8008A
:1049100080FF06C080E008952091E80022FD1AC0C3
:1049200080916803882389F0853089F08091EB00BD
:1049300085FD0FC02091E4003091E5004217530738
:10494000F9F29150E1F684E0089582E0089583E061
:10495000089581E008950E941A250E942225E0EE24
:10496000F0E0808181608083E8EDF0E080818F77E6
:10497000808319BCA7EDB0E08C918E7F8C938081F1
:104980008F7E80831092670308950F931F93CF93B8
:10499000DF930E941A250E942225C8EDD0E088816D
:1049A0008F77888388818068888388818F7D8883DA
:1049B00019BC10926803109264031092660310925F
:1049C000650300EE10E0F80180818B7F8083888191
:1049D0008160888342E060E080E00E942724E1EE6D
:1049E000F0E080818E7F8083E2EEF0E08081816064
:1049F0008083808188608083F80180818E7F8083BE
:104A0000888180618883DF91CF911F910F910895F4
:104A1000E8EDF0E080818F7E8083E7EDF0E080813B
:104A20008160808384E082BF81E0809367030E947D
:104A3000C5240895E8EDF0E080818E7F8083109298
:104A4000E20008951092DA001092E10008951F929A
:104A50000F920FB60F9211242F933F934F935F93B2
:104A60006F937F938F939F93AF93BF93EF93FF9336
:104A70008091E10082FF0BC08091E20082FF07C0BD
:104A80008091E1008B7F8093E1000E9486278091D6
:104A9000DA0080FF19C08091D80080FF15C0809196
:104AA000DA008E7F8093DA008091D90080FF96C073
:104AB00080E189BD82E189BD09B400FEFDCF81E0BE
:104AC000809368030E9467218091E10080FF19C0F4
:104AD0008091E20080FF15C08091E2008E7F80937C
:104AE000E2008091E20080618093E2008091D80032
:104AF00080628093D80019BC85E0809368030E948F
:104B00007B218091E10084FF2BC08091E20084FF33
:104B100027C080E189BD82E189BD89B5982F917058
:104B200080FFFBCF8091D8008F7D8093D80080914B
:104B3000E1008F7E8093E1008091E2008F7E809380
:104B4000E2008091E20081608093E2008091640342
:104B5000882309F449C084E0809368030E9484217B
:104B60008091E10083FF29C08091E20083FF25C08E
:104B70008091E100877F8093E10082E08093680369
:104B8000109264038091E1008E7F8093E100809118
:104B9000E2008E7F8093E2008091E200806180934A
:104BA000E20042E060E080E00E9427248091F00073
:104BB00088608093F0000E947821FF91EF91BF916F
:104BC000AF919F918F917F916F915F914F913F91A5
:104BD0002F910F900FBE0F901F90189519BC109237
:104BE00068030E94752170CF8091E30087FD93E0F8
:104BF00090936803B3CF1F920F920FB60F921124B8
:104C00002F933F934F935F936F937F938F939F93D4
:104C1000AF93BF93CF93DF93EF93FF93D091E900CE
:104C2000DF708091EC00C82FC17080FDC0E8109249
:104C3000E9008091F000877F8093F00078940E94D3
:104C40003F261092E9008091F00088608093F00088
:104C5000CD2BCF70C093E900FF91EF91DF91CF9101
:104C6000BF91AF919F918F917F916F915F914F9184
:104C70003F912F910F900FBE0F901F901895AAE2B1
:104C8000B0E0E5E4F6E20C945C2889E693E020913C
:104C9000F100FC012193CF01F3E081379F07B9F7C1
:104CA0000E94A4218091E80083FF1EC180916903C6
:104CB00090916A039A3008F017C1E92FF0E0E55CA3
:104CC000F54D0C941628803899F0823809F00CC103
:104CD00080916D038F70873008F006C18093E900E2
:104CE0008091EB0085FB882780F91092E90006C0CF
:104CF0008091650390916603911182609091E80024
:104D0000977F9093E8008093F1001092F1008091DA
:104D1000E8008E77E5C0882309F4D3C0823009F01B
:104D2000E3C080916B038111D6C080916D038F70B9
:104D30002FEF280F263008F0D7C08093E90020918C
:104D4000EB0020FFC8C0933031F48091EB0080620B
:104D50008093EB00C0C09091EB0090619093EB00CA
:104D600021E030E001C0220F8A95EAF72093EA00A3
:104D70001092EA008091EB008860EACF8111B4C004
:104D800010916B031F778091E3008078812B8093D3
:104D9000E3008091E800877F8093E8000E945B2415
:104DA0008091E80080FFFCCF8091E30080688093D1
:104DB000E30082E0111183E08093680395C080587E
:104DC000823008F091C080916B0390916C038C3D10
:104DD00023E09207A1F583E08A838AE289834FB7B3
:104DE000F894DE01139620E03EE051E2E32FF0E07C
:104DF00050935700E49120FF03C0E295EF703F5FAE
:104E0000EF708E2F90E0EA30C0F0C7968D939D939F
:104E10002F5F243159F74FBF8091E800877F80933F
:104E2000E8006AE270E0CE0101960E946A23809158
:104E3000E8008B778093E80057C0C096E7CF609179
:104E40006D0370916E03AE014F5F5F4F0E94A5220C
:104E5000BC01892B09F448C09091E800977F90939A
:104E6000E80089819A810E94C823E1CF8038E1F56A
:104E70008091E800877F8093E800809164038093AD
:104E8000F10045CF811130C090916B03923060F5F5
:104E90008091E800877F8093E800909364030E94EC
:104EA0005B2480916403882311F084E005C0809125
:104EB000E30087FDFACF81E0809368030E948F2191
:104EC00013C080916B03813079F481E0933009F055
:104ED00080E0809366031092E9008091E800877F6C
:104EE0008093E8000E945B248091E80083FF0AC061
:104EF0008091E800877F8093E8008091EB008062DA
:104F00008093EB00AA96E3E00C9478280895CF9361
:104F1000809168038823A1F0C091E900CF7090913F
:104F2000EC00892F817090FD80E8C82B1092E90079
:104F30008091E80083FD0E943F26CF70C093E90076
:104F4000CF910895DB018F939F930E943A28BF91E0
:104F5000AF91A29F800D911DA39F900DB29F900DC8
:104F600011240895991B79E004C0991F961708F041
:104F7000961B881F7A95C9F78095089587FB082EA0
:104F8000062687FD819567FD61950E94B2270EF484
:104F9000919507FC81950895AA1BBB1B51E107C0A1
:104FA000AA1FBB1FA617B70710F0A61BB70B881FB9
:104FB000991F5A95A9F780959095BC01CD01089548
:104FC00097FB072E16F4009407D077FD09D00E94B6
:104FD000CC2707FC05D03EF4909581959F4F08950E
:104FE000709561957F4F0895A1E21A2EAA1BBB1BF5
:104FF000FD010DC0AA1FBB1FEE1FFF1FA217B307A5
:10500000E407F50720F0A21BB30BE40BF50B661FBA
:10501000771F881F991F1A9469F76095709580957E
:1050200090959B01AC01BD01CF010895EE0FFF1FCC
:105030000590F491E02D09940E942428332312F462
:105040008A1B9B0B0C943528A29FB001B39FC00113
:10505000A39F700D811D1124911DB29F700D811DA4
:105060001124911D08950E942428B7FF0895821BE2
:10507000930B08950E942428A59F900DB49F900D36
:10508000A49F800D911D11240895B7FF0C943A2818
:105090000E943A28821B930B08952F923F924F92C1
:1050A0005F926F927F928F929F92AF92BF92CF92B8
:1050B000DF92EF92FF920F931F93CF93DF93CDB7C1
:1050C000DEB7CA1BDB0B0FB6F894DEBF0FBECDBF39
:1050D00009942A88398848885F846E847D848C840A
:1050E0009B84AA84B984C884DF80EE80FD800C8113
:1050F0001B81AA81B981CE0FD11D0FB6F894DEBFF6
:105100000FBECDBFED010895002E083090F0982F0E
:10511000872F762F652F542F432F322F22270850A9
:10512000F4CF220F331F441F551F661F771F881FA0
:10513000991F0A95B2F7002D089597FD1094002E3F
:10514000083098F00850232F342F452F562F672F03
:10515000782F892F912DF4CF159497958795779572
:10516000679557954795379527950A95AAF711247E
:10517000002D08958F929F92AF92BF92CF92DF92AF
:10518000EF92FF92CF93DF93EC01688179818A815E
:105190009B81611571058105910521F464E279ED2A
:1051A0008BE597E02DE133EF41E050E00E9491293B
:1051B00049015A019B01AC01A7EAB1E40E943A28D7
:1051C0006B017C01ACEEB4EFA50194010E9448286C
:1051D000DC01CB018C0D9D1DAE1DBF1DB7FF03C0B3
:1051E0000197A109B04888839983AA83BB839F77DD
:1051F000DF91CF91FF90EF90DF90CF90BF90AF9075
:105200009F908F9008950E94BA28089580E091E0C1
:105210000E94BA280895B0E0A0E080930001909326
:105220000101A0930201B09303010895FC014150D4
:10523000504030F001900616D1F73197CF01089514
:10524000882799270895FB01DC0104C08D91019006
:10525000801921F441505040C8F7881B990B0895DC
:10526000FB01DC0102C001900D9241505040D8F783
:105270000895F999FECF92BD81BDF89A992780B51E
:105280000895A6E1B0E044E050E00C948329A8E141
:10529000B0E042E050E00C948329DC01A40FB51F7C
:1052A0004150504048F0CB01840F951F2E910E9431
:1052B0005E2941505040D0F70895262FF999FECF2E
:1052C00092BD81BDF89A019700B4021639F01FBA59
:1052D00020BD0FB6F894FA9AF99A0FBE0895039676
:1052E000272F0E945E290E945D29252F0E945E299A
:1052F000242F0C945E290196272F0E945E290C947E
:105300005D29DC01CB01FC01F999FECF06C0F2BD9D
:10531000E1BDF89A319600B40D9241505040B8F773
:105320000895052E97FB1EF400940E94A82957FDAE
:1053300007D00E94F42707FC03D04EF40C94A82950
:1053400050954095309521953F4F4F4F5F4F0895B1
:1053500090958095709561957F4F8F4F9F4F0895E1
:10536000F894FFCFC205C205120612067706F105B2
:10537000F105F1059306040713071307031A0A1A28
:10538000111A161A1B1A201A251A2A1A2F1A341A39
:10539000391A3E1A421A471A4A1A4D1A501A531A03
:1053A000551A581A5A1AB81C2C1DC01C8A1C8E1C5F
:1053B000C41C921CC81CD41C9E1C251DA21CD81CDD
:1053C000A61CDC1C041DAA1CE01C0B1DB01CE61C4A
:1053D000EE1C961CCC1C9A1CD01CB41CEA1CFA1C9B
:1053E000141D231D841CBC1C331D531D4A1D561D3A
:1053F000481DA71DA71D481DA71DA71D721DA71D80
:105400007D1D881DA71DA71DA71DA71D481DA71D24
:10541000A71D481DA71D641DA71DA71DA51DA51D12
:10542000A51DA51DA51DA51DA51DA51DA51D931D7E
:10543000A71D531D461DA71DA71DA71DA71DA71D01
:10544000A71DA71DA71DA71DA71D931DA71DA71D50
:10545000481DA71D9A1D9A1D9A1D9A1D9A1D9A1DD9
:105460009A1D9A1D9A1D931D901E961E7F1E8A1EC0
:105470009C1EA21EA81E63268B2674278B267427CB
:0A548000BE26DF26742736274227D8
:10548A00010000006C02010102000C000C0C011961
:10549A001A1B1C1D1E1F2021221421432117213CE7
:1054AA002101E200E900EA00B500B600B700CD002C
:1054BA008301CC008A019201940121022302240271
:1054CA002502260227022A02B300B4006F007000E8
:1054DA009F01CB019F02A002818283E200E900EAD8
:1054EA0000B500B600B700CD008301CC008A019256
:1054FA000194012102230224022502260227022AFC
:10550A0002B300B4006F0070009F01CB019F02A09C
:10551A0002818283F0F1C66766369431F735349793
:10552A009633329091929395000102020202060686
:10553A00060909090909090F0F0F0F0F0F1515158C
:10554A001819191919191919191919232425252589
:04555A0025252500DE
:00000001FF
