:100000000C94D0020C9408030C9408030C9408037D
:100010000C9408030C9408030C9408030C94080334
:100020000C9408030C9408030C942C240C940025C5
:100030000C94441F0C9408030C9408030C940803BC
:100040000C9408030C9408030C9408030C94080304
:100050000C9408030C94CB1F0C9408030C94080315
:100060000C9408030C9408030C9408030C940803E4
:100070000C9408030C9408030C9408030C940803D4
:100080000C9408030C9408030C9408030C940803C4
:100090000C9408030C9408030C9408030C940803B4
:1000A0000C9408030C9408030C94080329001E0008
:1000B0001F0020002100220023002400250026002C
:1000C00027002D002E0035002A002B0014001A00F6
:1000D0000800150017001C0018000C001200130087
:1000E0002F003000310000004C0004001600070013
:1000F00009000A000B000D000E000F003300340051
:10010000000028000000E10000001D001B000600A8
:100110001900050011001000360037003800E50016
:1001200052004C00E000E3002800215200000000D3
:1001300000002C002252E6002A00500051004F001F
:100140000000007C3A003B003C003D003E003F00C8
:1001500040004100420043004400450001004C00C3
:100160000100207821785200237824782578267899
:10017000277828780100010001000100000001003B
:100180004A00500051004F00010001004D000100E5
:10019000010001000100000001000000010000005A
:1001A00001000100037802780478010001000100D9
:1001B0000100010001000100010001000100010037
:1001C00001000000000000009100E30001000100B8
:1001D000010001000100000000000000000000001C
:1001E000000000000000000000000000000000000F
:1001F00000000000000000000000000052000000AD
:1002000000000000000000000000000000000000EE
:100210000000000000000000500051004F000000EE
:1002200000004A004D000000000000000000000037
:1002300000000000000000000000000000000000BE
:1002400000000000000000000000000000000000AE
:10025000000000000000E30000000000000090002B
:1002600000000000000000000000000000001E0F61
:100270000500047F3F1F643214643214783C1E1E54
:10028000140A052223252628292A2C2D2F30323323
:100290003536383A3B3D3E4042434547494A4C4E4D
:1002A0005051535557595A5C5E6062646668696B79
:1002B0006D6F71737577797B7D7F81838587898A7F
:1002C0008C8E90929496989A9C9E9FA1A3A5A7A885
:1002D000AAACAEAFB1B3B4B6B8B9BBBCBEBFC1C2B5
:1002E000C3C5C6C7C9CACBCCCDCED0D1D2D2D3D448
:1002F000D5D6D7D7D8D9D9DADADBDBDBDCDCDCDC66
:10030000DCDDDDDDDDDCDCDCDCDCDBDBDBDADAD933
:10031000D9D8D7D7D6D5D4D3D2D2D1D0CECDCCCBB5
:10032000CAC9C7C6C5C3C2C1BFBEBCBBB9B8B6B4D3
:10033000B3B1AFAEACAAA8A7A5A3A19F9E9C9A9863
:10034000969492908E8C8A89878583817F7D7B7934
:10035000777573716F6D6B6968666462605E5C5A15
:100360005957555351504E4C4A4947454342403ED8
:100370003D3B3A3836353332302F2D2C2A2928266A
:10038000252322FFAA7F554000010101010101013F
:10039000010102020202020202020203030303033A
:1003A0000303030404040404040405050505050609
:1003B00006060606070707070708080808090909C7
:1003C000090A0A0A0B0B0B0C0C0C0D0D0D0E0E0E70
:1003D0000F0F0F1010111111121213131414151501
:1003E00016161717181819191A1A1B1B1C1D1D1E73
:1003F0001E1F2020212222232424252626272829C7
:10040000292A2B2C2D2D2E2F3031323233343536F4
:100410003738393A3B3C3D3E3F40414243444546F4
:100420004748494A4C4D4E4F5051535455565859D0
:100430005A5B5D5E5F616264656668696B6C6D6F77
:100440007072737577787A7B7D7E808283858788EA
:100450008A8C8E8F91939596989A9C9EA0A2A3A524
:10046000A7A9ABADAFB1B3B5B7BABCBEC0C2C4C625
:10047000C9CBCDCFD1D4D6D8DBDDDFE2E4E7E9EBE1
:10048000EEF0F3F5F8FAFDFF0C0359004D004400BF
:100490003600370000000A0359004D0044004B00AD
:1004A00000000403090409023B00020100A0FA094C
:1004B0000400000103010100092111010001224093
:1004C0000007058103080001090401000103000081
:1004D00000092111010001226D000705820320009F
:1004E0000112010002000000084D59606001000186
:1004F00002000105010980A101850319012AB70045
:10050000150126B700950175108100C0050C090181
:10051000A101850419012AA002150126A002950156
:1005200075108100C005010906A10185060507199E
:10053000E029E715002501950875018102050719D5
:100540000029EF1500250195F075018102050819B4
:10055000012905950575019102950175039101C069
:1005600005010906A101050719E029E71500250184
:10057000950875018102950175088101050719002B
:1005800029FF150026FF009506750881000508194A
:10059000012905950575019102950175039101C029
:1005A00011241FBECFEFDAE0DEBFCDBF04B603FEDD
:1005B00018C080915C0390915D03A0915E03B0919F
:1005C0005F038730904BA740B04B59F410925C0307
:1005D00010925D0310925E0310925F03E0E0F8E377
:1005E000099511E0A0E0B1E0E8E0F2E502C0059075
:1005F0000D92AC3CB107D9F723E0ACECB1E001C0FF
:100600001D92AC35B207E1F70E940F120C946F28CF
:100610000C9400008330B8F46530A8F44F3098F49F
:1006200050E09FE0699F400D511D1124FA019BE4A9
:10063000899FE00DF11D1124EE0FFF1FE455FF4FC0
:1006400085919491089580E090E008950E940A03B6
:10065000089581E0089581E008950E942B03089594
:1006600008950E9430030895A5E0B0E0EAE3F3E0C6
:100670000C94612749835A833091D30189819A81EF
:10068000311119C0662399F0222389F00E941609BE
:10069000182F682F89819A810E94F20869817A81D6
:1006A000812F0E947F0F2596E3E00C947D270E9406
:1006B0000409182FF3CF0E94160969817A81F1CFBE
:1006C000FC01262F408151816281738184810E94C7
:1006D0003403089581E00895CF93DF93EC0160E047
:1006E0000E946003BE010E943103DF91CF91089503
:1006F0000E94B01008950E94B410089508950E94B9
:10070000C1070E947E032FEF84E39CE021508040CC
:100710009040E1F700C0000008950E947F030E940E
:10072000EF1F08950E947F030E94132008950F93E6
:100730001F93CF93DF938C0161E00E946003EC0173
:10074000B8010E942D03811106C080E0DF91CF9196
:100750001F910F910895B801CE010E94511A88236C
:10076000A1F3B801CE010E947D1D882371F3B80169
:10077000CE010E946A1B882341F3B801CE010E947A
:10078000EF1C882311F3B801CE010E94F7188823CB
:10079000E1F2F8018281882361F0C330FCE7DF07D2
:1007A000E9F058F4C115ECE7DE07A9F0C130DC47E9
:1007B000B9F0C8010E942903C9CFCB358CE7D8070F
:1007C000A9F0CC35ECE7DE0771F0CA35DC4789F7D4
:1007D0000E94180DEECF0E948D03B7CF0E94200D0E
:1007E0000E949203B2CF0E940E0DE3CF0E941C0D17
:1007F000E0CF0E94201F80E00E94861A0E942804F9
:1008000008950E947D190E942C040E94251F0895BE
:1008100008950E940804089581E008950895CF93F3
:10082000DF93D82F0E940C04C82F882319F08D2F36
:100830000E940E048C2FDF91CF9108950895CF93DD
:10084000C82F0E9409048C2F0E940F04CF91089595
:1008500080E00E941F0408950E94CB1D0E941F0487
:100860000895CF930E94CB1DC82F8091CE018C1785
:1008700079F0C093CE010E94B01F6093CF017093B6
:10088000D0018093D1019093D2018C2F0E941F043C
:10089000CF910895ABE0B0E0E0E5F4E00C9462277E
:1008A0004F83588769877A878B8761110E94590C1B
:1008B0001E821D8285E0FE013796DE0111960190B1
:1008C0000D928A95E1F78C819D81892B61F4498194
:1008D0005A816B817C818D819E810E94820B2B9637
:1008E000E2E00C947E2789819A8189238F3F79F3F6
:1008F000CE0101960E946A038111E9CFF0CFFC017D
:10090000808191810E9448090895CF93C82F882340
:10091000A9F08238A9F489E30E94110C0E947A0C94
:100920002FEF87EE93E0215080409040E1F700C028
:10093000000089E30E94190C0E947A0CCF9108955F
:10094000833881F483E50E94110C0E947A0C2FEF0A
:1009500081EE94E0215080409040E1F700C000001B
:1009600083E5E8CF843881F487E40E94110C0E946B
:100970007A0C2FEF81EE94E0215080409040E1F717
:1009800000C0000087E4D6CF8CEF8C0F813AB8F41A
:100990008C2F0E94B81C8111D1CF6C2F8091040143
:1009A000909105010E94501E882329F08C2F0E94EF
:1009B000190C0E947A0C8C2F0E94110CBDCF80E282
:1009C0008C0F883048F4C77081E001C0880FCA9549
:1009D000EAF70E943C0CB0CFEBE5EC0FE33040F4BB
:1009E000F0E0EC5AFE4F808190E00E94F21DA6CF0D
:1009F000C85AC93108F0A2CFEC2FF0E0EE0FFF1F6C
:100A0000EE5DFE4F808191810E94171E97CF882353
:100A100009F441C0823859F489E30E94110C0E9404
:100A20007A0C89E30E94190C0E947A0C089583388D
:100A300039F483E50E94110C0E947A0C83E5F2CF11
:100A4000843839F487E40E94110C0E947A0C87E400
:100A5000E9CF9CEF980F913A28F390E2980F9830E5
:100A600050F4877091E001C0990F8A95EAF7892FB9
:100A70000E94420CD9CF9BE5980F933028F490E068
:100A800080E00E94F21D0895885A893120F490E098
:100A900080E00E94171E08951F93CF93DF93182FB5
:100AA000EB010E948504209739F4812F0E940705ED
:100AB000DF91CF911F9108958FE99FE00197F1F7A2
:100AC00000C000002197EFCF70E060E0893311F49F
:100AD00060E570E00E944C050895882321F00E9493
:100AE0003C0C0E947A0C0895882321F00E94420C4D
:100AF0000E947A0C0895B0E0A0E0E1E8F5E00C94E3
:100B00005B276C01D62FC72FFC011281F580F29470
:100B10009FE0F9220E94320CE82E8823B9F0E12EE2
:100B20001123A1F08C2F807F803421F080E28D0F83
:100B30008830D0F080910C0382FF16C082E00E94C2
:100B4000DD0C0E94320C91E0E82EE926BC2EB29416
:100B50008FE0B822FBE0FB1508F468C0EB2DF0E055
:100B6000EF58F74D0C941B27E12CF0CF0C2F0F7092
:100B7000C07F11F00295007F112399F0002359F0F6
:100B800080E28D0F883010F0D11107C0802F0E94B5
:100B90003C0C0E947A0C8D2F41C0802F0E944C0C7F
:100BA000F8CF8D2F0E940705002309F43FC080E293
:100BB0008D0F883010F0D11104C0802F0E94420C9C
:100BC00003C0802F0E94520C0E947A0C2FC00C2F61
:100BD0000F70C07FC03211F00295007FDD2381F0DD
:100BE000D13009F468C0112309F472C0FF2009F460
:100BF00068C0F601858180FFCECF8F70858361C08C
:100C000080910C0382FD33C0112359F0002329F099
:100C1000802F0E943C0C0E947A0C80E00E94850488
:100C200005C080E00E9407050111C7CFEB2DE850F9
:100C3000FF0B349720F40E94CB1D0E941F04EE206E
:100C400089F00E942E0C80FD0DC0F60112820E94D8
:100C5000280C0E945008C6010E9485070E94280C9B
:100C60000E946008CDB7DEB7E9E00C947727112326
:100C700089F0F11006C00E945C0C802B0E946D056B
:100C8000D5CF21E0F212F7CF0E945C0C802B0E949E
:100C9000630CCCCFF11006C00E94700C802F0E9414
:100CA0007405C4CF31E0F31609F2802F0E94740559
:100CB0000E94700CBBCF112331F085E08F1508F432
:100CC000B5CF802FDBCF94E09F1508F4AFCFE6CFF0
:100CD000FF2021F3D93349F4FFEF27EE33E0F15041
:100CE00020403040E1F700C000008D2F0E94070532
:100CF0009DCF8C2F86958695837069F0813009F0A1
:100D000095CF8D2F9C2F9370111102C080E090E041
:100D10000E94171E8BCF8D2F9C2F9370111102C034
:100D200080E090E00E94F21D81CF8C2F8370A1F5AE
:100D300011117CCF4D2F429546954770440F440FBB
:100D40002D2F2F7030E0042E02C0220F331F0A9483
:100D5000E2F790E080E0D4FF09C08FE090E002C0AD
:100D6000880F991F4A95E2F780959095C695C6958C
:100D7000C370822B932BC23049F058F4C13019F064
:100D80000E94200853CF0E94170850CF0E942908C4
:100D90004DCF0E9414084ACF8695112311F08C2F55
:100DA0008170882309F442CF4D2F429546954770B4
:100DB000440F440F2D2F2F7030E0042E02C0220F5D
:100DC000331F0A94E2F790E080E0D4FF09C08FE07F
:100DD00090E002C0880F991F4A95E2F780959095A0
:100DE000C695C695C370822B932BC23049F058F438
:100DF000C13019F00E948B0819CF0E94820816CFCB
:100E00000E94940813CF0E94380810CFCF7011238E
:100E100029F08C2F0E9450088D2F30CF8D2F0E94EB
:100E200074058C2F0E94600801CFD23F51F160F40D
:100E3000D03FB9F0D13F81F0112309F449C0F1103E
:100E4000AACE8C2F8F7121C0D33F11F1D43FA1F7CF
:100E500080910C0382FD26C08C2F8F71112311F31A
:100E600014C0112349F084E08F1508F4DFCE8C2FD5
:100E70008F710E947208DACE95E09F1508F4D6CEE5
:100E8000F6CF8C2F8F711111CDCF0E945008CECE8E
:100E9000112329F08C2F8F710E944408C7CE0E9425
:100EA0003F08C4CE112349F0CF718C2F0E94500807
:100EB00063E08C2F0E94BF0CB9CE81E00E94DD0C54
:100EC000E1E0EF1508F0B2CE82E00E94DD0CAECE7C
:100ED000F11000CF8C2F8F71A5CF0F931F93CF935D
:100EE000DF93EC01688179818A810E9453098C012A
:100EF0000E949D080E941308B801CE010E947B0544
:100F0000DF91CF911F910F910895CF93DF93EC0163
:100F10008B819C81892B29F08881998189238F3F3E
:100F200051F4DF91CF910895CE010E946D07CE015B
:100F30000E946C03F6CFCE010E9497038111F4CF7B
:100F40000E94320C882369F38A81882351F38091AF
:100F50000C0382FFE6CF82E00E94DD0CE2CF90E03E
:100F600080E00E94F21D90E080E00E94171E0E9427
:100F7000590C0E947A0C08950E94210C0E94AF0720
:100F800008950E94490C0E94BC07089592959F7095
:100F9000963091F058F4925F9F70923058F4803FF1
:100FA00019F030F4883E30F481E008959A5FF4CF70
:100FB000843FD1F380E00895883EB0F3813FD1F7BC
:100FC000F3CFFC0183819481892B29F08081918169
:100FD00089238F3F11F480E00895808191810E94E0
:100FE00048090E94C6070895A5E0B0E0EAEFF7E0DF
:100FF0000C9462272596E2E00C947E27A6E0B0E0F0
:10100000E4E0F8E00C9462272696E2E00C947E2758
:1010100008950E94080808950E9409089093FF010E
:101020008093FE01089508950E940C080895209170
:10103000FE013091FF01822B932B0E940C08089532
:101040002091FE013091FF01822393230E940C081E
:1010500008952091FE013091FF01822793270E947D
:101060000C0808950E94080808950E943208089507
:101070000E9435089093FD018093FC01089590E053
:1010800080E00E943808089521E030E0A90102C004
:10109000440F551F8A95E2F7CA010E943808089547
:1010A00021E030E002C0220F331F8A95E2F78091E1
:1010B000FC019091FD01822B932B0E94380808952A
:1010C00021E030E002C0220F331F8A95E2F720951D
:1010D00030958091FC019091FD01822393230E9421
:1010E0003808089521E030E002C0220F331F8A95AE
:1010F000E2F78091FC019091FD01822793270E94E5
:10110000380808952091FC013091FD01822B932B2A
:101110000E94380808952091FC013091FD0182233E
:1011200093230E94380808952091FC013091FD011D
:10113000822793270E94380808950895262F277044
:1011400091E001C0990F2A95EAF723E0769567951B
:101150002A95E1F7660F771F660F771FFA01E60FF2
:10116000F71F50E040E0682F70E08191DF01119798
:101170009B01042E02C0369527950A94E2F7217050
:1011800021952827292328272C934F5F5F4F443030
:10119000510559F70895A82FA77023E096958795D4
:1011A0002A95E1F7880F991F880F991FFB01E80F17
:1011B000F91F50E040E080E0219130E00A2E02C0AB
:1011C000369527950A94E2F721703327042E01C043
:1011D000220F0A94EAF7822B4F5F5F4F443051058C
:1011E00059F70895262F953070F48F3060F4682FEA
:1011F00070E08FE0989F600D711D112444ED51E067
:10120000822F0E949E080895292F953068F48F3010
:1012100058F490E064ED71E03FE0239F800D911D54
:1012200011240E94CB08089580E00895B0E0A0E06A
:10123000ECE1F9E00C945B277C010091FC0110913A
:10124000FD018091FE019091FF01082B192BCFE049
:10125000D0E0CC24C394D12CBC2EC6010C2E02C0ED
:10126000880F991F0A94E2F780239123892B49F470
:10127000219790F7B12C8B2DCDB7DEB7E9E00C9418
:101280007727B7018C2F0E948B0F019789F3F3CF3B
:10129000CF93DF93EC010E941609BE010E948B0FD1
:1012A000DF91CF9108951F93CF93DF93EB0190913E
:1012B000D301992339F0CB010E944809DF91CF91E6
:1012C0001F910895882369F0CB010E941609182FF9
:1012D000682FCE010E94F208BE01812F0E948B0F61
:1012E000EDCFCB010E940409182FF6CF1F93CF93A7
:1012F000DF93C091000216E0809101028C1304C0BC
:10130000DF91CF911F910895D0E01C9FF0011D9FA8
:10131000F00D1124EE5FFD4F408151816281738198
:10132000848195810E94FE072196C770E5CF409188
:1013300032025091330260913402709135028091F3
:101340003602909137020E94FE0708951F93CF93B3
:10135000DF9380913702807F09F049C08091340289
:10136000882309F444C080910002C0910102609179
:10137000320270913302A0913502B0913602D62F1D
:10138000D72316E0C81799F190E0109711F0DF3FCE
:1013900019F401968770F6CF189F9001199F300DB0
:1013A0001124F901EE5FFD4F41814713F2CF4081D7
:1013B0004613EFCF42814111ECCF438154814A1B48
:1013C0005B0B483C510528F7809137028F70806194
:1013D00080933702F901E95FFD4F80818F70806152
:1013E000808382E392E00E9485070E947609DF9164
:1013F000CF911F910895A1E1B0E0E1E0FAE00C94F3
:101400005A278C0185E0F801DE011D9601900D92AE
:101410008A95E1F7F801E28082E3C82E82E0D82EB7
:1014200060913502709136026115710509F44EC163
:101430009091320220913302892F82238F3F09F449
:1014400045C140815181A380B480F0903402F50100
:10145000E61BF70BFF2009F4EAC080913702382F12
:10146000307FE83CF10508F0A3C031116DC0FE2CBF
:10147000251316C0941314C0E11012C08F70806140
:10148000809337020E949709C6010E9485078091C8
:101490003702F80185838F2D6196EAE00C94762758
:1014A000A114B10429F0842F85238F3F09F027C1AF
:1014B00080E0F82FF170DF2E80FF3CC080910002A9
:1014C0002091010236E0821315C04D875E878D851D
:1014D0009E850E944809292F22952F702230F0F016
:1014E000243018F59F70F1F0F8019581907FD1F4C8
:1014F000D12C1EC090E0389FF001399FF00D1124CF
:10150000EE5FFD4F6181651306C06081641303C007
:101510006281E6120FC001968770D5CF9F7011F0DF
:10152000882331F3805E883018F3C8010E94850754
:10153000FD2CB1CFEE2009F4AECF8091370281604F
:1015400080933702F12CA7CF251306C0941304C053
:10155000F801EE2009F487C0C8010E94E107882342
:1015600019F1EE2009F180913702803270F020915C
:1015700032023091330238872F831986BB86AA86C0
:101580008C87CE0107960E94850786E0F801A2E3CA
:10159000B2E001900D928A95E1F70E94A6090E949F
:1015A0009709FF24F39477CFC8010E948507F9CFEC
:1015B000311113C07A2DB98AA88A6E2D89890E94AB
:1015C000F40782E392E00E94850786E0F60111921B
:1015D0008A95E9F70E949709B5CF25130FC0941398
:1015E0000DC0E1100BC0F8018583C8010E9485077A
:1015F00086E0F60111928A95E9F74DCFC8010E9465
:10160000E107882389F2EE2079F280913702803257
:1016100008F4BBCF20913202309133023A83298300
:101620001B82BD82AC828E83CE010196ACCFE83C9A
:10163000F10508F03EC0FE2CEE2009F4B5CF2513CD
:101640002AC0941328C08091370280FD1BC0982FB8
:10165000907FC1F0F8018583903F31F0982F907F03
:10166000905F8F70892B8583C8010E94850786E073
:10167000F801A2E3B2E001900D928A95E1F70E9491
:10168000970909CF86E0F801A2E3B2E001900D923C
:101690008A95E1F700CFC8010E94E107811175CF5B
:1016A00080913702816080933702C8010E948507CC
:1016B000F2CE7A2DB98AA88A6E2D89890E94F40704
:1016C00086E0F60111928A95E9F7D9CFEE2009F468
:1016D0006BCFC8010E94E107F82E882309F464CF7C
:1016E00086E0F801A2E3B2E001900D928A95E1F75D
:1016F00082E392E00E947F040E94A609C0CF81E0AD
:101700008E25D7CEACE0B0E0E8E8FBE00C94612792
:101710004F83588769877A878B879C87CE01079686
:101720000E94FB09882369F08A859B85892B39F003
:101730004F815885842F85238F3F09F06BC016E0B9
:101740005FC086E0FE013796DE01119601900D9292
:101750008A95E1F78A859B85892B89F388859F8106
:1017600089238F3F61F32091010230E0C901019686
:1017700087709927409100024817190671F40E945A
:10178000C107109201021092000286E0E2E3F2E04B
:10179000DF011D928A95E9F7D2CF96E0929FD001A2
:1017A000939FB00D1124AE5FBD4FFE0131960190A5
:1017B0000D929A95E1F7809301020E947609BFCFBE
:1017C000819FC00111248E5F9D4F0E94FB098823D9
:1017D000E9F0E09100021E9FF0011124EE5FFD4F41
:1017E0004081518162817381848195810E94FE07CD
:1017F0008091000290E00196877099278093000203
:1018000080910002909101028913DACF2C96E3E0D7
:101810000C947D2769857A858B859C850E94FE07BF
:101820008ECF682F80910401909105010E94D01EF7
:101830000895682F80910401909105010E94DE1E99
:10184000089580910401909105010E94EC1E089575
:1018500080915802859585958595089580915802C7
:101860008770089590915802977081E009F480E0A4
:10187000089580917B02089590917B02892B80933B
:101880007B020895809590917B02982390937B0230
:10189000089510927B02089590917A02892B80938B
:1018A0007A020895809590917A02982390937A0213
:1018B000089510927A02089580915902089508952A
:1018C0000E945F0C089590910C0392FF08C09091C4
:1018D0005902981721F0809359020E94600C0895D4
:1018E00080915902882329F01092590280E00E94C9
:1018F000600C0895CF93DF93E0910401F09105010E
:1019000080917B028083E0910401F0910501808148
:1019100090917A02892B808390915902992381F0CA
:10192000E0910401F09105018081892B80838091F1
:101930000401909105010E943C1E81110E94700CCF
:10194000C0910401D091050140E250E068E372E0EB
:10195000CE010E94F227892B59F080E2FE01A8E314
:10196000B2E001900D928A95E1F7CE010E94D81D58
:10197000DF91CF91089508950E94BB0C0895909136
:101980000C0392FF11C098E0899F90011124622BF3
:10199000609358020E945008809158028595859561
:1019A00085950E94BC0C08950E94500808951092DD
:1019B000580280E00E94BC0C0895909158028095D6
:1019C000892380935802282F277091F4282F082EFE
:1019D000000C330B9217130659F090910C0392FFF1
:1019E00007C08595859585950E9460080E94D70C53
:1019F000089590910C0392FB222720F9281769F093
:101A000080FB92F990930C0380910B0390910C034F
:101A10000E94410D82E00E94DD0C089580910C032C
:101A200082FB882780F991E089270E94F90C0895AC
:101A300081E00E94F90C089580E00E94F90C08955D
:101A40006FEF7FEF90E080E00E943A28089590E0E9
:101A500080E00E94162821E0873E9E4F09F020E09A
:101A6000822F089582E090E00E940828089583E084
:101A700090E00E940828089584E090E00E941628D3
:101A80000895BC0184E090E00E943A280895AB01DB
:101A9000BC018FE090E00E942E280895AB01BC01AC
:101AA00083E190E00E942E28089560E070E0CB0171
:101AB0000E944E0D089560E070E0CB010E94470D3A
:101AC0000E94550D089567EE7EEF90E080E00E9441
:101AD0003A2860E082E090E00E941C2860E083E009
:101AE00090E00E941C281092FF011092FE0160E01D
:101AF00074E184E090E00E943A2860E086E090E0A3
:101B00000E941C286FEF87E090E00E941C2840E0B4
:101B100050E0BA0188E090E00E942E2860E08DE05D
:101B200090E00E941C2840E050E0BA0188E190E07B
:101B30000E942E2860E087E190E00E941C2840E08F
:101B400050E0BA018CE190E00E942E2870E060E045
:101B500080E290E00E943A2840E050E0BA0188E13B
:101B600090E00E942E280E945B0D08950E94630D54
:101B70000895682F8EE090E00E941C2808950E942E
:101B8000B01F60938C0270938D0280938E029093AD
:101B90008F02609388027093890280938A029093E7
:101BA0008B020895089508950E94D30D0895089515
:101BB0000E94D70D089585E790E10E94C11D0E9403
:101BC000D20D0E94D40D089581E008950E94E40D85
:101BD0000895089508950E94E90D0E94EA0D089560
:101BE0000E9491100E941E040E942D1B08950E94C5
:101BF0009B1F0E9470110E94F00D0E947D190E948F
:101C00000B180E94D80D0895AAE0B0E0EAE0FEE0CB
:101C10000C9457270E9486112EE7822E22E0922EE6
:101C2000640110E0F601E190F1906F01812F0E94B4
:101C3000B7101F5F153009F449C0E816F90691F393
:101C40008091900281FD0E94C0100E94E60D782EC6
:101C500010E0812F0E94B7107C01F401A190B19097
:101C60004F018A159B0561F100E0CC24C394D12C6F
:101C7000AE24BF24C5018C219D21892BC1F0772082
:101C8000B1F00E831F8321E0C7018C219D21892B98
:101C900009F420E028870E94A41F8160782F9A878A
:101CA00089874E815F8168858A850E944A040F5F1B
:101CB000CC0CDD1C0F30F1F6F4013297F182E0829A
:101CC0001F5F153031F60E94BF0D22C0E816F906DD
:101CD00009F0B6CF0E94A41F8C0180917C029091E4
:101CE0007D0208171907A1F08FEF89838A831B8271
:101CF0000E94A41F8160782F9D838C8349815A8123
:101D00006B818D810E944A0410937D0200937C02B6
:101D10000E943E180E942C1B0E9431042A96EDE07E
:101D20000C947327CF93DF930E94900FEC018115E1
:101D300020E59207D0F5811530E4930708F086C0BE
:101D4000803E910518F58D3C910508F07DC0883ADC
:101D5000910570F4853A910508F06EC081309105C7
:101D600001F10097F1F00497E0F4D0E0C0E019C071
:101D7000813C9105D0F7C85AD0E0CC0FDD1FC95A7D
:101D8000DE4F0990D881C02DD4640BC081159042DC
:101D900008F0A8C0C11581E0D80718F4C83ED105E5
:101DA00020F7CE01DF91CF910895803622E592078A
:101DB00010F5803432E5930708F052C08032924526
:101DC00008F047C0C11582E5D80708F47DC02C2F64
:101DD0002695269540E2249F900111248C2F837034
:101DE000C1E0D0E002C0CC0FDD1F8A95E2F7C22B24
:101DF000D32BDD68D6CF803A22E5920760F4803895
:101E000032E5930708F441C0CF71D0E0DC2FCC2736
:101E1000C46FD06AC6CF803C42E5940708F449C03D
:101E2000C03E82E5D80708F0A0CFDC2FCC27CC2716
:101E3000DF71C06FD06AB5CFC55AD0E0C757DE4F4B
:101E4000C881D0E0D064ADCFD065ABCFDF70D06AB1
:101E5000A8CFCF71D0E0DC2FCC27C16FD06AA1CF43
:101E6000282F26952695277080E2289F900111241F
:101E70008C2F8370C1E0D0E002C0CC0FDD1F8A95AB
:101E8000E2F7C22BD32BDC688CCF282F2695269522
:101E9000277040E2249F900111248370C1E0D0E0BC
:101EA00002C0CC0FDD1F8A95E2F7C22BD32BDA6874
:101EB00078CF8F710E943210C82FD0E0DC2FCC2752
:101EC000CC27DF71D0626DCF8C2F8F710E943210C2
:101ED00035E0D695C7953A95E1F7CF709C2FEC0188
:101EE000D0695FCF8D2F8F710E94321090E0982FB4
:101EF000882788279F719C012C2BE901E3CF462F6F
:101F0000753030F46F3020F4672F0E942603089557
:101F100090E080E008950E947F0F0E94920E089545
:101F200082389105B9F1B0F48133910509F47DC08F
:101F300048F48932910509F46DC08A32910509F49B
:101F40007BC008958533910509F45FC089339105FD
:101F500009F10895833E9105D9F138F4803E910549
:101F600029F1823E910579F10895863E9105D9F1D6
:101F7000873E910509F43EC0843E910541F52091CC
:101F80000C0321FF24C080910B0384FD19C087EE50
:101F900090E0089520910B03237009F05AC020911E
:101FA0000C0323FF14C089E290E0089520910B03F5
:101FB00020FD38C030910C0330FF09C024FF43C01E
:101FC00090E080E0089520910B0322FDF7CF089563
:101FD00020910B0322FD3AC030910C0330FD39C033
:101FE00024FFF5CFEDCF20910B0323FFF0CF24FD8D
:101FF000E7CFCDCF20910B0323FD2EC030910C03F2
:1020000031FFEECF84EE90E0089520910B0325FF81
:10201000DECFC9CF20910B0325FD21C020910C03F9
:1020200023FFD5CF89E390E0D2CF20910B0326FF89
:10203000CECF8AE290E0089520910B0326FFC7CF10
:1020400081E390E0089583EE90E0089582EE90E0C1
:10205000089580EE90E0089586EE90E0089585E37F
:1020600090E0089590910B0392FF06C0282F2871ED
:102070002830F9F4877F846093FF06C0282F2871E9
:102080002831F1F4877E846120910C0320FF06C083
:10209000382F38713830D9F4877F816021FF06C02E
:1020A000282F28712831D1F4877E816194FD877EA5
:1020B0000895282F24712430F9F68B7F8860DCCFB7
:1020C000282F2471243101F78B7E8861DDCF382FD2
:1020D0003171313019F78E7F8860E0CF282F217160
:1020E000213121F78E7E8861E1CF80E008950E9442
:1020F000200D08950E9486118FE39CE90197F1F766
:1021000000C000000E94861180E00E94B71080FF8E
:1021100004C00E9477100E94EF1F08950E947A1059
:1021200008950E94270D811102C00E94B60D0E94E1
:10213000320D809390020E943C0D90930C0380938B
:102140000B030E948E100E94370D90E00E9414082D
:102150008091FC019091FD010E9435080895089539
:102160000E94AF10089508950E94B3100895E82FBB
:10217000F0E0EE0FFF1FE95EFC4F80819181089532
:10218000089580EA8A95F1F7089500C008950E94A5
:10219000C1100895F894E82FE295EF70F0E031A1B6
:1021A000282F2F7081E090E001C0880F2A95EAF770
:1021B000982F9095932391A392A1892B82A3789431
:1021C00008950F931F93CF93DF93CBE9D1E08991CB
:1021D0008F3F11F00E94CA1081E0C03AD807B9F7CA
:1021E000CCE8D1E00BE911E089918F3F11F00E941A
:1021F000CA100C171D07C1F7DF91CF911F910F91E6
:102200000895AF92BF92DF92EF92FF920F931F93C8
:10221000CF93DF938C01D62EC62FD0E0CE0185560A
:102220009E4F7C01FC0120812F3F09F44CC0F894A3
:10223000E22FE295EF70F0E031A12F7081E090E0A5
:1022400001C0880F2A95EAF7932F982B91A392A1AA
:102250008095892382A378940E94C510ECE8F1E070
:1022600041E050E0B12CA12C21912F3FB1F1A22FE0
:10227000A295AF70B0E090968C9190E02F7002C064
:10228000959587952A95E2F780FD27C0CA01A82A6F
:10229000B92A440F551F81E0EB39F80729F7F701F8
:1022A00080818F3F11F00E94CA1061E0A114B10437
:1022B00009F460E08D2D0E94C710CC0FDD1FC00F08
:1022C000D11FB982A882DF91CF911F910F91FF900A
:1022D000EF90DF90BF90AF90089590E080E0D7CF6F
:1022E0000E94E1108AE0E7E1F3E0DF01982F1D9200
:1022F0009A95E9F7EDE0F3E0DF011D928A95E9F7A1
:1023000085E00E94C1110E9478030895AAE0B0E020
:10231000ECE8F1E10C945F278E010F5F1F4F8AE01C
:10232000F80111928A95E9F7F12C6F2DC8010E94EE
:102330000111F394F5E0FF12F8CF4AE050E0B80144
:102340008DE093E00E94F22721E0009709F420E05D
:10235000892B41F08AE0F801ADE0B3E001900D92E5
:102360008A95E1F745E067E173E08DE093E00E9434
:10237000C211182F0E947B03812F2A96E5E00C944E
:102380007B270895CF92DF92EF92FF921F93CF9316
:10239000DF936C017B01C42F222349F081E08093FD
:1023A00093020E94A41F9093920280939102109135
:1023B000930211110AC010E0812FDF91CF911F917C
:1023C000FF90EF90DF90CF900895809191029091CF
:1023D00092020E94BC1F059770F3D0E0CC0FDD1F66
:1023E000AE01B601C7010E94F227892B41F0AE0170
:1023F000B601C7010E94FF2710929302DDCF10E0C3
:10240000FBCF0E9482210E94F70D0E948F21089528
:102410000E9494210E94040E0E94AE2108950E9401
:102420003D1F0E9468210E94DB0D0E9401120E9444
:1024300008120E94EB0DFBCFEF92FF920F931F93B8
:10244000CF93DF93EB01E82FD1110EC0442321F08D
:10245000F0E0E857FC4FE4916E2F7E2F8E2FCDB722
:10246000DEB7E6E00C947A270D2F10E0282F30E03D
:10247000442329F028573C4FF901249130E0F6E03D
:10248000CF9FC0011124EFEFF0E0BF010E94D126E1
:10249000AB018C2F90E0880F991FA5E5A49FB00198
:1024A000A59F700D1124861B970B982F990F980FDD
:1024B000BF01601B710B629FD001639FB00D729FC3
:1024C000B00D11248B2F9D9FB0011124672F77270A
:1024D000EF01C61BD70BBE01629FE001639FD00DC9
:1024E000729FD00D11247F01E91AF108E09EB0011E
:1024F000E19E700DF09E700D1124672F7727E61B6B
:10250000F70BE29F8001E39F100DF29F100D112445
:10251000E12F722F4230510599F048F441155105D1
:1025200069F04130510581F0EB2F8D2F07C0443009
:10253000510569F080F046305105B1F76E2F8FCF0D
:10254000E22F7B2F812FFACFE22F7D2FF7CFEB2FBA
:10255000822F712FF3CF7B2F822FED2FEFCF41E012
:102560000E941C12089508950E94AF120895CF93FF
:10257000DF93762FE901682F842F0E94B4127983AC
:1025800068838A83DF91CF91089580912103982FEA
:102590009E7F29F48170826080932103089586359F
:1025A000E8F381708465F8CF88E090E00E941028FD
:1025B0000895CF92DF92EF92FF926B017C010E940F
:1025C000C512B701A60188E090E00E942E28FF9076
:1025D000EF90DF90CF900895E1E2F3E083E0808315
:1025E00011828FEF82838383148260817181828163
:1025F00093810E94D91208958091210380FF02C027
:102600008695089580E0089590912503933018F4FD
:102610009F5F90932503882351F06091210370916F
:10262000220380912303909124030E94D9120895DC
:1026300081E00E940413089590912503992319F0D5
:10264000915090932503882351F06091210370915C
:10265000220380912303909124030E94D9120895AC
:1026600081E00E941C13089570E00E943E1B0895B3
:1026700060910A018091210380FF0BC080910901C4
:1026800023E0829FC00111248A5D9C4F0E94341375
:10269000089580910B0190910C0123E0829FF0013D
:1026A0001124EA5DFC4F891748F7118210821282CB
:1026B0008F5F3396F8CF9091210390FF0EC09091D9
:1026C0000B0120910C0133E0939FF0011124EA5D8E
:1026D000FC4F921718F00E9438130895818360838D
:1026E00042839F5F3396F5CFA3E0B0E0EAE7F3E1E2
:1026F0000C9462279091210390FF0AC09E012F5FE6
:102700003F4F0E94B7124B8169818A810E945B13FF
:102710002396E2E00C947E27CF93DF93EC01EC81CB
:10272000F0E0ED57FD4F4491E1E2F3E062818181F9
:102730000E9474138C818F5F8C83DF91CF910895F9
:10274000CF93DF93EC01E1E2F3E0438162818C817E
:102750000E9474138C818F5F8C83DF91CF910895D9
:10276000A3E0B0E0E6EBF3E10C9460278C018091EC
:10277000940281110AC09E012F5F3F4F4FEF6FEF10
:102780000E94B7128A8180939402F80164816130BB
:1027900069F08091940240E0662361F040E062308D
:1027A00011F44091940280E060E004C060919402D2
:1027B00040E080E00E945B13F801848190E0019684
:1027C00063E070E00E94E52684832396E4E00C94A5
:1027D0007C27A3E0B0E0EFEEF3E10C945B27082F39
:1027E000D62EE42EC22E9091210390FF29C0E92F0E
:1027F000E695AE2FB0E0A056BE4F8C918093DA02E2
:102800009E7F923009F59E012F5F3F4F802F0E94DF
:10281000B7124B8169818A810E945B130093220366
:10282000D0922303E0922403CC2051F06091210345
:102830007091220380912303909124030E94D91266
:102840002396E9E00C947727823019F4E090240372
:10285000E5CF863019F400912203E0CF8930D9F317
:102860008931E1F6E9516E2F6170B62EE695F0E000
:10287000ED57FC4F1491F12C60910D01F61618F0F4
:102880000E943813CBCFF19EC001112470E00E944A
:10289000D126802FB11014C0860F20910B01622F1A
:1028A0006F0D7727771F9B01220F331F260F371FCE
:1028B0002A5D3C4F4E2D6D2D0E94B712F394DCCF54
:1028C000861BEBCFE1E2F3E09181282F4381628107
:1028D00088E0890F0E94E913089581E00E94621444
:1028E0000895E1E2F3E09181282F4381628188EF2E
:1028F000890F0E94E913089581E00E9471140895E0
:10290000E1E2F3E0628128E0620F08F46FEF282F24
:10291000438181810E94E913089581E00E9480141F
:102920000895E1E2F3E0628128E0621B08F460E0D0
:10293000282F438181810E94E913089581E00E943C
:1029400091140895E1E2F3E0438128E0420F08F496
:102950004FEF282F628181810E94E913089581E061
:102960000E94A2140895E1E2F3E0438128E0421BB3
:1029700008F440E0282F628181810E94E9130895C4
:1029800081E00E94B314089520E00E94E9130895A5
:10299000EF92FF921F93CF93DF93EC0110E0EE24B0
:1029A000EA94F12C60910D01161770F00E94381313
:1029B0009A818C8190FF27C08F5F8C83DF91CF91AC
:1029C0001F91FF90EF90089520910B01422F410F2E
:1029D0005527551FCA019A01220F331F280F391F8F
:1029E0002A5D3C4F70E0C7010E94E526962F8C813E
:1029F0004091240360912303199F800D11240E94AC
:102A0000B7121F5FCFCF8150D8CFB0E0A0E0EBE08E
:102A1000F5E10C945A27FC0182810FEF80FF01E061
:102A200010E04CE0A42E80910D01181798F00E9440
:102A3000381380919602013009F04FC0811102C015
:102A400080910D01815080939602CDB7DEB7EAE008
:102A50000C947627C0910B01C12ED12CCC0DDD2D0D
:102A6000D11DCE01880F991FC80FD91FCA5DDC4F39
:102A7000198218821A8234E0E32EF12CB12C809155
:102A800096028B0D8D301CF16A2D0E94C326892F72
:102A9000082E000C990BC816D90691F480912403D6
:102AA0008E9DA0018F9D500D1124559547955595EC
:102AB00047959E0160912303809122030E94B712E3
:102AC000B00EF1E0EF1AF108D1F61F5FACCF87FF2F
:102AD000DFCF90910D01890FDBCF90E001966091DF
:102AE0000D0170E00E94E526AECF0F931F93CF93A8
:102AF000DF9380910B0190910C0123E0829FF00104
:102B00001124EA5DFC4F891740F1C0E0D3E06091E9
:102B10000D01C61740F10E943813209107018091E2
:102B20009502820F8093950290910801920F9093E5
:102B30000801191654F4082E000C990B40910D0150
:102B40004150550B841795071CF0219520930701E0
:102B5000DF91CF911F910F910895118210821282FF
:102B60008F5F3396D0CF0C2F10E070E0C8010E9429
:102B7000E52620910B01820F482F50E0209195020D
:102B8000022E000C330B02171307BCF02091080132
:102B9000022E000C330B201731077CF08D9F900123
:102BA00011242A5D3C4F40912403609123038091BE
:102BB00022030E94B712CF5FAACFFA01EE0FFF1FC8
:102BC000E40FF51FEA5DFC4F118210821282F3CFF1
:102BD000B0E0A0E0EEEEF5E10C945827EC014C815A
:102BE000042F10E09801D8010E9429279B01AC0115
:102BF0000E943F274B015C01E0E2F0E0E01BF10B9B
:102C0000A5E5B0E0AC019B010E943F276B017C0170
:102C10009F01DF010E9421279B01AC010E944A27EE
:102C20009B01AC01280D391D4A1D5B1DC701B60172
:102C30000E94F926F22E822F90E039E23F1520F112
:102C400043E0249F9001112435952795122F10956C
:102C500000E085E5E82EEF1880910D01081718F1C6
:102C60000E9438139C8181E0992319F0903219F465
:102C70008FEF8093060180910601890F8C83CDB779
:102C8000DEB7ECE00C94742725E530E0B901681B51
:102C9000790B9B01220F331F260F371F37FFD4CF2D
:102CA0002F5F3F4FD1CF8E2D01FD8F2D20910B0136
:102CB000622F600F7727771F9B01220F331F260F8C
:102CC000371F2A5D3C4F412F609123030E94B712AA
:102CD0000F5FC2CF0F931F93CF93DF93EC0110E0F0
:102CE00000E090910D019017110609F06CF40E941C
:102CF00038138C8190E00196817099278C83DF9145
:102D0000CF911F910F91089520910B01A801420FBF
:102D1000511D9A01220F331F240F351F2A5D3C4F8E
:102D20004C816091230380912203969590171106A0
:102D300051F04CF0442349F0409124030E94B71213
:102D40000F5F1F4FCECF4423B9F340E0F7CFB0E081
:102D5000A0E0EDEAF6E10C945427FC016280448087
:102D600081E08483E3E8F2E07490E2E0F3E0E49150
:102D7000C0912403C695C158D0E0CC0FDD1FCD2FE4
:102D8000DD27812C75E0972EAA24AA94B12C552416
:102D90005A94E719EE2EF12C80910D01881638F027
:102DA0000E943813CDB7DEB7E0E10C947027C82C31
:102DB000D12C82E0861568F09C9CF0019D9CF00D62
:102DC0001124E956FD4F80912203808380912303D3
:102DD0008183411023C09C9CF0019D9CF00D112427
:102DE000E956FD4F1382128220910B01C601820F1A
:102DF000911D9C01220F331F280F391F2A5D3C4F64
:102E00009C9CF0019D9CF00D1124E956FD4F4281E0
:102E1000618180810E94B7128394BECF9C9C800107
:102E20009D9C100D112409561D4FF80183818823A4
:102E3000F1F081508383859DC0011124648170E08D
:102E40000E94D126FB01FF27ED57FD4F8491E82F0B
:102E5000E719E59DC0011124B7010E94D126809198
:102E60002403689FB0011124F8017283BDCF0E9432
:102E7000D527B5010E94E5268C179D070CF0B4CF2D
:102E8000F2E0F61598F40E94D527B5010E94E526D8
:102E9000F80180830E94D527209123032695622F75
:102EA00070E00E94E526280FF80121839C9CF00128
:102EB0009D9CF00D1124E956FD4F12828091240350
:102EC000893C58F088EC9C9CF0019D9CF00D1124ED
:102ED000E956FD4F8483838387CF8431A0F784E153
:102EE000F2CFE1E2F3E080818E7F808360817181A7
:102EF000828193810E94D9121092DB020E943813C2
:102F0000089560912103669570E04BE050E08EE0FB
:102F100091E00E94E527892B19F481E08093DB0280
:102F20000E94A41F9093D4028093D302089590919D
:102F3000210390FF2BC09170811129C09260909362
:102F40002103662351F06091210370912203809147
:102F50002303909124030E94D91260912103669566
:102F600070E04BE050E08EE091E00E94E527892B75
:102F7000A9F01092DB0281E08093D60240912403F5
:102F800060912303809122030E94C41408958B3220
:102F900010F09465D4CF880F982BD1CF0E94811761
:102FA000EACF682F90912103969581E0890F8B32AB
:102FB00008F081E00E949717089581E00E94D117E0
:102FC0000895682F9091210396958FEF890F09F44A
:102FD0008AE20E949717089581E00E94E117089500
:102FE00061E00E9497170895E1E2F3E0808181603B
:102FF000808386950E94F01708958091210380FFB9
:1030000003C00E94711708950E94F417089560E0AC
:103010000E94971708958091D90281112EC00E94B5
:10302000270D811104C00E94B60D0E94EC120E946F
:10303000D41260932103709322038093230390930F
:1030400024036E7F61F40E94EC120E94D4126093FC
:1030500021037093220380932303909324030E94FF
:10306000C5121092DB028091210380FF03C0869578
:103070000E94071881E08093D90208950F931F934F
:10308000CF93DF938091DB028823B9F18091DA023C
:10309000E0912103E695E81BE093D502823091F59B
:1030A000F0E0E158FD4FE491CE2FD0E00CE813E1C1
:1030B0008091D602882361F01092D6020E94A41F4C
:1030C0009093D4028093D3021092D8021092D70228
:1030D0000E94A41FE091D302F091D4028E1B9F0B9B
:1030E0008F3F9F4750F4EC0FFD1FF093D402E09305
:1030F000D30283ED92E0F8010995DF91CF911F9102
:103100000F910895863049F4F0E0E458FD4FE491C2
:10311000CE2FD0E000EA13E1CBCF893051F4E69511
:10312000F0E0E758FD4FE491CE2FD0E008EC14E139
:10313000BFCF8F3051F4E695F0E0EA58FD4FE491AF
:10314000CE2FD0E005E015E1B3CF853149F4F0E0B2
:10315000ED58FD4FE491CE2FD0E005E715E1A8CF63
:10316000C8E2D0E008EE15E1883109F4A1CF83323E
:1031700039F4E1E7F2E0C591D49100EB13E198CF87
:10318000C4EFD1E00AE616E1843209F491CFC0ED34
:10319000D7E003EB12E1853209F08ACF8E2F63E08E
:1031A0000E94B726E92FF0E0E259FD4FE491CE2FBF
:1031B000D0E007EA16E17CCFFA01811101C0FB01E2
:1031C00009950895CF93DF93C82FD62F0E94FC1244
:1031D0008C1748F00E94FC128D1728F40E94DD170E
:1031E000DF91CF9108958C2F0E94F017F9CF1F9394
:1031F000CF93DF93EC01FB011281111110C00E94EB
:10320000390C8272FE01E052F847E531F10508F011
:103210005EC0E358F74D0C941B270E94FD17812FC9
:10322000DF91CF911F9108954CEE57E16DED77E15D
:103230000E94DC18F4CF4DED57E16CEE77E1F8CF4A
:103240004CE754E16DE674E1F3CF4DE654E16CE7F1
:1032500074E1EECF4EE954E16DE874E1E9CF4DE859
:1032600054E16EE974E1E4CF40EC54E16FEA74E1BB
:10327000DFCF4FEA54E160EC74E1DACF40E353E191
:1032800068E173E1D5CF48E153E160E373E1D0CF6A
:1032900081E00E94F017C3CF65E082E00E94E2184F
:1032A000BECF68E086E0FACF6EE089E0F7CF64E158
:1032B0008FE0F4CF67E185E1F1CF88E1EACF62E208
:1032C00089E1ECCF83E2E5CF6AE285E2E7CF11E066
:1032D000A6CF86E090E00E9408280895682F86E037
:1032E00090E00E941C280895EAE4F3E08081847055
:1032F000896280830E946E1908950E94270D8111B2
:1033000004C00E94B60D0E9474190E94691980932E
:103310004A03803320F08770886280934A0390913B
:103320004A03892F817090FF04C0892F8695869566
:1033300086950E94861A089580914A03982F969543
:1033400096959695953040F49F5F990F990F990F38
:103350008770892B80934A0380914A038160809310
:103360004A030E946E1980914A0386958695869538
:103370000E94861A089580914A03982F987F79F0C9
:10338000885080934A03887F91E009F490E080910F
:103390004A0390FB80F980934A030E946E19809142
:1033A0004A038695869586950E94861A089580918F
:1033B0004A0380FD13C0816080934A03813019F471
:1033C00089E080934A0380914A030E946E1980919C
:1033D0004A038695869586950E94861A089580915F
:1033E0004A0380FF08C08E7F80934A030E946E19B3
:1033F00080E00E94861A089580914A0380FF03C0EE
:103400000E94EF1908950E94D719089590914A03D8
:10341000892F8695869586958F5F8F7197708630F8
:10342000E0F4880F880F880F892B80934A038091DE
:103430004A03887F91E009F490E080914A0390FB71
:1034400080F980934A030E946E1980914A03869501
:10345000869586950E94861A089590934A03E7CF31
:10346000863008F085E090914A039770282F220F4C
:10347000220F220F922B90934A03987F21E009F4A8
:1034800020E090914A0320FB90F990934A030E9418
:10349000861A08950E94301A80914A030E946E197C
:1034A00008959C01FB018281882349F12230F8E7CD
:1034B0003F07F9F040F42115E8E73E0769F02130B5
:1034C000384779F00895243098E7390779F058F0B3
:1034D0002530384789F0089585E00E944A1A80E037
:1034E000089580E0FACF0E94BB19F9CF0E949C1981
:1034F000F6CF0E94FC19F3CF0E94061AF0CF81E0AC
:103500000895279A2F9808952F9808958F929F9243
:10351000AF92BF92EF92FF920F931F93CF93DF93DF
:10352000C82F8630C0F5811137C080918000877F19
:10353000809380000E94841AA0918600B091870039
:103540002C2F30E00E94292725E030E040E050E0B9
:103550000E94F92689019A01809186009091870046
:103560006CE070E00E94D12660177107D8F0C801A6
:1035700069E070E00E94D12670938D0060938C000A
:10358000DF91CF911F910F91FF90EF90BF90AF907F
:103590009F908F900895C5E080918000886080930F
:1035A0008000CACF8091860090918700E0908600CD
:1035B000F0908700E0918600F0918700C6E0D0E0AF
:1035C000BE010E94D126060F171F211D311D480183
:1035D000590185E0880C991CAA1CBB1C8A95D1F75F
:1035E000C701BE010E94D1269F0150E040E0260F96
:1035F000371F411D511DC501B4010E94F926490123
:103600005A01E0918600F0918700CA01B9010E9439
:10361000A7269B01AC01DF010E943F279B01AC0163
:10362000C501B4010E94A7262FE09695879577954E
:1036300067952A95D1F7009186001091870030E0B8
:1036400020E0061717072807390708F095CF609183
:1036500086007091870090CF08950E94811A8AE0B9
:103660008093800089E1809381008FEF9FEF90939A
:103670008700809386000E947D1908956A9A4EB152
:103680004B7F5EB15460EFB7F8949B01220F331F5C
:10369000260F371F280F391F2817390741F4EFBFAE
:1036A0008FE594E00197F1F700C000000895DC0178
:1036B0006D91CD0178E05EB9000000C067FF4EB9A2
:1036C000660F000000C000C000C04EB900C07A956F
:1036D00091F7E2CFCF93DF93EC01FB018281882346
:1036E00009F4D2C09E0130572332310508F0B2C030
:1036F0000E943C0D90930C0380930B03FE01E1505C
:10370000F047E232F10520F4EE56F74D0C941B27FA
:1037100080910B03816080930B0393C080910C0315
:10372000886080930C038DC080910B038260F3CF7F
:1037300080910B038460EFCF80910B038860EBCF07
:1037400080910C038160EDCF80910C038260E9CF02
:1037500080910B038061DFCF80910B038062DBCF10
:1037600080910B038064D7CF0E94C10780910B0327
:103770008068D1CF80910B038C60CDCF80910C03FA
:103780008360CFCF80910B038E7FC5CF80910C03D8
:10379000877FC7CF80910B038D7FBDCF80910B03B7
:1037A0008B7FB9CF80910B03877FB5CF80910C03BE
:1037B0008E7FB7CF80910C038D7FB3CF80910B03A9
:1037C0008F7EA9CF80910B038F7DA5CF80910B03B6
:1037D0008F7BA1CF0E94C10780910B038F779BCF76
:1037E00080910B03837F97CF80910C038C7F99CFBF
:1037F00080910B0382FB992790F921E0922790FB9F
:1038000082F990FB83F987CF80910C03982F9095D4
:1038100091708E7F892B90FB81F983CF90910B0360
:10382000892F8F7B96FF806476CF0E94C10790918D
:103830000B03892F97FB87F980586DCF81E00E9499
:10384000B90D80910B0390910C030E94410D0E94D1
:10385000C10780E0DF91CF91089580E0F0CF909193
:103860000B03892F8F7E94FF806155CF90910B03BE
:10387000892F8E7F90FF81604ECF90910C03892F0E
:10388000877F93FF88604DCF81E0E4CFEBEFE80FB7
:10389000EF3308F066C0F0E0EC54F74D0C941B27B2
:1038A0000E94B60D81E0089580919002807F809300
:1038B000900281E08093DC0208950E948D03F2CF94
:1038C00090919002892F8E7F90FF8160809390026B
:1038D00080FDE8CF817F80939002E4CF90919002A9
:1038E000892F8D7F91FF82608093900281FFDACFD4
:1038F000809190028160EFCF90919002892F8B7F11
:1039000092FF84608093900282FDF2CFCBCF9091A2
:103910009002892F877F93FF88608093900283FDB8
:10392000E7CFC0CF0E94C10790910B03892F97FB6F
:1039300087F9805880930B03B5CF81E090E00E9417
:1039400014080E94C107AECF895321E030E0A901DD
:1039500002C0440F551F8A95E2F7CA01F0CF8D517E
:10396000F4CF80E0089580E008950E94B31C08958C
:10397000CF93C82F8091DC02882331F0813099F0F9
:103980001092DC0280E00DC00E94390C8232D1F727
:103990008C2F0E94B31C811116C08C2F0E94461CD4
:1039A0008170CF9108950E94390C823289F38C2F57
:1039B0000E94B51C811105C0C43171F038F4CB30C0
:1039C00079F781E0EDCF81E090E0EACFC93221F0D4
:1039D000C833B9F380E0E4CF1092DC02FBCFCF9381
:1039E000DF93EB0186319C4711F50E94390C9A81D7
:1039F000992399F08A7A91E009F490E09093DD029E
:103A0000811109C089E20E94110C0E947A0C80E0A9
:103A1000DF91CF91089585E3F6CF8091DD0281118A
:103A200004C089E20E94190CF0CF85E3FBCF81E04E
:103A3000EFCF0F931F93CF93DF93C42FD22FFC01AF
:103A400082818823C9F04093E0020E94A41F9093D2
:103A5000DF028093DE0280E28C0F883040F4C77072
:103A600081E001C0880FCA95EAF70E946D05DF91D9
:103A7000CF911F910F9108951091E002141332C05D
:103A80008091DE029091DF020E94BC1F883C91056C
:103A900048F5C0E2CD0F1D17B9F080E2810F8830E4
:103AA00040F4177081E001C0880F1A95EAF70E9470
:103AB0007405C83048F481E09D2F977001C0880FCD
:103AC0009A95EAF70E946D05802F0E946405C83020
:103AD00070F6D77081E001C0880FDA95EAF70E948E
:103AE0007405C5CF80E28C0F883008F6C77081E07E
:103AF00001C0880FCA95EAF7F2CF0F93DB01885116
:103B00009C4787309105A0F5FC01ED50F74D0C94D2
:103B10001B2706E221EE41EE6AE17CE7CD010E941F
:103B2000191D80E00F91089507E225EE45EE6BE147
:103B30007CE7F4CF06E221EE40EE68E17CE7EECFD1
:103B400007E225EE44EE69E17CE7E8CF06E221EEEC
:103B500042EE6CE17CE7E2CF07E225EE46EE6DE156
:103B60007CE7DCCF08E221E045EE6EE17CE7D6CFD2
:103B700012968C91882319F01092E002D3CF81E045
:103B8000D1CF9093CD018093CC0108959093E6021C
:103B90008093E5020895E091E502F091E602309706
:103BA00029F00190F081E02D0995089580E00895B5
:103BB000E091E502F091E602309799F02091210121
:103BC000222359F020910B0327FF07C0DC012C9121
:103BD00011962C93119726E02C930280F381E02D0F
:103BE00009950895A3E0B0E0E8EFFDE10C946227A9
:103BF0002091E3023091E40228173907A1F0909355
:103C0000E4028093E302E091E502F091E60230974E
:103C100051F023E029839B838A830680F781E02D7E
:103C2000CE01019609952396E2E00C947E27A3E04D
:103C3000B0E0EDE1FEE10C9462272091E1023091C9
:103C4000E20228173907A1F09093E2028093E10283
:103C5000E091E502F091E602309751F024E02983EB
:103C60009B838A830680F781E02DCE01019609951A
:103C70002396E2E00C947E27FC013296809121018C
:103C8000882321F080910B039EE187FF96E080E07E
:103C9000915008F4089521912223D1F38F5FF8CF3A
:103CA000662301F1209121012223F1F020910B03E1
:103CB00027FF1AC0462F4695469546954E3190F4FB
:103CC000677021E030E002C0220F331F6A95E2F7EF
:103CD000840F911DFC01828190E02823392381E02B
:103CE000232B69F480E00895FC0132960896219117
:103CF000261721F0E817F907D1F7F4CF81E00895EE
:103D00009C01FC0132969FEF80E04191461751F0F3
:103D10009F3F19F4411101C0982F8F5F8630A9F79A
:103D20009F3F09F40895290F311D97FD3A95F90138
:103D300062830895FC01329608962191261303C0F0
:103D4000DF0111971C92E817F907B9F70895E62FDC
:103D5000E695E695E695EE3168F4E80FF92FF11D4A
:103D6000677021E030E001C0220F6A95EAF7828196
:103D7000822B82830895E62FE695E695E695EE314F
:103D800070F4E80FF92FF11D677021E030E001C0F9
:103D9000220F6A95EAF720958281282322830895CD
:103DA00020912101222339F020910B0327FF03C02A
:103DB0000E94A71E08950E94801E0895209121014F
:103DC000222339F020910B0327FF03C00E94BB1E62
:103DD00008950E949A1E0895FC0132968091210157
:103DE000882351F080910B0387FF06C08EE1DF012D
:103DF0001D928A95E9F7089586E0F9CF08950E940B
:103E0000FE1E0895811106C081E08093E7020E94A2
:103E1000FF1E089582E0F9CF83E08093E7020E94BD
:103E2000FF1E08950E94021F089581E08093E7021B
:103E30000E94FF1E08950E94151F08950895089579
:103E40000E941F1F0895089508950E941E1F08953F
:103E5000CF930E94231F0E9486110E94241FC0E05E
:103E60008C2F0E94B710892B31F4CF5FC530C1F77A
:103E700080E0CF91089581E0FCCF85B7806885BF51
:103E800085B7806885BF08951F921FB61F921124C1
:103E90008F939F93AF93BF938091E802811113C0DA
:103EA00080914B0390914C03A0914D03B0914E0330
:103EB0004196A11DB11D80934B0390934C03A09399
:103EC0004D03B0934E03BF91AF919F918F911F907F
:103ED0001FBE1F90189580915303843031F10E94CA
:103EE000F9031092E80288E190E020E40FB6F8941C
:103EF000A895809360000FBE2093600083B7817FF8
:103F0000846083BF83B7816083BF7894889583B7CB
:103F10008E7F83BF0FB6F894A8958091600088616A
:103F200080936000109260000FBE08950E94C10748
:103F30000E940104089582E084BD93E095BD9AEF4C
:103F400097BD80936E0008952FB7F89480914B032E
:103F500090914C03A0914D03B0914E032FBF089553
:103F60002FB7F89460914B0370914C0380914D03EF
:103F700090914E032FBF08959C014FB7F894809104
:103F80004B0390914C03A0914D03B0914E034FBF52
:103F9000821B930B089578941F921FB61F921124D1
:103FA0008F939F93AF93BF9380914B0390914C035A
:103FB000A0914D03B0914E030196A11DB11D8093B8
:103FC0004B0390934C03A0934D03B0934E03BF91CA
:103FD000AF919F918F911F901FBE1F90189581E008
:103FE0008093E00080E28093D8001092C9008FE1B6
:103FF0009EE40197F1F700C0000087E090EBDC0140
:1040000080935C0390935D03A0935E03B0935F0382
:1040100088E19CE00FB6F894A895809360000FBEED
:1040200090936000FFCF88E19CE00FB6F894A895CC
:10403000809360000FBE90936000FFCF80910903D2
:10404000089508959B01BA01909153039430E9F4C7
:104050008F708093E9009FEF8091E800915085FD7B
:1040600006C085ED8A95F1F700009111F5CF80919A
:10407000E80085FF0AC050E040E0C9010E9420220C
:104080008091E8008E778093E800089543E050E047
:10409000BC0182E00E9422200895CF93DF93EC01BF
:1040A00080912101811111C048E050E0BE0181E002
:1040B0000E94222080E2FE01A9EEB2E001900D9262
:1040C0008A95E1F7DF91CF91089580910B0387FFE7
:1040D00005C040E282E050E0BE01EACF48E081E066
:1040E000FACF80915203811109C00E94B0230E942F
:1040F0000D248091E20084608093E2000895109284
:10410000520308950E94151F089560914F0381E0A6
:10411000611101C080E00E940C1F0895909153032B
:1041200081E0943009F080E060914F030E94121FFB
:10413000089542E061EC81E00E942C2342E261ECB0
:1041400082E00E942C239091530381E0943009F087
:1041500080E060914F030E94021F089580915503F3
:10416000833009F461C030F48130D1F1823009F438
:104170009EC008958A3009F48AC08B3009F46FC05C
:10418000893009F050C080915403813209F04BC04E
:104190008091580390915903029708F044C0809190
:1041A000E800877F8093E8008091E80082FF37C0B5
:1041B0009091F3008091F200029731F48091F10028
:1041C000813011F0863021F48091F1008093090351
:1041D0008091E8008B778093E8000E94602323C0E1
:1041E00080915403813AF9F48091E800877F8093AD
:1041F000E8008091580390915903892B61F460E2A3
:1042000089EE92E070E00E946F228091E8008B7747
:104210008093E800089560E090E080E0F3CF809123
:1042200053038111C1CF089580915403813AD9F786
:104230008091580390915903892BA9F78091E80048
:10424000877F8093E8008091E80080FFFCCF809119
:1042500021018093F1008091E8008E77BCCF80919E
:104260005403813201F78091580390915903892BAF
:10427000D1F68091E800877F8093E8000E94602358
:1042800080915603809321010E94C1070895809177
:104290005403813241F68091E800877F8093E800E3
:1042A0000E9460238091570380930A0308958091B0
:1042B0005403813A09F0B7CF8091E800877F80935B
:1042C000E8008091E80080FFFCCF80910A03C1CF15
:1042D00084B7877F84BF0FB6F894A895809160005B
:1042E000886180936000109260000FBE80E890E0CB
:1042F0000FB6F89480936100909361000FBE0E9406
:104300001B1F08950E94B0230E940D24E2EEF0E0EE
:1043100080818460808378940E948C26089589E14E
:1043200091E00E94C61D089580915303853031F4B9
:1043300080915303853019F00E94961F08950E94C2
:104340006B1F80915103882399F30E94281F8823B3
:1043500079F30E940A220E94C107EACF08950E94C1
:10436000B2210895292F33272330310519F168F43C
:104370002130310509F444C02230310509F445C02B
:1043800090E080E030E020E025C02132310549F1A5
:1043900022323105A9F780E490E020E635E061158E
:1043A0007105C1F08DE690E023EF34E061307105D6
:1043B00089F0E6CF99278130910581F0009729F0A7
:1043C0000297F1F6E8E8F4E002C0E2EAF4E0849152
:1043D00090E09F01FA01318320830895E6E9F4E03B
:1043E000F6CF89E090E028EB34E06115710591F398
:1043F00089E090E021ED34E06130710559F3C0CFE0
:1044000082E190E021EE34E0E5CF8BE390E026EA14
:1044100034E0E0CF80E189BD82E189BD09B400FECE
:10442000FDCF8091D8008F7D8093D8008091E000EF
:1044300082608093E0008091E00081FDFCCF0895D0
:10444000AF92BF92CF92DF92FF920F931F93CF93C1
:10445000DF936C01EB018A010E947F23F82E81110A
:1044600023C00115110539F0F80180819181C81B25
:10447000D90BC80ED91EB12CA12C2097A9F0809180
:10448000E80085FD22C08091E8008E778093E800E7
:1044900001151105A1F0F80180819181A80EB91EC6
:1044A000B182A08285E0F82E8F2DDF91CF911F91F0
:1044B0000F91FF90DF90CF90BF90AF9008950E9432
:1044C0007F238823D1F2F82EEFCFF60181916F017F
:1044D0008093F1002197FFEFAF1ABF0ACECFFC0106
:1044E00080915A0390915B0386179707A0F061159E
:1044F000710529F49091E8009E779093E80090E090
:104500006115710551F4911108C08091E80082FF96
:1045100034C080E00895BC01F2CF8091530388231A
:10452000C1F18530C1F18091E80083FD30C08091F8
:10453000E80082FDEACF8091E80080FFE1CF809122
:10454000F3002091F200382F6115710519F0283021
:10455000310558F091E02830310509F090E02091C4
:10456000E8002E772093E800CBCF81918093F10073
:10457000615071092F5F3F4FE7CF8091530388232C
:1045800041F0853041F08091E80083FFBECF81E0AB
:10459000089582E0089583E00895FC0180915A0314
:1045A00090915B0386179707A0F06115710529F4B8
:1045B0008091E8008E778093E80090E061157105A6
:1045C00051F4911108C08091E80082FF35C080E06D
:1045D0000895BC01F2CF809153038823C9F185303F
:1045E000C9F18091E80083FD31C08091E80082FD2F
:1045F000EACF8091E80080FFE1CF8091F300209125
:10460000F200382F6115710519F02830310558F086
:1046100091E02830310509F090E08091E8008E7734
:104620008093E800CBCF84918093F1003196615064
:1046300071092F5F3F4FE6CF80915303882341F0EC
:10464000853041F08091E80083FFBDCF81E008957F
:1046500082E0089583E00895982F973028F08F70B6
:104660008093E90081E008959093E900242F762F4C
:1046700050E0981731F07091EC002091ED005091CE
:10468000F00021FD02C09F5FE8CF3091EB003E7F3C
:104690003093EB003091ED003D7F3093ED00309191
:1046A000EB0031603093EB007093EC002093ED0051
:1046B0005093F0002091EE0027FDE5CF80E00895B3
:1046C0008091540387FF13C08091E80082FF06C0E9
:1046D0008091E8008B778093E80004C080915303B9
:1046E0008111F2CF0895809153038823D9F38091EB
:1046F000E80080FFF8CF8091E8008E77ECCF209122
:10470000E4003091E50095E6A9012091EC00822FAC
:10471000817020FF06C08091E80080FF06C080E025
:1047200008952091E80022FD1AC080915303882348
:1047300089F0853089F08091EB0085FD0FC02091D4
:10474000E4003091E50042175307F9F29150E1F689
:1047500084E0089582E0089583E0089581E008955B
:104760000E941F240E942724E0EEF0E080818160F7
:104770008083E8EDF0E080818F77808319BCA7ED1E
:10478000B0E08C918E7F8C9380818F7E808310929D
:10479000520308950F931F93CF93DF930E941F241A
:1047A0000E942724C8EDD0E088818F778883888194
:1047B0008068888388818F7D888319BC1092530319
:1047C00010924F03109251031092500300EE10E02C
:1047D000F80180818B7F808388818160888342E0BB
:1047E00060E080E00E942C23E1EEF0E080818E7F8B
:1047F0008083E2EEF0E08081816080838081886048
:104800008083F80180818E7F8083888180618883A6
:10481000DF91CF911F910F910895E8EDF0E0808135
:104820008F7E8083E7EDF0E080818160808384E08B
:1048300082BF81E0809352030E94CA230895E8ED6D
:10484000F0E080818E7F80831092E20008951092C4
:10485000DA001092E10008951F920F920FB60F92A6
:1048600011242F933F934F935F936F937F938F9375
:104870009F93AF93BF93EF93FF938091E10082FFEB
:104880000BC08091E20082FF07C08091E1008B7F26
:104890008093E1000E948B268091DA0080FF19C08E
:1048A0008091D80080FF15C08091DA008E7F8093C0
:1048B000DA008091D90080FF96C080E189BD82E155
:1048C00089BD09B400FEFDCF81E0809353030E94AF
:1048D00071208091E10080FF19C08091E20080FF8B
:1048E00015C08091E2008E7F8093E2008091E2000B
:1048F00080618093E2008091D80080628093D8002C
:1049000019BC85E0809353030E9485208091E100CB
:1049100084FF2BC08091E20084FF27C080E189BD25
:1049200082E189BD89B5982F917080FFFBCF80917E
:10493000D8008F7D8093D8008091E1008F7E809396
:10494000E1008091E2008F7E8093E2008091E2009E
:1049500081608093E20080914F03882309F449C06D
:1049600084E0809353030E948E208091E10083FFB6
:1049700029C08091E20083FF25C08091E100877FFC
:104980008093E10082E08093530310924F03809163
:10499000E1008E7F8093E1008091E2008E7F809322
:1049A000E2008091E20080618093E20042E060E0FA
:1049B00080E00E942C238091F00088608093F000BA
:1049C0000E948220FF91EF91BF91AF919F918F91B3
:1049D0007F916F915F914F913F912F910F900FBEFB
:1049E0000F901F90189519BC109253030E947F20BE
:1049F00070CF8091E30087FD93E090935303B3CF92
:104A00001F920F920FB60F9211242F933F934F9343
:104A10005F936F937F938F939F93AF93BF93CF9346
:104A2000DF93EF93FF93D091E900DF708091EC006A
:104A3000C82FC17080FDC0E81092E9008091F0009D
:104A4000877F8093F00078940E9444251092E900BB
:104A50008091F00088608093F000CD2BCF70C093E0
:104A6000E900FF91EF91DF91CF91BF91AF919F91BD
:104A70008F917F916F915F914F913F912F910F9007
:104A80000FBE0F901F901895AAE2B0E0EAE4F5E29D
:104A90000C94612784E593E02091F100FC012193BF
:104AA000CF01F3E08C359F07B9F70E94AE208091CB
:104AB000E80083FF1EC180915403909155039A3002
:104AC00008F017C1E92FF0E0E650F74D0C941B27D2
:104AD000803899F0823809F00CC1809158038F70AA
:104AE000873008F006C18093E9008091EB0085FBD8
:104AF000882780F91092E90006C0809150039091B8
:104B00005103911182609091E800977F9093E800A3
:104B10008093F1001092F1008091E8008E77E5C05B
:104B2000882309F4D3C0823009F0E3C08091560392
:104B30008111D6C0809158038F702FEF280F263037
:104B400008F0D7C08093E9002091EB0020FFC8C097
:104B5000933031F48091EB0080628093EB00C0C011
:104B60009091EB0090619093EB0021E030E001C068
:104B7000220F8A95EAF72093EA001092EA008091CA
:104B8000EB008860EACF8111B4C0109156031F7703
:104B90008091E3008078812B8093E3008091E8008E
:104BA000877F8093E8000E9460238091E80080FF67
:104BB000FCCF8091E30080688093E30082E01111D4
:104BC00083E08093530395C08058823008F091C0F1
:104BD00080915603909157038C3D23E09207A1F5F5
:104BE00083E08A838AE289834FB7F894DE011396C3
:104BF00020E03EE051E2E32FF0E050935700E491D3
:104C000020FF03C0E295EF703F5FEF708E2F90E0C2
:104C1000EA30C0F0C7968D939D932F5F243159F7EA
:104C20004FBF8091E800877F8093E8006AE270E0E0
:104C3000CE0101960E946F228091E8008B778093CD
:104C4000E80057C0C096E7CF6091580370915903B0
:104C5000AE014F5F5F4F0E94AF21BC01892B09F469
:104C600048C09091E800977F9093E80089819A81ED
:104C70000E94CD22E1CF8038E1F58091E800877F66
:104C80008093E80080914F038093F10045CF81111C
:104C900030C090915603923060F58091E800877F94
:104CA0008093E80090934F030E94602380914F030C
:104CB000882311F084E005C08091E30087FDFACFDE
:104CC00081E0809353030E94992013C08091560382
:104CD000813079F481E0933009F080E080935103D2
:104CE0001092E9008091E800877F8093E8000E949D
:104CF00060238091E80083FF0AC08091E800877FED
:104D00008093E8008091EB0080628093EB00AA968C
:104D1000E3E00C947D270895CF938091530388237B
:104D2000A1F0C091E900CF709091EC00892F8170C3
:104D300090FD80E8C82B1092E9008091E80083FD87
:104D40000E944425CF70C093E900CF910895DB0104
:104D50008F939F930E943F27BF91AF91A29F800D99
:104D6000911DA39F900DB29F900D11240895991B42
:104D700079E004C0991F961708F0961B881F7A9552
:104D8000C9F78095089587FB082E062687FD819533
:104D900067FD61950E94B7260EF4919507FC8195F9
:104DA0000895AA1BBB1B51E107C0AA1FBB1FA61772
:104DB000B70710F0A61BB70B881F991F5A95A9F7C4
:104DC00080959095BC01CD01089597FB072E16F4B0
:104DD000009407D077FD09D00E94D12607FC05D0AA
:104DE0003EF4909581959F4F0895709561957F4F02
:104DF0000895A1E21A2EAA1BBB1BFD010DC0AA1F1C
:104E0000BB1FEE1FFF1FA217B307E407F50720F033
:104E1000A21BB30BE40BF50B661F771F881F991FAE
:104E20001A9469F760957095809590959B01AC01F7
:104E3000BD01CF010895EE0FFF1F0590F491E02D05
:104E400009940E942927332312F48A1B9B0B0C948C
:104E50003A27A29FB001B39FC001A39F700D811D8F
:104E60001124911DB29F700D811D1124911D089573
:104E70000E942927B7FF0895821B930B08950E9473
:104E80002927A59F900DB49F900DA49F800D911D83
:104E900011240895B7FF0C943F270E943F27821BDF
:104EA000930B08952F923F924F925F926F927F9251
:104EB0008F929F92AF92BF92CF92DF92EF92FF922A
:104EC0000F931F93CF93DF93CDB7DEB7CA1BDB0BD6
:104ED0000FB6F894DEBF0FBECDBF09942A8839887B
:104EE00048885F846E847D848C849B84AA84B98482
:104EF000C884DF80EE80FD800C811B81AA81B9818E
:104F0000CE0FD11D0FB6F894DEBF0FBECDBFED01A1
:104F100008958F929F92AF92BF92CF92DF92EF92BD
:104F2000FF92CF93DF93EC01688179818A819B8125
:104F3000611571058105910521F464E279ED8BE538
:104F400097E02DE133EF41E050E00E945028490105
:104F50005A019B01AC01A7EAB1E40E943F276B0113
:104F60007C01ACEEB4EFA50194010E944D27DC0159
:104F7000CB018C0D9D1DAE1DBF1DB7FF03C001975A
:104F8000A109B04888839983AA83BB839F77DF9167
:104F9000CF91FF90EF90DF90CF90BF90AF909F9018
:104FA0008F9008950E948927089580E091E00E94E3
:104FB00089270895B0E0A0E080930001909301015B
:104FC000A0930201B09303010895FC0141505040A9
:104FD00030F001900616D1F73197CF010895882758
:104FE00099270895FB01DC0104C08D91019080197F
:104FF00021F441505040C8F7881B990B0895FB01DC
:10500000DC0102C001900D9241505040D8F7089544
:10501000F999FECF92BD81BDF89A992780B5089580
:10502000A6E1B0E044E050E00C944228A8E1B0E0F2
:1050300042E050E00C944228262FF999FECF92BD11
:1050400081BDF89A019700B4021639F01FBA20BD4D
:105050000FB6F894FA9AF99A0FBE08950396272F7F
:105060000E941D280E941C28252F0E941D28242FE5
:105070000C941D280196272F0E941D280C941C2893
:10508000DC01CB01FC01F999FECF06C0F2BDE1BD08
:10509000F89A319600B40D9241505040B8F70895F7
:1050A000052E97FB1EF400940E94672857FD07D039
:1050B0000E94F92607FC03D04EF40C946728509503
:1050C0004095309521953F4F4F4F5F4F08959095F4
:1050D0008095709561957F4F8F4F9F4F0895F894FD
:1050E000FFCFB605B605E705E705790616061606ED
:1050F000160695060607150715070D1914191B192D
:10510000201925192A192F19341939193E1943194B
:1051100048194C195119541957195A195D195F1921
:1051200062196419C21B361CCA1B941B981BCE1B28
:105130009C1BD21BDE1BA81B2F1CAC1BE21BB01B35
:10514000E61B0E1CB41BEA1B151CBA1BF01BF81B3C
:10515000A01BD61BA41BDA1BBE1BF41B041C1E1CAD
:105160002D1C8E1BC61B3D1C5D1C541C601C521C40
:10517000B11CB11C521CB11CB11C7C1CB11C871C85
:10518000921CB11CB11CB11CB11C521CB11CB11C35
:10519000521CB11C6E1CB11CB11CAF1CAF1CAF1C4F
:1051A000AF1CAF1CAF1CAF1CAF1CAF1C9D1CB11CB7
:1051B0005D1C501CB11CB11CB11CB11CB11CB11C3C
:1051C000B11CB11CB11CB11C9D1CB11CB11C521CEA
:1051D000B11CA41CA41CA41CA41CA41CA41CA41CC2
:1051E000A41CA41C9D1C9A1DA01D891D941DA61DF8
:1051F000AC1DB21D68259025792690257926C325FA
:08520000E42579263B26472630
:10520800010000005A02010102000C000C0C0119F7
:105218001A1B1C1D1E1F2021221E204D2021204646
:105228002001E200E900EA00B500B600B700CD00B1
:105238008301CC008A0192019401210223022402F5
:105248002502260227022A02B300B4006F0070006C
:105258009F01CB01818283E200E900EA00B500B634
:1052680000B700CD008301CC008A0192019401218E
:1052780002230224022502260227022A02B300B4CE
:10528800006F0070009F01CB01818283F0F1C66737
:1052980066369431F73534979633329091929395D8
:1052A8000001020202020606060909090909090F96
:1052B8000F0F0F0F0F151515181919191919191995
:0C52C8001919192324252525252525006A
:00000001FF
